{"abi":[{"type":"function","name":"isNullifierUsed","inputs":[{"name":"_nullifier","type":"bytes32","internalType":"bytes32"}],"outputs":[{"name":"","type":"bool","internalType":"bool"}],"stateMutability":"view"},{"type":"function","name":"markNullifierUsed","inputs":[{"name":"_nullifier","type":"bytes32","internalType":"bytes32"}],"outputs":[],"stateMutability":"nonpayable"},{"type":"function","name":"nullifierUsed","inputs":[{"name":"","type":"bytes32","internalType":"bytes32"}],"outputs":[{"name":"","type":"bool","internalType":"bool"}],"stateMutability":"view"},{"type":"function","name":"verifyProof","inputs":[{"name":"","type":"uint256[2]","internalType":"uint256[2]"},{"name":"","type":"uint256[2][2]","internalType":"uint256[2][2]"},{"name":"","type":"uint256[2]","internalType":"uint256[2]"},{"name":"_pubSignals","type":"uint256[4]","internalType":"uint256[4]"}],"outputs":[{"name":"","type":"bool","internalType":"bool"}],"stateMutability":"view"},{"type":"event","name":"ProofVerified","inputs":[{"name":"nullifier","type":"bytes32","indexed":true,"internalType":"bytes32"}],"anonymous":false}],"bytecode":{"object":"0x60808060405234610016576101c0908161001c8239f35b600080fdfe604060808152600436101561001357600080fd5b600090813560e01c8063057cb0f51461013957806322dc7b4c1461010d5780635fe8c13b1461007a57637ecf686d1461004b57600080fd5b346100765760203660031901126100765760ff81602093600435815280855220541690519015158152f35b5080fd5b50903461010a5761018036600319011261010a573660441161010a573660c41161010a576101043681116100765736610184116100765760ff918391358152806020522054166100ce576020905160018152f35b5162461bcd60e51b8152602060048201526016602482015275139d5b1b1a599a595c88185b1c9958591e481d5cd95960521b6044820152606490fd5b80fd5b50346100765760203660031901126100765760ff81602093600435815280855220541690519015158152f35b50346100765760203660031901126100765760043590818352826020528220600160ff198254161790557f543093db8d78fd8619586d3a0be12a5736836393feede0888f262888c81ce4c38280a280f3fea2646970667358221220d5d58ecd3066d21e177152e39c77b45b8f4481f10a9ddc45801ba3ea39e54d4564736f6c63430008170033","linkReferences":{}},"methodIdentifiers":{"isNullifierUsed(bytes32)":"22dc7b4c","markNullifierUsed(bytes32)":"057cb0f5","nullifierUsed(bytes32)":"7ecf686d","verifyProof(uint256[2],uint256[2][2],uint256[2],uint256[4])":"5fe8c13b"},"id":64}