{"abi":[{"type":"constructor","inputs":[],"stateMutability":"nonpayable"},{"type":"function","name":"DEFAULT_ADMIN_ROLE","inputs":[],"outputs":[{"name":"","type":"bytes32","internalType":"bytes32"}],"stateMutability":"view"},{"type":"function","name":"GOVERNMENT_ROLE","inputs":[],"outputs":[{"name":"","type":"bytes32","internalType":"bytes32"}],"stateMutability":"view"},{"type":"function","name":"OPERATOR_ROLE","inputs":[],"outputs":[{"name":"","type":"bytes32","internalType":"bytes32"}],"stateMutability":"view"},{"type":"function","name":"UPGRADE_INTERFACE_VERSION","inputs":[],"outputs":[{"name":"","type":"string","internalType":"string"}],"stateMutability":"view"},{"type":"function","name":"categoryRewards","inputs":[{"name":"","type":"uint16","internalType":"uint16"}],"outputs":[{"name":"","type":"uint256","internalType":"uint256"}],"stateMutability":"view"},{"type":"function","name":"depositFunds","inputs":[{"name":"_amount","type":"uint256","internalType":"uint256"}],"outputs":[],"stateMutability":"nonpayable"},{"type":"function","name":"emergencyWithdraw","inputs":[{"name":"_to","type":"address","internalType":"address"},{"name":"_amount","type":"uint256","internalType":"uint256"}],"outputs":[],"stateMutability":"nonpayable"},{"type":"function","name":"getCategoryReward","inputs":[{"name":"_category","type":"uint16","internalType":"uint16"}],"outputs":[{"name":"","type":"uint256","internalType":"uint256"}],"stateMutability":"view"},{"type":"function","name":"getRoleAdmin","inputs":[{"name":"role","type":"bytes32","internalType":"bytes32"}],"outputs":[{"name":"","type":"bytes32","internalType":"bytes32"}],"stateMutability":"view"},{"type":"function","name":"getTreasuryBalance","inputs":[],"outputs":[{"name":"","type":"uint256","internalType":"uint256"}],"stateMutability":"view"},{"type":"function","name":"grantRole","inputs":[{"name":"role","type":"bytes32","internalType":"bytes32"},{"name":"account","type":"address","internalType":"address"}],"outputs":[],"stateMutability":"nonpayable"},{"type":"function","name":"hasRole","inputs":[{"name":"role","type":"bytes32","internalType":"bytes32"},{"name":"account","type":"address","internalType":"address"}],"outputs":[{"name":"","type":"bool","internalType":"bool"}],"stateMutability":"view"},{"type":"function","name":"initialize","inputs":[{"name":"_admin","type":"address","internalType":"address"},{"name":"_usxToken","type":"address","internalType":"address"}],"outputs":[],"stateMutability":"nonpayable"},{"type":"function","name":"proxiableUUID","inputs":[],"outputs":[{"name":"","type":"bytes32","internalType":"bytes32"}],"stateMutability":"view"},{"type":"function","name":"releaseRewards","inputs":[{"name":"_reportId","type":"bytes32","internalType":"bytes32"},{"name":"_category","type":"uint16","internalType":"uint16"},{"name":"_reporter","type":"address","internalType":"address"},{"name":"_validators","type":"address[]","internalType":"address[]"}],"outputs":[],"stateMutability":"nonpayable"},{"type":"function","name":"renounceRole","inputs":[{"name":"role","type":"bytes32","internalType":"bytes32"},{"name":"callerConfirmation","type":"address","internalType":"address"}],"outputs":[],"stateMutability":"nonpayable"},{"type":"function","name":"reporterRewardPercentage","inputs":[],"outputs":[{"name":"","type":"uint256","internalType":"uint256"}],"stateMutability":"view"},{"type":"function","name":"revokeRole","inputs":[{"name":"role","type":"bytes32","internalType":"bytes32"},{"name":"account","type":"address","internalType":"address"}],"outputs":[],"stateMutability":"nonpayable"},{"type":"function","name":"rewardsPaid","inputs":[{"name":"","type":"bytes32","internalType":"bytes32"}],"outputs":[{"name":"","type":"bool","internalType":"bool"}],"stateMutability":"view"},{"type":"function","name":"setCategoryReward","inputs":[{"name":"_category","type":"uint16","internalType":"uint16"},{"name":"_amount","type":"uint256","internalType":"uint256"}],"outputs":[],"stateMutability":"nonpayable"},{"type":"function","name":"setRewardPercentages","inputs":[{"name":"_reporterPct","type":"uint256","internalType":"uint256"},{"name":"_validatorPct","type":"uint256","internalType":"uint256"}],"outputs":[],"stateMutability":"nonpayable"},{"type":"function","name":"setUSXToken","inputs":[{"name":"_newUSXToken","type":"address","internalType":"address"}],"outputs":[],"stateMutability":"nonpayable"},{"type":"function","name":"supportsInterface","inputs":[{"name":"interfaceId","type":"bytes4","internalType":"bytes4"}],"outputs":[{"name":"","type":"bool","internalType":"bool"}],"stateMutability":"view"},{"type":"function","name":"totalDeposited","inputs":[],"outputs":[{"name":"","type":"uint256","internalType":"uint256"}],"stateMutability":"view"},{"type":"function","name":"totalPaid","inputs":[],"outputs":[{"name":"","type":"uint256","internalType":"uint256"}],"stateMutability":"view"},{"type":"function","name":"upgradeToAndCall","inputs":[{"name":"newImplementation","type":"address","internalType":"address"},{"name":"data","type":"bytes","internalType":"bytes"}],"outputs":[],"stateMutability":"payable"},{"type":"function","name":"usxToken","inputs":[],"outputs":[{"name":"","type":"address","internalType":"contract IERC20"}],"stateMutability":"view"},{"type":"function","name":"validatorRewardPercentage","inputs":[],"outputs":[{"name":"","type":"uint256","internalType":"uint256"}],"stateMutability":"view"},{"type":"event","name":"ConfigUpdated","inputs":[{"name":"param","type":"string","indexed":false,"internalType":"string"},{"name":"newValue","type":"uint256","indexed":false,"internalType":"uint256"}],"anonymous":false},{"type":"event","name":"FundsDeposited","inputs":[{"name":"government","type":"address","indexed":true,"internalType":"address"},{"name":"amount","type":"uint256","indexed":false,"internalType":"uint256"},{"name":"timestamp","type":"uint256","indexed":false,"internalType":"uint256"}],"anonymous":false},{"type":"event","name":"Initialized","inputs":[{"name":"version","type":"uint64","indexed":false,"internalType":"uint64"}],"anonymous":false},{"type":"event","name":"RewardReleased","inputs":[{"name":"reportId","type":"bytes32","indexed":true,"internalType":"bytes32"},{"name":"reporter","type":"address","indexed":true,"internalType":"address"},{"name":"validators","type":"address[]","indexed":false,"internalType":"address[]"},{"name":"totalAmount","type":"uint256","indexed":false,"internalType":"uint256"}],"anonymous":false},{"type":"event","name":"RoleAdminChanged","inputs":[{"name":"role","type":"bytes32","indexed":true,"internalType":"bytes32"},{"name":"previousAdminRole","type":"bytes32","indexed":true,"internalType":"bytes32"},{"name":"newAdminRole","type":"bytes32","indexed":true,"internalType":"bytes32"}],"anonymous":false},{"type":"event","name":"RoleGranted","inputs":[{"name":"role","type":"bytes32","indexed":true,"internalType":"bytes32"},{"name":"account","type":"address","indexed":true,"internalType":"address"},{"name":"sender","type":"address","indexed":true,"internalType":"address"}],"anonymous":false},{"type":"event","name":"RoleRevoked","inputs":[{"name":"role","type":"bytes32","indexed":true,"internalType":"bytes32"},{"name":"account","type":"address","indexed":true,"internalType":"address"},{"name":"sender","type":"address","indexed":true,"internalType":"address"}],"anonymous":false},{"type":"event","name":"USXTokenUpdated","inputs":[{"name":"oldToken","type":"address","indexed":true,"internalType":"address"},{"name":"newToken","type":"address","indexed":true,"internalType":"address"}],"anonymous":false},{"type":"event","name":"Upgraded","inputs":[{"name":"implementation","type":"address","indexed":true,"internalType":"address"}],"anonymous":false},{"type":"error","name":"AccessControlBadConfirmation","inputs":[]},{"type":"error","name":"AccessControlUnauthorizedAccount","inputs":[{"name":"account","type":"address","internalType":"address"},{"name":"neededRole","type":"bytes32","internalType":"bytes32"}]},{"type":"error","name":"AddressEmptyCode","inputs":[{"name":"target","type":"address","internalType":"address"}]},{"type":"error","name":"ERC1967InvalidImplementation","inputs":[{"name":"implementation","type":"address","internalType":"address"}]},{"type":"error","name":"ERC1967NonPayable","inputs":[]},{"type":"error","name":"FailedCall","inputs":[]},{"type":"error","name":"InvalidInitialization","inputs":[]},{"type":"error","name":"NotInitializing","inputs":[]},{"type":"error","name":"SafeERC20FailedOperation","inputs":[{"name":"token","type":"address","internalType":"address"}]},{"type":"error","name":"UUPSUnauthorizedCallContext","inputs":[]},{"type":"error","name":"UUPSUnsupportedProxiableUUID","inputs":[{"name":"slot","type":"bytes32","internalType":"bytes32"}]}],"bytecode":{"object":"0x60a080604052346100ea57306080527ff0c57e16840df040f15088dc2f81fe391c3923bec73e23a9662efc9c229c6a005460ff8160401c166100d9576002600160401b03196001600160401b03821601610073575b6040516118ca90816100f08239608051818181610a8f0152610b6f0152f35b6001600160401b0319166001600160401b039081177ff0c57e16840df040f15088dc2f81fe391c3923bec73e23a9662efc9c229c6a005581527fc7f505b2f371ae2175ee4913f4499e1f2633a7b5936321eed1cdaeb6115181d290602090a13880610054565b63f92ee8a960e01b60005260046000fd5b600080fdfe608080604052600436101561001357600080fd5b60003560e01c90816301ffc9a71461129a57508063134ec70214611269578063248a9ca3146112435780632f2ff15d1461121257806336568abe146111cc5780633b76594d1461103d57806344fd75aa14610f93578063485cc95514610d0e5780634f1ef28614610ae657806352d1902d14610a7c5780635a23a8cf146109e65780636f502056146108fd57806387355f711461054057806391d14854146104e657806395ccea67146104095780639b5655dc146103745780639cbed582146103395780639f0fa001146101b1578063a217fddf1461031d578063ad3cb1cc146102a1578063ae5d323214610283578063baedd77a1461025a578063d547741f14610222578063e240c71c14610204578063e7b0f666146101e6578063f0fe70ca146101b1578063f5b541a6146101765763ff50abdc1461015357600080fd5b34610171576000366003190112610171576020600554604051908152f35b600080fd5b346101715760003660031901126101715760206040517f523a704056dcd17bcf83bed8b68c59416dac1119be77755efe3bde0a64e46e0c8152f35b346101715760203660031901126101715761ffff6101cd61133b565b1660005260036020526020604060002054604051908152f35b34610171576000366003190112610171576020600654604051908152f35b34610171576000366003190112610171576020600154604051908152f35b34610171576040366003190112610171576102586004356102416112ed565b9061025361024e8261134c565b61140c565b61167f565b005b34610171576000366003190112610171576000546040516001600160a01b039091168152602090f35b34610171576000366003190112610171576020600254604051908152f35b346101715760003660031901126101715760408051906102c18183611319565b60058252640352e302e360dc1b6020830152805180926020825280519081602084015260005b8281106103065750506000828201840152601f01601f19168101030190f35b6020828201810151878301870152869450016102e7565b3461017157600036600319011261017157602060405160008152f35b346101715760003660031901126101715760206040517fc7a6bfa28ee24953425efb0bb89772445020cd5ae1af751673fd61a47416f0178152f35b34610171576000366003190112610171576000546040516370a0823160e01b815230600482015290602090829060249082906001600160a01b03165afa80156103fd576000906103ca575b602090604051908152f35b506020813d6020116103f5575b816103e460209383611319565b8101031261017157602090516103bf565b3d91506103d7565b6040513d6000823e3d90fd5b3461017157604036600319011261017157610422611303565b60243561042d6113b9565b6000546040516370a0823160e01b81523060048201526001600160a01b039091169290602081602481875afa9081156103fd576000916104b4575b508211610478576102589261171f565b60405162461bcd60e51b8152602060048201526014602482015273496e73756666696369656e742062616c616e636560601b6044820152606490fd5b90506020813d6020116104de575b816104cf60209383611319565b81010312610171575184610468565b3d91506104c2565b34610171576040366003190112610171576104ff6112ed565b60043560005260008051602061185583398151915260205260406000209060018060a01b0316600052602052602060ff604060002054166040519015158152f35b346101715760803660031901126101715760043560243561ffff811680910361017157604435916001600160a01b038316808403610171576064359167ffffffffffffffff831161017157366023840112156101715782600401359367ffffffffffffffff8511610171573660248660051b86010111610171573360009081527f5dfc6369ede8c1331430c00b581919993675ec010140508e8a499d5c8bfbd937602052604090205460ff16156108c45781600052600460205260ff6040600020541661088857821561085057841561081b57610620600282111561137a565b60005260036020526040600020549360018060a01b0360005416956040516370a0823160e01b81523060048201526020816024818b5afa80156103fd5787916000916107e6575b50106107a15760015480870290878204148715171561078b57606490048087039187831161078b578361069b93049861171f565b60005b818110156106e25760008054600583901b870160240135916001600160a01b0391821691831683036106df575088600193926106d99261171f565b0161069e565b80fd5b5083858360005260046020526040600020600160ff1982541617905561070a8160065461136d565b60065560405192806040850160408652526024606085019301906000905b808210610761575050509180917fdc85a8e7c618fd9c6101293c2b9dc02e75755c546fffdbcf7f34980d54a4a8f69360208301520390a3005b90919384359060018060a01b03821680920361017157602081600193829352019501920190610728565b634e487b7160e01b600052601160045260246000fd5b60405162461bcd60e51b815260206004820152601860248201527f496e73756666696369656e74205553582062616c616e636500000000000000006044820152606490fd5b9150506020813d602011610813575b8161080260209383611319565b810103126101715786905189610667565b3d91506107f5565b60405162461bcd60e51b815260206004820152600d60248201526c4e6f2076616c696461746f727360981b6044820152606490fd5b60405162461bcd60e51b815260206004820152601060248201526f24b73b30b634b2103932b837b93a32b960811b6044820152606490fd5b60405162461bcd60e51b815260206004820152601460248201527314995dd85c991cc8185b1c9958591e481c185a5960621b6044820152606490fd5b63e2517d3f60e01b600052336004527f523a704056dcd17bcf83bed8b68c59416dac1119be77755efe3bde0a64e46e0c60245260446000fd5b346101715760403660031901126101715760243560043561091c6113b9565b6064610928838361136d565b036109b1577f12c9dccd129ff783f1c8228eacdfa8e334ddecb7ec5c9a79ec662a4aed3d012a91826080838194600155836002556040519060408252600b60408301526a1c995c1bdc9d195c9418dd60aa1b60608301526020820152a16040519060408252600c60408301526b1d985b1a59185d1bdc9418dd60a21b60608301526020820152a1005b60405162461bcd60e51b815260206004820152600d60248201526c4d7573742073756d203130302560981b6044820152606490fd5b34610171576040366003190112610171577f12c9dccd129ff783f1c8228eacdfa8e334ddecb7ec5c9a79ec662a4aed3d012a6080610a2261133b565b61ffff60243591610a316113b9565b16610a3f600282111561137a565b6000526003602052806040600020556040519060408252600e60408301526d18d85d1959dbdc9e54995dd85c9960921b60608301526020820152a1005b34610171576000366003190112610171577f00000000000000000000000000000000000000000000000000000000000000006001600160a01b03163003610ad55760206040516000805160206118358339815191528152f35b63703e46dd60e11b60005260046000fd5b604036600319011261017157610afa611303565b6024359067ffffffffffffffff8211610171573660238301121561017157816004013567ffffffffffffffff8111610cf85760405192610b44601f8301601f191660200185611319565b8184523660248383010111610171578160009260246020930183870137840101526001600160a01b037f000000000000000000000000000000000000000000000000000000000000000016308114908115610cd5575b50610ad557610ba76113b9565b6040516352d1902d60e01b81526001600160a01b0382169290602081600481875afa60009181610ca1575b50610bec5783634c9c8ce360e01b60005260045260246000fd5b80600080516020611835833981519152859203610c8d5750823b15610c795760008051602061183583398151915280546001600160a01b031916821790557fbc7cd75a20ee27fd9adebab32041f755214dbc6bffa90cc0225b39da2e5c2d3b600080a2805115610c5f57610258916117a2565b505034610c6857005b63b398979f60e01b60005260046000fd5b634c9c8ce360e01b60005260045260246000fd5b632a87526960e21b60005260045260246000fd5b9091506020813d602011610ccd575b81610cbd60209383611319565b8101031261017157519085610bd2565b3d9150610cb0565b600080516020611835833981519152546001600160a01b03161415905083610b9a565b634e487b7160e01b600052604160045260246000fd5b3461017157604036600319011261017157610d27611303565b610d2f6112ed565b90600080516020611875833981519152549160ff8360401c16159267ffffffffffffffff811680159081610f8b575b6001149081610f81575b159081610f78575b50610f675767ffffffffffffffff1981166001176000805160206118758339815191525583610f3a575b5060ff6000805160206118758339815191525460401c1615610f29576001600160a01b0316908115610ee45780610dd3610dd992611456565b50611508565b50600080546001600160a01b0319169190911781556046600155601e600290815560036020526802b5e3af16b18800007f3617319a054d772f909f7c479a2cebe5066e836a939412e32403c99029b92eff5568056bc75e2d631000007fa15bc60c955c405d20d9149c709e2460f1c2d9a497496a7f46004d1772c3054c55905268015af1d78b58c400007fc3a24b0501bd2c13a7e57f2db4369ec4c223447539fc0724a9d55ac4a06ebd4d55610e8b57005b68ff0000000000000000196000805160206118758339815191525416600080516020611875833981519152557fc7f505b2f371ae2175ee4913f4499e1f2633a7b5936321eed1cdaeb6115181d2602060405160018152a1005b60405162461bcd60e51b815260206004820152601960248201527f496e76616c69642055535820746f6b656e2061646472657373000000000000006044820152606490fd5b631afcd79f60e31b60005260046000fd5b68ffffffffffffffffff191668010000000000000001176000805160206118758339815191525583610d9a565b63f92ee8a960e01b60005260046000fd5b90501585610d70565b303b159150610d68565b859150610d5e565b3461017157602036600319011261017157610fac611303565b610fb46113b9565b6001600160a01b0316801561100657600080546001600160a01b03198116831782556001600160a01b0316907fce231193e67c7ddee64f6fb0c93ce9d2b00744ccc640ef9b0f47acce20f6fe299080a3005b60405162461bcd60e51b815260206004820152600f60248201526e496e76616c6964206164647265737360881b6044820152606490fd5b34610171576020366003190112610171573360009081527f62a96686a713b4e01fcf8d0d26e0c5704c56e3f331cfbdbc05ac17743d40fca060205260409020546004359060ff161561119357801561115957600080546040516323b872dd60e01b8352336004523060245260448490526001600160a01b039091169160209060648180865af190600160005114821615611137575b60405260006060521561112357506110ec8160055461136d565b6005556040519081524260208201527fbee4fe3675934fca827426c793623996a3079255089bda3a717019ffc5db276560403392a2005b635274afe760e01b60005260045260246000fd5b90600181151661114f57823b15153d151616906110d2565b503d6000823e3d90fd5b60405162461bcd60e51b81526020600482015260126024820152710416d6f756e74206d757374206265203e20360741b6044820152606490fd5b63e2517d3f60e01b600052336004527fc7a6bfa28ee24953425efb0bb89772445020cd5ae1af751673fd61a47416f01760245260446000fd5b34610171576040366003190112610171576111e56112ed565b336001600160a01b03821603611201576102589060043561167f565b63334bd91960e11b60005260046000fd5b34610171576040366003190112610171576102586004356112316112ed565b9061123e61024e8261134c565b6115d6565b3461017157602036600319011261017157602061126160043561134c565b604051908152f35b34610171576020366003190112610171576004356000526004602052602060ff604060002054166040519015158152f35b34610171576020366003190112610171576004359063ffffffff60e01b821680920361017157602091637965db0b60e01b81149081156112dc575b5015158152f35b6301ffc9a760e01b149050836112d5565b602435906001600160a01b038216820361017157565b600435906001600160a01b038216820361017157565b90601f8019910116810190811067ffffffffffffffff821117610cf857604052565b6004359061ffff8216820361017157565b60005260008051602061185583398151915260205260016040600020015490565b9190820180921161078b57565b1561138157565b60405162461bcd60e51b815260206004820152601060248201526f496e76616c69642063617465676f727960801b6044820152606490fd5b3360009081527fb7db2dd08fcb62d0c9e08c51941cae53c267786a0b75803fb7960902fc8ef97d602052604090205460ff16156113f257565b63e2517d3f60e01b60005233600452600060245260446000fd5b60008181526000805160206118558339815191526020908152604080832033845290915290205460ff161561143e5750565b63e2517d3f60e01b6000523360045260245260446000fd5b6001600160a01b03811660009081527fb7db2dd08fcb62d0c9e08c51941cae53c267786a0b75803fb7960902fc8ef97d602052604090205460ff16611502576001600160a01b031660008181527fb7db2dd08fcb62d0c9e08c51941cae53c267786a0b75803fb7960902fc8ef97d60205260408120805460ff191660011790553391907f2f8788117e7eff1d82e926ec794901d17c78024a50270940304540a733656f0d8180a4600190565b50600090565b6001600160a01b03811660009081527f5dfc6369ede8c1331430c00b581919993675ec010140508e8a499d5c8bfbd937602052604090205460ff16611502576001600160a01b031660008181527f5dfc6369ede8c1331430c00b581919993675ec010140508e8a499d5c8bfbd93760205260408120805460ff191660011790553391907f523a704056dcd17bcf83bed8b68c59416dac1119be77755efe3bde0a64e46e0c907f2f8788117e7eff1d82e926ec794901d17c78024a50270940304540a733656f0d9080a4600190565b6000818152600080516020611855833981519152602090815260408083206001600160a01b038616845290915290205460ff16611678576000818152600080516020611855833981519152602090815260408083206001600160a01b0395909516808452949091528120805460ff19166001179055339291907f2f8788117e7eff1d82e926ec794901d17c78024a50270940304540a733656f0d9080a4600190565b5050600090565b6000818152600080516020611855833981519152602090815260408083206001600160a01b038616845290915290205460ff1615611678576000818152600080516020611855833981519152602090815260408083206001600160a01b0395909516808452949091528120805460ff19169055339291907ff6391f5c32d9c69d2a47ea670b442974b53935d1edc7fd64eb21e047a839171b9080a4600190565b60405163a9059cbb60e01b60009081526001600160a01b03909316600452602493909352919060209060448180865af19060016000511482161561178a575b604052156117695750565b635274afe760e01b60009081526001600160a01b0391909116600452602490fd5b90600181151661114f57823b15153d1516169061175e565b9060008091602081519101845af48080611821575b156117d85750506040513d81523d6000602083013e60203d82010160405290565b156117fe57639996b31560e01b60009081526001600160a01b0391909116600452602490fd5b3d15611810576040513d6000823e3d90fd5b63d6bda27560e01b60005260046000fd5b503d1515806117b75750813b15156117b756fe360894a13ba1a3210667c828492db98dca3e2076cc3735a920a3ca505d382bbc02dd7bc7dec4dceedda775e58dd541e08a116c6c53815c0bd028192f7b626800f0c57e16840df040f15088dc2f81fe391c3923bec73e23a9662efc9c229c6a00a264697066735822122037cebd86e7d6d7a21f96360659e6df258257bf437c1301181548421982c48ee164736f6c634300081c0033","linkReferences":{}},"methodIdentifiers":{"DEFAULT_ADMIN_ROLE()":"a217fddf","GOVERNMENT_ROLE()":"9cbed582","OPERATOR_ROLE()":"f5b541a6","UPGRADE_INTERFACE_VERSION()":"ad3cb1cc","categoryRewards(uint16)":"f0fe70ca","depositFunds(uint256)":"3b76594d","emergencyWithdraw(address,uint256)":"95ccea67","getCategoryReward(uint16)":"9f0fa001","getRoleAdmin(bytes32)":"248a9ca3","getTreasuryBalance()":"9b5655dc","grantRole(bytes32,address)":"2f2ff15d","hasRole(bytes32,address)":"91d14854","initialize(address,address)":"485cc955","proxiableUUID()":"52d1902d","releaseRewards(bytes32,uint16,address,address[])":"87355f71","renounceRole(bytes32,address)":"36568abe","reporterRewardPercentage()":"e240c71c","revokeRole(bytes32,address)":"d547741f","rewardsPaid(bytes32)":"134ec702","setCategoryReward(uint16,uint256)":"5a23a8cf","setRewardPercentages(uint256,uint256)":"6f502056","setUSXToken(address)":"44fd75aa","supportsInterface(bytes4)":"01ffc9a7","totalDeposited()":"ff50abdc","totalPaid()":"e7b0f666","upgradeToAndCall(address,bytes)":"4f1ef286","usxToken()":"baedd77a","validatorRewardPercentage()":"ae5d3232"},"id":61}