{"abi":[{"type":"constructor","inputs":[],"stateMutability":"nonpayable"},{"type":"function","name":"DEFAULT_ADMIN_ROLE","inputs":[],"outputs":[{"name":"","type":"bytes32","internalType":"bytes32"}],"stateMutability":"view"},{"type":"function","name":"GOVERNMENT_ROLE","inputs":[],"outputs":[{"name":"","type":"bytes32","internalType":"bytes32"}],"stateMutability":"view"},{"type":"function","name":"OPERATOR_ROLE","inputs":[],"outputs":[{"name":"","type":"bytes32","internalType":"bytes32"}],"stateMutability":"view"},{"type":"function","name":"UPGRADE_INTERFACE_VERSION","inputs":[],"outputs":[{"name":"","type":"string","internalType":"string"}],"stateMutability":"view"},{"type":"function","name":"categoryRewards","inputs":[{"name":"","type":"uint16","internalType":"uint16"}],"outputs":[{"name":"","type":"uint256","internalType":"uint256"}],"stateMutability":"view"},{"type":"function","name":"depositFunds","inputs":[{"name":"_amount","type":"uint256","internalType":"uint256"}],"outputs":[],"stateMutability":"nonpayable"},{"type":"function","name":"emergencyWithdraw","inputs":[{"name":"_to","type":"address","internalType":"address"},{"name":"_amount","type":"uint256","internalType":"uint256"}],"outputs":[],"stateMutability":"nonpayable"},{"type":"function","name":"getCategoryReward","inputs":[{"name":"_category","type":"uint16","internalType":"uint16"}],"outputs":[{"name":"","type":"uint256","internalType":"uint256"}],"stateMutability":"view"},{"type":"function","name":"getRoleAdmin","inputs":[{"name":"role","type":"bytes32","internalType":"bytes32"}],"outputs":[{"name":"","type":"bytes32","internalType":"bytes32"}],"stateMutability":"view"},{"type":"function","name":"getTreasuryBalance","inputs":[],"outputs":[{"name":"","type":"uint256","internalType":"uint256"}],"stateMutability":"view"},{"type":"function","name":"grantRole","inputs":[{"name":"role","type":"bytes32","internalType":"bytes32"},{"name":"account","type":"address","internalType":"address"}],"outputs":[],"stateMutability":"nonpayable"},{"type":"function","name":"hasRole","inputs":[{"name":"role","type":"bytes32","internalType":"bytes32"},{"name":"account","type":"address","internalType":"address"}],"outputs":[{"name":"","type":"bool","internalType":"bool"}],"stateMutability":"view"},{"type":"function","name":"initialize","inputs":[{"name":"_admin","type":"address","internalType":"address"},{"name":"_usxToken","type":"address","internalType":"address"}],"outputs":[],"stateMutability":"nonpayable"},{"type":"function","name":"proxiableUUID","inputs":[],"outputs":[{"name":"","type":"bytes32","internalType":"bytes32"}],"stateMutability":"view"},{"type":"function","name":"releaseRewards","inputs":[{"name":"_reportId","type":"bytes32","internalType":"bytes32"},{"name":"_category","type":"uint16","internalType":"uint16"},{"name":"_reporter","type":"address","internalType":"address"},{"name":"_validators","type":"address[]","internalType":"address[]"}],"outputs":[],"stateMutability":"nonpayable"},{"type":"function","name":"renounceRole","inputs":[{"name":"role","type":"bytes32","internalType":"bytes32"},{"name":"callerConfirmation","type":"address","internalType":"address"}],"outputs":[],"stateMutability":"nonpayable"},{"type":"function","name":"reporterRewardPercentage","inputs":[],"outputs":[{"name":"","type":"uint256","internalType":"uint256"}],"stateMutability":"view"},{"type":"function","name":"revokeRole","inputs":[{"name":"role","type":"bytes32","internalType":"bytes32"},{"name":"account","type":"address","internalType":"address"}],"outputs":[],"stateMutability":"nonpayable"},{"type":"function","name":"rewardsPaid","inputs":[{"name":"","type":"bytes32","internalType":"bytes32"}],"outputs":[{"name":"","type":"bool","internalType":"bool"}],"stateMutability":"view"},{"type":"function","name":"setCategoryReward","inputs":[{"name":"_category","type":"uint16","internalType":"uint16"},{"name":"_amount","type":"uint256","internalType":"uint256"}],"outputs":[],"stateMutability":"nonpayable"},{"type":"function","name":"setRewardPercentages","inputs":[{"name":"_reporterPct","type":"uint256","internalType":"uint256"},{"name":"_validatorPct","type":"uint256","internalType":"uint256"}],"outputs":[],"stateMutability":"nonpayable"},{"type":"function","name":"setUSXToken","inputs":[{"name":"_newUSXToken","type":"address","internalType":"address"}],"outputs":[],"stateMutability":"nonpayable"},{"type":"function","name":"supportsInterface","inputs":[{"name":"interfaceId","type":"bytes4","internalType":"bytes4"}],"outputs":[{"name":"","type":"bool","internalType":"bool"}],"stateMutability":"view"},{"type":"function","name":"totalDeposited","inputs":[],"outputs":[{"name":"","type":"uint256","internalType":"uint256"}],"stateMutability":"view"},{"type":"function","name":"totalPaid","inputs":[],"outputs":[{"name":"","type":"uint256","internalType":"uint256"}],"stateMutability":"view"},{"type":"function","name":"upgradeToAndCall","inputs":[{"name":"newImplementation","type":"address","internalType":"address"},{"name":"data","type":"bytes","internalType":"bytes"}],"outputs":[],"stateMutability":"payable"},{"type":"function","name":"usxToken","inputs":[],"outputs":[{"name":"","type":"address","internalType":"contract IERC20"}],"stateMutability":"view"},{"type":"function","name":"validatorRewardPercentage","inputs":[],"outputs":[{"name":"","type":"uint256","internalType":"uint256"}],"stateMutability":"view"},{"type":"event","name":"ConfigUpdated","inputs":[{"name":"param","type":"string","indexed":false,"internalType":"string"},{"name":"newValue","type":"uint256","indexed":false,"internalType":"uint256"}],"anonymous":false},{"type":"event","name":"FundsDeposited","inputs":[{"name":"government","type":"address","indexed":true,"internalType":"address"},{"name":"amount","type":"uint256","indexed":false,"internalType":"uint256"},{"name":"timestamp","type":"uint256","indexed":false,"internalType":"uint256"}],"anonymous":false},{"type":"event","name":"Initialized","inputs":[{"name":"version","type":"uint64","indexed":false,"internalType":"uint64"}],"anonymous":false},{"type":"event","name":"RewardReleased","inputs":[{"name":"reportId","type":"bytes32","indexed":true,"internalType":"bytes32"},{"name":"reporter","type":"address","indexed":true,"internalType":"address"},{"name":"validators","type":"address[]","indexed":false,"internalType":"address[]"},{"name":"totalAmount","type":"uint256","indexed":false,"internalType":"uint256"}],"anonymous":false},{"type":"event","name":"RoleAdminChanged","inputs":[{"name":"role","type":"bytes32","indexed":true,"internalType":"bytes32"},{"name":"previousAdminRole","type":"bytes32","indexed":true,"internalType":"bytes32"},{"name":"newAdminRole","type":"bytes32","indexed":true,"internalType":"bytes32"}],"anonymous":false},{"type":"event","name":"RoleGranted","inputs":[{"name":"role","type":"bytes32","indexed":true,"internalType":"bytes32"},{"name":"account","type":"address","indexed":true,"internalType":"address"},{"name":"sender","type":"address","indexed":true,"internalType":"address"}],"anonymous":false},{"type":"event","name":"RoleRevoked","inputs":[{"name":"role","type":"bytes32","indexed":true,"internalType":"bytes32"},{"name":"account","type":"address","indexed":true,"internalType":"address"},{"name":"sender","type":"address","indexed":true,"internalType":"address"}],"anonymous":false},{"type":"event","name":"USXTokenUpdated","inputs":[{"name":"oldToken","type":"address","indexed":true,"internalType":"address"},{"name":"newToken","type":"address","indexed":true,"internalType":"address"}],"anonymous":false},{"type":"event","name":"Upgraded","inputs":[{"name":"implementation","type":"address","indexed":true,"internalType":"address"}],"anonymous":false},{"type":"error","name":"AccessControlBadConfirmation","inputs":[]},{"type":"error","name":"AccessControlUnauthorizedAccount","inputs":[{"name":"account","type":"address","internalType":"address"},{"name":"neededRole","type":"bytes32","internalType":"bytes32"}]},{"type":"error","name":"AddressEmptyCode","inputs":[{"name":"target","type":"address","internalType":"address"}]},{"type":"error","name":"ERC1967InvalidImplementation","inputs":[{"name":"implementation","type":"address","internalType":"address"}]},{"type":"error","name":"ERC1967NonPayable","inputs":[]},{"type":"error","name":"FailedCall","inputs":[]},{"type":"error","name":"InvalidInitialization","inputs":[]},{"type":"error","name":"NotInitializing","inputs":[]},{"type":"error","name":"SafeERC20FailedOperation","inputs":[{"name":"token","type":"address","internalType":"address"}]},{"type":"error","name":"UUPSUnauthorizedCallContext","inputs":[]},{"type":"error","name":"UUPSUnsupportedProxiableUUID","inputs":[{"name":"slot","type":"bytes32","internalType":"bytes32"}]}],"bytecode":{"object":"0x60a080604052346100cc57306080527ff0c57e16840df040f15088dc2f81fe391c3923bec73e23a9662efc9c229c6a009081549060ff8260401c166100bd57506001600160401b036002600160401b031982821601610078575b60405161180e90816100d28239608051818181610ade0152610bc80152f35b6001600160401b031990911681179091556040519081527fc7f505b2f371ae2175ee4913f4499e1f2633a7b5936321eed1cdaeb6115181d290602090a1388080610059565b63f92ee8a960e01b8152600490fd5b600080fdfe608060408181526004918236101561001657600080fd5b600092833560e01c91826301ffc9a71461127d57508163134ec70214611251578163248a9ca3146112195781632f2ff15d146111ef57816336568abe146111a95781633b76594d1461102a57816344fd75aa14610f84578163485cc95514610d7f5781634f1ef28614610b4557816352d1902d14610ac95781635a23a8cf14610a375781636f5020561461095057816387355f71146105aa57816391d148541461055657816395ccea67146104685781639b5655dc146103d05781639cbed582146103955781639f0fa00114610373578163a217fddf14610358578163ad3cb1cc146102b9578163ae5d32321461029a578163baedd77a14610272578163d547741f1461022157508063e240c71c14610203578063e7b0f666146101e5578063f0fe70ca146101b4578063f5b541a61461017a5763ff50abdc1461015957600080fd5b346101765781600319360112610176576020906005549051908152f35b5080fd5b5034610176578160031936011261017657602090517f523a704056dcd17bcf83bed8b68c59416dac1119be77755efe3bde0a64e46e0c8152f35b5034610176576020366003190112610176578060209261ffff6101d5611339565b1681526003845220549051908152f35b50346101765781600319360112610176576020906006549051908152f35b50346101765781600319360112610176576020906001549051908152f35b9190503461026e578060031936011261026e5761026a913561026560016102466112d0565b938387526000805160206117b983398151915260205286200154611404565b611620565b5080f35b8280fd5b505034610176578160031936011261017657905490516001600160a01b039091168152602090f35b5050346101765781600319360112610176576020906002549051908152f35b90503461026e578260031936011261026e578151908282019082821067ffffffffffffffff8311176103455750825260058152602090640352e302e360dc1b6020820152825193849260208452825192836020860152825b84811061032f57505050828201840152601f01601f19168101030190f35b8181018301518882018801528795508201610311565b634e487b7160e01b855260419052602484fd5b50503461017657816003193601126101765751908152602090f35b505034610176576020366003190112610176578060209261ffff6101d5611339565b505034610176578160031936011261017657602090517fc7a6bfa28ee24953425efb0bb89772445020cd5ae1af751673fd61a47416f0178152f35b9190503461026e578260031936011261026e57825481516370a0823160e01b81523093810193909352602090839060249082906001600160a01b03165afa91821561045e578392610426575b6020838351908152f35b9091506020813d602011610456575b8161044260209383611301565b8101031261026e576020925051903861041c565b3d9150610435565b81513d85823e3d90fd5b839150346101765782600319360112610176576104836112eb565b6024359161048f6113ac565b835485516370a0823160e01b815230838201526001600160a01b039091169190602081602481865afa90811561054c578691610516575b5084116104dc57506104d99394506116a3565b80f35b606490602087519162461bcd60e51b83528201526014602482015273496e73756666696369656e742062616c616e636560601b6044820152fd5b90506020813d602011610544575b8161053160209383611301565b810103126105405751876104c6565b8580fd5b3d9150610524565b87513d88823e3d90fd5b90503461026e578160031936011261026e578160209360ff926105776112d0565b903582526000805160206117b983398151915286528282206001600160a01b039091168252855220549151911615158152f35b9190503461026e57608036600319011261026e5781359060249283359061ffff82168092036105405785604491823560018060a01b038082169889830361094c5760649384359767ffffffffffffffff94858a11610948573660238b01121561094857898301359586116109485760059136858860051b8d010111610944577f523a704056dcd17bcf83bed8b68c59416dac1119be77755efe3bde0a64e46e0c808a5260ff8d60209b6000805160206117b98339815191528d528181203382528d522054161561092857508c8f528389528b8f205460ff166108f0578d156108bc57861561088b578e91906106a2600282111561136d565b8252600389528b8220549986835416928d516370a0823160e01b815230878201528b818981885afa91821561088057908d9261084f575b501061080f5750600197600154808c02908c8204148c1517156107fb570490818b038b81116107fb57908861071793929e9d9e9a99989a04936116a3565b8d805b8682106107c0579150508b9150528552868b20600160ff198254161790556107448660065461134a565b6006558187519780890190895252606087019701928a905b8282106107955750505050508201527fdc85a8e7c618fd9c6101293c2b9dc02e75755c546fffdbcf7f34980d54a4a8f69181900390a380f35b9091929396978735908282168092036107bc5790815285019796850193929183019061075c565b8c80fd5b97809697989c9b9c5416908581851b8d01013587811681036107f657836107e8918b946116a3565b018e9b9a9b9796959761071a565b508f80fd5b5050634e487b7160e01b8f5260118452848ffd5b847f496e73756666696369656e74205553582062616c616e636500000000000000008a928f898e601892519562461bcd60e51b8752860152840152820152fd5b8092508c8092503d8311610879575b6108688183611301565b810103126107f6578b9051386106d9565b503d61085e565b8f51903d90823e3d90fd5b5050506c4e6f2076616c696461746f727360981b87600d8794898d519562461bcd60e51b8752860152840152820152fd5b5050506f24b73b30b634b2103932b837b93a32b960811b8760108794898d519562461bcd60e51b8752860152840152820152fd5b5050507314995dd85c991cc8185b1c9958591e481c185a5960621b8760148794898d519562461bcd60e51b8752860152840152820152fd5b8c5163e2517d3f60e01b81523381870152808701919091528a90fd5b8880fd5b8780fd5b8480fd5b839150346101765782600319360112610176578035602435916109716113ac565b606461097d848461134a565b03610a0457508360809282849360015581600255825190838252600b848301526a1c995c1bdc9d195c9418dd60aa1b606083015260208201527f12c9dccd129ff783f1c8228eacdfa8e334ddecb7ec5c9a79ec662a4aed3d012a948591a1600c8251928084528301526b1d985b1a59185d1bdc9418dd60a21b60608301526020820152a180f35b606490602086519162461bcd60e51b8352820152600d60248201526c4d7573742073756d203130302560981b6044820152fd5b50503461017657806003193601126101765760807f12c9dccd129ff783f1c8228eacdfa8e334ddecb7ec5c9a79ec662a4aed3d012a91610a75611339565b61ffff60243591610a846113ac565b16610a92600282111561136d565b855260036020528082862055600e8251928084528301526d18d85d1959dbdc9e54995dd85c9960921b60608301526020820152a180f35b828434610b425780600319360112610b4257507f00000000000000000000000000000000000000000000000000000000000000006001600160a01b03163003610b3557602090517f360894a13ba1a3210667c828492db98dca3e2076cc3735a920a3ca505d382bbc8152f35b5163703e46dd60e11b8152fd5b80fd5b9180915060031936011261026e57610b5b6112eb565b90602493843567ffffffffffffffff9384821161026e573660238301121561026e5781860135948511610d6d57602094845192610ba187601f19601f8501160185611301565b8184523689838301011161094c578185928a89930183870137840101526001600160a01b037f00000000000000000000000000000000000000000000000000000000000000008116308114908115610d3f575b50610d2f57610c016113ac565b84516352d1902d60e01b815290821695808289818a5afa9182918693610cff575b5050610c3d57505050505191634c9c8ce360e01b8352820152fd5b9093919492967f360894a13ba1a3210667c828492db98dca3e2076cc3735a920a3ca505d382bbc91828103610cea5750843b15610cd6575080546001600160a01b0319168317905551907fbc7cd75a20ee27fd9adebab32041f755214dbc6bffa90cc0225b39da2e5c2d3b8680a2825115610cbd575061026a9250611724565b91505034610cca57505080f35b63b398979f60e01b8152fd5b8251634c9c8ce360e01b8152808801859052fd5b8351632a87526960e21b815280890191909152fd5b9080929350813d8311610d28575b610d178183611301565b8101031261094c5751903880610c22565b503d610d0d565b845163703e46dd60e11b81528790fd5b9050817f360894a13ba1a3210667c828492db98dca3e2076cc3735a920a3ca505d382bbc5416141538610bf4565b634e487b7160e01b8352604186528683fd5b90503461026e578160031936011261026e57610d996112eb565b90610da26112d0565b907ff0c57e16840df040f15088dc2f81fe391c3923bec73e23a9662efc9c229c6a009283549260ff84871c16159367ffffffffffffffff811680159081610f7c575b6001149081610f72575b159081610f69575b50610f595767ffffffffffffffff198116600117865584610f3a575b5060ff8554871c1615610f2a576001600160a01b0316918215610ee7575080610e3d610e4392611437565b506114d7565b506bffffffffffffffffffffffff60a01b8554161784556046600155601e60025583805260036020526802b5e3af16b1880000838520556001845268056bc75e2d63100000838520556002845268015af1d78b58c4000083852055610ea6578280f35b805468ff00000000000000001916905551600181527fc7f505b2f371ae2175ee4913f4499e1f2633a7b5936321eed1cdaeb6115181d290602090a138808280f35b606490602087519162461bcd60e51b8352820152601960248201527f496e76616c69642055535820746f6b656e2061646472657373000000000000006044820152fd5b8551631afcd79f60e31b81528390fd5b68ffffffffffffffffff19166801000000000000000117855538610e12565b865163f92ee8a960e01b81528490fd5b90501538610df6565b303b159150610dee565b869150610de4565b90503461026e57602036600319011261026e57610f9f6112eb565b90610fa86113ac565b6001600160a01b03918216928315610ff557505082546001600160a01b0319811683178455167fce231193e67c7ddee64f6fb0c93ce9d2b00744ccc640ef9b0f47acce20f6fe298380a380f35b906020606492519162461bcd60e51b8352820152600f60248201526e496e76616c6964206164647265737360881b6044820152fd5b9190503461026e576020806003193601126111a5578235927fc7a6bfa28ee24953425efb0bb89772445020cd5ae1af751673fd61a47416f0178086526000805160206117b98339815191528352838620338752835260ff8487205416156111885750831561115257845483516323b872dd60e01b8752338352306024526044869052916001600160a01b0390911690838760648180865af16001885114811615611133575b838652876060521561112057505050907fbee4fe3675934fca827426c793623996a3079255089bda3a717019ffc5db27659161110d8460055461134a565b600555815193845242908401523392a280f35b635274afe760e01b835282015260249150fd5b600181151661114957823b15153d1516166110cf565b833d89823e3d90fd5b915162461bcd60e51b81529182015260126024820152710416d6f756e74206d757374206265203e20360741b6044820152606490fd5b6044925083519163e2517d3f60e01b835233908301526024820152fd5b8380fd5b8383346101765780600319360112610176576111c36112d0565b90336001600160a01b038316036111e0575061026a919235611620565b5163334bd91960e11b81528390fd5b9190503461026e578060031936011261026e5761026a913561121460016102466112d0565b611599565b90503461026e57602036600319011261026e57816020936001923581526000805160206117b983398151915285522001549051908152f35b90503461026e57602036600319011261026e57816020938260ff93358252855220541690519015158152f35b84913461026e57602036600319011261026e573563ffffffff60e01b811680910361026e5760209250637965db0b60e01b81149081156112bf575b5015158152f35b6301ffc9a760e01b149050836112b8565b602435906001600160a01b03821682036112e657565b600080fd5b600435906001600160a01b03821682036112e657565b90601f8019910116810190811067ffffffffffffffff82111761132357604052565b634e487b7160e01b600052604160045260246000fd5b6004359061ffff821682036112e657565b9190820180921161135757565b634e487b7160e01b600052601160045260246000fd5b1561137457565b60405162461bcd60e51b815260206004820152601060248201526f496e76616c69642063617465676f727960801b6044820152606490fd5b3360009081527fb7db2dd08fcb62d0c9e08c51941cae53c267786a0b75803fb7960902fc8ef97d602052604081205460ff16156113e65750565b6044906040519063e2517d3f60e01b82523360048301526024820152fd5b806000526000805160206117b983398151915260205260406000203360005260205260ff60406000205416156113e65750565b6001600160a01b031660008181527fb7db2dd08fcb62d0c9e08c51941cae53c267786a0b75803fb7960902fc8ef97d60205260408120549091906000805160206117b98339815191529060ff166114d2578280526020526040822081835260205260408220600160ff1982541617905533917f2f8788117e7eff1d82e926ec794901d17c78024a50270940304540a733656f0d8180a4600190565b505090565b6001600160a01b031660008181527f5dfc6369ede8c1331430c00b581919993675ec010140508e8a499d5c8bfbd93760205260408120549091907f523a704056dcd17bcf83bed8b68c59416dac1119be77755efe3bde0a64e46e0c906000805160206117b98339815191529060ff16611593578184526020526040832082845260205260408320600160ff198254161790557f2f8788117e7eff1d82e926ec794901d17c78024a50270940304540a733656f0d339380a4600190565b50505090565b906000918083526000805160206117b983398151915280602052604084209260018060a01b03169283855260205260ff60408520541615600014611593578184526020526040832082845260205260408320600160ff198254161790557f2f8788117e7eff1d82e926ec794901d17c78024a50270940304540a733656f0d339380a4600190565b906000918083526000805160206117b983398151915280602052604084209260018060a01b03169283855260205260ff60408520541660001461159357818452602052604083208284526020526040832060ff1981541690557ff6391f5c32d9c69d2a47ea670b442974b53935d1edc7fd64eb21e047a839171b339380a4600190565b60405163a9059cbb60e01b60009081526001600160a01b039384166004526024949094529260209060448180855af1600160005114811615611704575b83604052156116ee57505050565b635274afe760e01b835216600482015260249150fd5b600181151661171a57813b15153d1516166116e0565b833d6000823e3d90fd5b9060008091602081519101845af480806117a5575b1561175a5750506040513d81523d6000602083013e60203d82010160405290565b1561178157604051639996b31560e01b81526001600160a01b039091166004820152602490fd5b3d15611793576040513d6000823e3d90fd5b60405163d6bda27560e01b8152600490fd5b503d1515806117395750813b151561173956fe02dd7bc7dec4dceedda775e58dd541e08a116c6c53815c0bd028192f7b626800a26469706673582212204724dd774df463683e178470687f89fb24d14b05e3533bd6bbc0c98fe9bead9064736f6c63430008170033","linkReferences":{}},"methodIdentifiers":{"DEFAULT_ADMIN_ROLE()":"a217fddf","GOVERNMENT_ROLE()":"9cbed582","OPERATOR_ROLE()":"f5b541a6","UPGRADE_INTERFACE_VERSION()":"ad3cb1cc","categoryRewards(uint16)":"f0fe70ca","depositFunds(uint256)":"3b76594d","emergencyWithdraw(address,uint256)":"95ccea67","getCategoryReward(uint16)":"9f0fa001","getRoleAdmin(bytes32)":"248a9ca3","getTreasuryBalance()":"9b5655dc","grantRole(bytes32,address)":"2f2ff15d","hasRole(bytes32,address)":"91d14854","initialize(address,address)":"485cc955","proxiableUUID()":"52d1902d","releaseRewards(bytes32,uint16,address,address[])":"87355f71","renounceRole(bytes32,address)":"36568abe","reporterRewardPercentage()":"e240c71c","revokeRole(bytes32,address)":"d547741f","rewardsPaid(bytes32)":"134ec702","setCategoryReward(uint16,uint256)":"5a23a8cf","setRewardPercentages(uint256,uint256)":"6f502056","setUSXToken(address)":"44fd75aa","supportsInterface(bytes4)":"01ffc9a7","totalDeposited()":"ff50abdc","totalPaid()":"e7b0f666","upgradeToAndCall(address,bytes)":"4f1ef286","usxToken()":"baedd77a","validatorRewardPercentage()":"ae5d3232"},"id":57}