{"abi":[{"type":"constructor","inputs":[],"stateMutability":"nonpayable"},{"type":"function","name":"DEFAULT_ADMIN_ROLE","inputs":[],"outputs":[{"name":"","type":"bytes32","internalType":"bytes32"}],"stateMutability":"view"},{"type":"function","name":"GOVERNMENT_ROLE","inputs":[],"outputs":[{"name":"","type":"bytes32","internalType":"bytes32"}],"stateMutability":"view"},{"type":"function","name":"OPERATOR_ROLE","inputs":[],"outputs":[{"name":"","type":"bytes32","internalType":"bytes32"}],"stateMutability":"view"},{"type":"function","name":"UPGRADE_INTERFACE_VERSION","inputs":[],"outputs":[{"name":"","type":"string","internalType":"string"}],"stateMutability":"view"},{"type":"function","name":"VERIFICATION_THRESHOLD","inputs":[],"outputs":[{"name":"","type":"uint8","internalType":"uint8"}],"stateMutability":"view"},{"type":"function","name":"createReport","inputs":[{"name":"_arkivTxId","type":"bytes32","internalType":"bytes32"},{"name":"_categoryId","type":"uint16","internalType":"uint16"},{"name":"_zkProof","type":"uint256[8]","internalType":"uint256[8]"}],"outputs":[{"name":"reportId","type":"bytes32","internalType":"bytes32"}],"stateMutability":"nonpayable"},{"type":"function","name":"getReportStatus","inputs":[{"name":"_reportId","type":"bytes32","internalType":"bytes32"}],"outputs":[{"name":"status","type":"uint8","internalType":"enum RikuyCore.ReportStatus"},{"name":"upvotes","type":"uint256","internalType":"uint256"},{"name":"downvotes","type":"uint256","internalType":"uint256"},{"name":"isVerified","type":"bool","internalType":"bool"},{"name":"isResolved","type":"bool","internalType":"bool"}],"stateMutability":"view"},{"type":"function","name":"getReportValidators","inputs":[{"name":"_reportId","type":"bytes32","internalType":"bytes32"}],"outputs":[{"name":"","type":"address[]","internalType":"address[]"}],"stateMutability":"view"},{"type":"function","name":"getRoleAdmin","inputs":[{"name":"role","type":"bytes32","internalType":"bytes32"}],"outputs":[{"name":"","type":"bytes32","internalType":"bytes32"}],"stateMutability":"view"},{"type":"function","name":"getUserReports","inputs":[{"name":"_user","type":"address","internalType":"address"}],"outputs":[{"name":"","type":"bytes32[]","internalType":"bytes32[]"}],"stateMutability":"view"},{"type":"function","name":"grantRole","inputs":[{"name":"role","type":"bytes32","internalType":"bytes32"},{"name":"account","type":"address","internalType":"address"}],"outputs":[],"stateMutability":"nonpayable"},{"type":"function","name":"hasRole","inputs":[{"name":"role","type":"bytes32","internalType":"bytes32"},{"name":"account","type":"address","internalType":"address"}],"outputs":[{"name":"","type":"bool","internalType":"bool"}],"stateMutability":"view"},{"type":"function","name":"initialize","inputs":[{"name":"_admin","type":"address","internalType":"address"},{"name":"_reportRegistry","type":"address","internalType":"address"},{"name":"_treasury","type":"address","internalType":"address"},{"name":"_zkVerifier","type":"address","internalType":"address"}],"outputs":[],"stateMutability":"nonpayable"},{"type":"function","name":"proxiableUUID","inputs":[],"outputs":[{"name":"","type":"bytes32","internalType":"bytes32"}],"stateMutability":"view"},{"type":"function","name":"renounceRole","inputs":[{"name":"role","type":"bytes32","internalType":"bytes32"},{"name":"callerConfirmation","type":"address","internalType":"address"}],"outputs":[],"stateMutability":"nonpayable"},{"type":"function","name":"reportRegistry","inputs":[],"outputs":[{"name":"","type":"address","internalType":"contract IReportRegistry"}],"stateMutability":"view"},{"type":"function","name":"resolveReport","inputs":[{"name":"_reportId","type":"bytes32","internalType":"bytes32"},{"name":"_approved","type":"bool","internalType":"bool"}],"outputs":[],"stateMutability":"nonpayable"},{"type":"function","name":"revokeRole","inputs":[{"name":"role","type":"bytes32","internalType":"bytes32"},{"name":"account","type":"address","internalType":"address"}],"outputs":[],"stateMutability":"nonpayable"},{"type":"function","name":"setTreasury","inputs":[{"name":"_newTreasury","type":"address","internalType":"address"}],"outputs":[],"stateMutability":"nonpayable"},{"type":"function","name":"setVerificationThreshold","inputs":[{"name":"_newThreshold","type":"uint8","internalType":"uint8"}],"outputs":[],"stateMutability":"nonpayable"},{"type":"function","name":"supportsInterface","inputs":[{"name":"interfaceId","type":"bytes4","internalType":"bytes4"}],"outputs":[{"name":"","type":"bool","internalType":"bool"}],"stateMutability":"view"},{"type":"function","name":"treasury","inputs":[],"outputs":[{"name":"","type":"address","internalType":"contract ITreasury"}],"stateMutability":"view"},{"type":"function","name":"upgradeToAndCall","inputs":[{"name":"newImplementation","type":"address","internalType":"address"},{"name":"data","type":"bytes","internalType":"bytes"}],"outputs":[],"stateMutability":"payable"},{"type":"function","name":"validateReport","inputs":[{"name":"_reportId","type":"bytes32","internalType":"bytes32"},{"name":"_isValid","type":"bool","internalType":"bool"}],"outputs":[],"stateMutability":"nonpayable"},{"type":"function","name":"zkVerifier","inputs":[],"outputs":[{"name":"","type":"address","internalType":"contract IZKVerifier"}],"stateMutability":"view"},{"type":"event","name":"Initialized","inputs":[{"name":"version","type":"uint64","indexed":false,"internalType":"uint64"}],"anonymous":false},{"type":"event","name":"ReportCreated","inputs":[{"name":"reportId","type":"bytes32","indexed":true,"internalType":"bytes32"},{"name":"nullifier","type":"bytes32","indexed":true,"internalType":"bytes32"},{"name":"arkivTxId","type":"bytes32","indexed":false,"internalType":"bytes32"},{"name":"category","type":"uint16","indexed":false,"internalType":"uint16"},{"name":"timestamp","type":"uint256","indexed":false,"internalType":"uint256"}],"anonymous":false},{"type":"event","name":"ReportResolved","inputs":[{"name":"reportId","type":"bytes32","indexed":true,"internalType":"bytes32"},{"name":"finalStatus","type":"uint8","indexed":false,"internalType":"enum RikuyCore.ReportStatus"},{"name":"governmentApprover","type":"address","indexed":true,"internalType":"address"}],"anonymous":false},{"type":"event","name":"ReportValidated","inputs":[{"name":"reportId","type":"bytes32","indexed":true,"internalType":"bytes32"},{"name":"validator","type":"address","indexed":true,"internalType":"address"},{"name":"isValid","type":"bool","indexed":false,"internalType":"bool"}],"anonymous":false},{"type":"event","name":"ReportVerified","inputs":[{"name":"reportId","type":"bytes32","indexed":true,"internalType":"bytes32"},{"name":"totalValidations","type":"uint256","indexed":false,"internalType":"uint256"}],"anonymous":false},{"type":"event","name":"RoleAdminChanged","inputs":[{"name":"role","type":"bytes32","indexed":true,"internalType":"bytes32"},{"name":"previousAdminRole","type":"bytes32","indexed":true,"internalType":"bytes32"},{"name":"newAdminRole","type":"bytes32","indexed":true,"internalType":"bytes32"}],"anonymous":false},{"type":"event","name":"RoleGranted","inputs":[{"name":"role","type":"bytes32","indexed":true,"internalType":"bytes32"},{"name":"account","type":"address","indexed":true,"internalType":"address"},{"name":"sender","type":"address","indexed":true,"internalType":"address"}],"anonymous":false},{"type":"event","name":"RoleRevoked","inputs":[{"name":"role","type":"bytes32","indexed":true,"internalType":"bytes32"},{"name":"account","type":"address","indexed":true,"internalType":"address"},{"name":"sender","type":"address","indexed":true,"internalType":"address"}],"anonymous":false},{"type":"event","name":"Upgraded","inputs":[{"name":"implementation","type":"address","indexed":true,"internalType":"address"}],"anonymous":false},{"type":"error","name":"AccessControlBadConfirmation","inputs":[]},{"type":"error","name":"AccessControlUnauthorizedAccount","inputs":[{"name":"account","type":"address","internalType":"address"},{"name":"neededRole","type":"bytes32","internalType":"bytes32"}]},{"type":"error","name":"AddressEmptyCode","inputs":[{"name":"target","type":"address","internalType":"address"}]},{"type":"error","name":"ERC1967InvalidImplementation","inputs":[{"name":"implementation","type":"address","internalType":"address"}]},{"type":"error","name":"ERC1967NonPayable","inputs":[]},{"type":"error","name":"FailedCall","inputs":[]},{"type":"error","name":"InvalidInitialization","inputs":[]},{"type":"error","name":"NotInitializing","inputs":[]},{"type":"error","name":"UUPSUnauthorizedCallContext","inputs":[]},{"type":"error","name":"UUPSUnsupportedProxiableUUID","inputs":[{"name":"slot","type":"bytes32","internalType":"bytes32"}]}],"bytecode":{"object":"0x60a080604052346100cc57306080527ff0c57e16840df040f15088dc2f81fe391c3923bec73e23a9662efc9c229c6a009081549060ff8260401c166100bd57506001600160401b036002600160401b031982821601610078575b604051611bce90816100d282396080518181816109a70152610b8b0152f35b6001600160401b031990911681179091556040519081527fc7f505b2f371ae2175ee4913f4499e1f2633a7b5936321eed1cdaeb6115181d290602090a1388080610059565b63f92ee8a960e01b8152600490fd5b600080fdfe608080604052600436101561001357600080fd5b600090813560e01c90816301ffc9a71461154c575080631306d128146111a2578063248a9ca3146111685780632f2ff15d1461111d57806331c7335114610df457806336568abe14610dac57806337941dea14610d855780633f53b43f14610d6957806343ae967514610d405780634f1ef28614610b085780634fe4419d14610a1157806352d1902d1461099457806361d027b31461096b57806370a05afc146108bd57806391d14854146108645780639cbed58214610829578063a217fddf1461080d578063a56fe1aa14610787578063a911fea81461045b578063ad3cb1cc146103dc578063d547741f1461038d578063d6df096d14610364578063f0f442601461031f578063f5b541a6146102e45763f8c8765e1461013457600080fd5b346102e15760803660031901126102e15761014d6115b7565b6101556115a1565b6001600160a01b03919060443583811691908290036102dc57606435918483168093036102dc577ff0c57e16840df040f15088dc2f81fe391c3923bec73e23a9662efc9c229c6a009485549460ff8660401c16159567ffffffffffffffff8116801590816102d4575b60011490816102ca575b1590816102c1575b506102af5767ffffffffffffffff198116600117885586610290575b5060ff875460401c161561027e578061020761020d92611878565b50611918565b506bffffffffffffffffffffffff60a01b9216828754161786558160015416176001556002541617600255610240575080f35b68ff00000000000000001981541690557fc7f505b2f371ae2175ee4913f4499e1f2633a7b5936321eed1cdaeb6115181d2602060405160018152a180f35b604051631afcd79f60e31b8152600490fd5b68ffffffffffffffffff191668010000000000000001178755386101ec565b60405163f92ee8a960e01b8152600490fd5b905015386101d0565b303b1591506101c8565b8891506101be565b600080fd5b80fd5b50346102e157806003193601126102e15760206040517f523a704056dcd17bcf83bed8b68c59416dac1119be77755efe3bde0a64e46e0c8152f35b50346102e15760203660031901126102e1576103396115b7565b61034161180b565b60018060a01b03166bffffffffffffffffffffffff60a01b600154161760015580f35b50346102e157806003193601126102e1576002546040516001600160a01b039091168152602090f35b50346102e15760403660031901126102e1576103d86004356103ad6115a1565b90808452600080516020611b798339815191526020526103d36001604086200154611845565b611a61565b5080f35b50346102e157806003193601126102e1576040516103f9816115ec565b60058152602091640352e302e360dc1b602083015260405192839160208352835191826020850152815b83811061044457505060408094508284010152601f80199101168101030190f35b808601820151878201604001528694508101610423565b50346102e15761046a366115cd565b3360009081527f62a96686a713b4e01fcf8d0d26e0c5704c56e3f331cfbdbc05ac17743d40fca060209081526040909120549192917fc7a6bfa28ee24953425efb0bb89772445020cd5ae1af751673fd61a47416f0179060ff16156107695750835460405163171c4f1160e01b8152600481018490526001600160a01b0391821660c082602481845afa91821561075e57879261072d575b5061051863ffffffff60408401511615156117a2565b60a08201516106f5578487526004845260056040882054106106b7578087913b156106b35781809160246040518094819363392f87e360e01b83528b60048401525af1801561066b5761069b575b50508415610693576003945b6105ae575b50507f552806748515a53329fa7b9e97fb03598fe84443a437f73edbef139844d2d393906105a86040518095611654565b3393a380f35b908181848894015116918584526003855260408420906040519182878254918281520191875287872090875b8982821061067a575050505061ffff916105f8846060930385611632565b600154169301511691803b156106765761064493858094604051968795869485936387355f7160e01b85528d600486015260248501526044840152608060648401526084830190611677565b03925af1801561066b57156105775761065c9061161e565b610667578338610577565b8380fd5b6040513d84823e3d90fd5b8480fd5b8354861685528d995090930192600192830192016105da565b600294610572565b6106a49061161e565b6106af578538610566565b8580fd5b5080fd5b60405162461bcd60e51b81526004810185905260166024820152754e6f7420656e6f7567682076616c69646174696f6e7360501b6044820152606490fd5b60405162461bcd60e51b815260048101859052601060248201526f105b1c9958591e481c995cdbdb1d995960821b6044820152606490fd5b61075091925060c03d60c011610757575b6107488183611632565b810190611717565b9038610502565b503d61073e565b6040513d89823e3d90fd5b6044906040519063e2517d3f60e01b82523360048301526024820152fd5b50346102e1576020806003193601126106b3576004358252600381526040822091604051809384918482549182815201918452848420935b858282106107ee575050506107d692500383611632565b6107ea604051928284938452830190611677565b0390f35b85546001600160a01b03168452600195860195889550930192016107bf565b50346102e157806003193601126102e157602090604051908152f35b50346102e157806003193601126102e15760206040517fc7a6bfa28ee24953425efb0bb89772445020cd5ae1af751673fd61a47416f0178152f35b50346102e15760403660031901126102e15760406108806115a1565b916004358152600080516020611b79833981519152602052209060018060a01b0316600052602052602060ff604060002054166040519015158152f35b50346102e1576020806003193601126106b3576001600160a01b036108e06115b7565b168252600681526040822060405192838383549182815201908193835284832090835b8181106109575750505084610919910385611632565b60405193838594850191818652518092526040850193925b82811061094057505050500390f35b835185528695509381019392810192600101610931565b825484529286019260019283019201610903565b50346102e157806003193601126102e1576001546040516001600160a01b039091168152602090f35b50346102e157806003193601126102e1577f00000000000000000000000000000000000000000000000000000000000000006001600160a01b031630036109ff5760206040517f360894a13ba1a3210667c828492db98dca3e2076cc3735a920a3ca505d382bbc8152f35b60405163703e46dd60e11b8152600490fd5b50346102e15760203660031901126102e1576024906004359060c060018060a01b038254166040519485809263171c4f1160e01b82528660048301525afa918215610afb5760a0938293610ada575b50815260046020526040812054916005602052604082205484600585101592015115159283600014610ab457506003935b610a9e6040518096611654565b6020850152604084015260608301526080820152f35b8215610ac35750600193610a91565b84821115610ad45750600293610a91565b93610a91565b610af491935060c03d60c011610757576107488183611632565b9138610a60565b50604051903d90823e3d90fd5b5060403660031901126102e157610b1d6115b7565b602491823567ffffffffffffffff92838211610d3c5736602383011215610d3c578160040135938411610d275760209360405192610b6486601f19601f8501160185611632565b81845236878383010111610676578185928888930183870137840101526001600160a01b037f00000000000000000000000000000000000000000000000000000000000000008116308114908115610cf9575b506109ff57610bc461180b565b6040516352d1902d60e01b8152908216948082600481895afa9182918693610cc9575b5050610c0557604051634c9c8ce360e01b8152600481018690528690fd5b909192947f360894a13ba1a3210667c828492db98dca3e2076cc3735a920a3ca505d382bbc91828103610cb45750823b15610c9e575080546001600160a01b03191684179055604051927fbc7cd75a20ee27fd9adebab32041f755214dbc6bffa90cc0225b39da2e5c2d3b8580a2815115610c84576103d89250611ae4565b505034610c8f575080f35b63b398979f60e01b8152600490fd5b604051634c9c8ce360e01b815260048101869052fd5b60405190632a87526960e21b82526004820152fd5b9080929350813d8311610cf2575b610ce18183611632565b810103126106765751903880610be7565b503d610cd7565b9050817f360894a13ba1a3210667c828492db98dca3e2076cc3735a920a3ca505d382bbc5416141538610bb7565b84634e487b7160e01b60005260416004526000fd5b8280fd5b50346102e15760203660031901126102e15760043560ff8116036102e157610d6661180b565b80f35b50346102e157806003193601126102e157602060405160058152f35b50346102e157806003193601126102e157546040516001600160a01b039091168152602090f35b50346102e15760403660031901126102e157610dc66115a1565b336001600160a01b03821603610de2576103d890600435611a61565b60405163334bd91960e11b8152600490fd5b50346102e157610e03366115cd565b825460405163171c4f1160e01b8152600481018490526001600160a01b03918216929060c081602481875afa80156111125760a09187916110f3575b50610e5563ffffffff60408301511615156117a2565b01516110ae5760405162eb561f60e81b815260048101859052336024820152602093908481604481855afa90811561075e578791611075575b5061103c578086913b156106b3576040516302110d9d60e11b8152600481018790523360248201529082908290604490829084905af1801561066b57611028575b50811561100a578490526004835260408520610eeb81546117e6565b90558385526003835260408520805490600160401b821015610ff65781610f1a916001899695940181556116e9565b81549060031b908433831b921b19161790555b6040519015158152847f774e28a89c30241f90984d3e09179a415971e541e35a63e3e74a8d34818029eb853393a383825260048352600560408320541015610f73575080f35b815416803b156106b35781809160246040518094819363aee4546560e01b83528960048401525af1801561066b57610fe2575b5090827f8acc63596f1bced0d0a1fc6b22887015747c0d9b0e9253588fabb96c60cbe3dd9252600481526040842054604051908152a238808280f35b610feb9061161e565b610d3c578238610fa6565b634e487b7160e01b87526041600452602487fd5b9190848352600584526040832061102181546117e6565b9055610f2d565b6110319061161e565b610676578438610ecf565b60405162461bcd60e51b8152600481018590526011602482015270105b1c9958591e481d985b1a59185d1959607a1b6044820152606490fd5b90508481813d83116110a7575b61108c8183611632565b810103126110a35761109d906116b4565b38610e8e565b8680fd5b503d611082565b60405162461bcd60e51b815260206004820152601760248201527f5265706f727420616c7265616479207265736f6c7665640000000000000000006044820152606490fd5b61110c915060c03d60c011610757576107488183611632565b38610e3f565b6040513d88823e3d90fd5b50346102e15760403660031901126102e1576103d860043561113d6115a1565b90808452600080516020611b798339815191526020526111636001604086200154611845565b6119da565b50346102e15760203660031901126102e157600160406020926004358152600080516020611b798339815191528452200154604051908152f35b50346102e1576101403660031901126102e1576024359061ffff821682036102e15736610144116102e157600261ffff83161161151457604051906111e6826115ec565b604435825260643560208301526040516111ff816115ec565b60405161120b816115ec565b608435815260a43560208201528152604051611226816115ec565b60c435815260e4356020820152602082015260405192611245846115ec565b610104358452610124356020850152604051916080830183811067ffffffffffffffff8211176115005760405233835283602084015261ffff8616604084015283606084015260018060a01b03948560025416916112b460405194635fe8c13b60e01b865260048601906116c1565b85604485015b600282106114e2575050506112d39060c48401906116c1565b81838561010483015b600482106114c857505050610184816020935afa9081156114bd578391611483575b501561144b5751906040516020810190838252426040820152600435606082015260608152608081019181831067ffffffffffffffff8411176114375782604052815190209483541690813b1561066757608483858094829463768f6ceb60e11b84528a8582015260043560a48201528960c482015260e461ffff8d169101525af1801561066b57611428575b50338152600660205260408120805491600160401b831015611414575060606020956113df847f3d922096dfcbd2c6157791a4fcecb46d8e9ab0049acd88b15f6dcc8de969a93d94600189970181556116e9565b81549060031b9086821b91600019901b191617905561ffff6040519160043583521687820152426040820152a3604051908152f35b634e487b7160e01b81526041600452602490fd5b6114319061161e565b3861138b565b634e487b7160e01b84526041600452602484fd5b60405162461bcd60e51b815260206004820152601060248201526f24b73b30b634b2102d2590383937b7b360811b6044820152606490fd5b90506020813d6020116114b5575b8161149e60209383611632565b81010312610d3c576114af906116b4565b386112fe565b3d9150611491565b6040513d85823e3d90fd5b8293506020809160019394518152019301910184926112dc565b60206040826114f460019487516116c1565b019301910190916112ba565b634e487b7160e01b85526041600452602485fd5b60405162461bcd60e51b815260206004820152601060248201526f496e76616c69642063617465676f727960801b6044820152606490fd5b9050346106b35760203660031901126106b35760043563ffffffff60e01b8116809103610d3c5760209250637965db0b60e01b8114908115611590575b5015158152f35b6301ffc9a760e01b14905038611589565b602435906001600160a01b03821682036102dc57565b600435906001600160a01b03821682036102dc57565b60409060031901126102dc576004359060243580151581036102dc5790565b6040810190811067ffffffffffffffff82111761160857604052565b634e487b7160e01b600052604160045260246000fd5b67ffffffffffffffff811161160857604052565b90601f8019910116810190811067ffffffffffffffff82111761160857604052565b9060048210156116615752565b634e487b7160e01b600052602160045260246000fd5b90815180825260208080930193019160005b828110611697575050505090565b83516001600160a01b031685529381019392810192600101611689565b519081151582036102dc57565b6000915b600283106116d257505050565b6001908251815260208091019201920191906116c5565b80548210156117015760005260206000200190600090565b634e487b7160e01b600052603260045260246000fd5b908160c09103126102dc576040519060c0820182811067ffffffffffffffff821117611608576040528051825260208101516020830152604081015163ffffffff811681036102dc576040830152606081015161ffff811681036102dc576060830152608081015160ff811681036102dc57608083015261179a9060a0016116b4565b60a082015290565b156117a957565b60405162461bcd60e51b815260206004820152601560248201527414995c1bdc9d08191bd95cc81b9bdd08195e1a5cdd605a1b6044820152606490fd5b60001981146117f55760010190565b634e487b7160e01b600052601160045260246000fd5b3360009081527fb7db2dd08fcb62d0c9e08c51941cae53c267786a0b75803fb7960902fc8ef97d602052604081205460ff16156107695750565b80600052600080516020611b7983398151915260205260406000203360005260205260ff60406000205416156107695750565b6001600160a01b031660008181527fb7db2dd08fcb62d0c9e08c51941cae53c267786a0b75803fb7960902fc8ef97d6020526040812054909190600080516020611b798339815191529060ff16611913578280526020526040822081835260205260408220600160ff1982541617905533917f2f8788117e7eff1d82e926ec794901d17c78024a50270940304540a733656f0d8180a4600190565b505090565b6001600160a01b031660008181527f5dfc6369ede8c1331430c00b581919993675ec010140508e8a499d5c8bfbd93760205260408120549091907f523a704056dcd17bcf83bed8b68c59416dac1119be77755efe3bde0a64e46e0c90600080516020611b798339815191529060ff166119d4578184526020526040832082845260205260408320600160ff198254161790557f2f8788117e7eff1d82e926ec794901d17c78024a50270940304540a733656f0d339380a4600190565b50505090565b90600091808352600080516020611b7983398151915280602052604084209260018060a01b03169283855260205260ff604085205416156000146119d4578184526020526040832082845260205260408320600160ff198254161790557f2f8788117e7eff1d82e926ec794901d17c78024a50270940304540a733656f0d339380a4600190565b90600091808352600080516020611b7983398151915280602052604084209260018060a01b03169283855260205260ff6040852054166000146119d457818452602052604083208284526020526040832060ff1981541690557ff6391f5c32d9c69d2a47ea670b442974b53935d1edc7fd64eb21e047a839171b339380a4600190565b9060008091602081519101845af48080611b65575b15611b1a5750506040513d81523d6000602083013e60203d82010160405290565b15611b4157604051639996b31560e01b81526001600160a01b039091166004820152602490fd5b3d15611b53576040513d6000823e3d90fd5b60405163d6bda27560e01b8152600490fd5b503d151580611af95750813b1515611af956fe02dd7bc7dec4dceedda775e58dd541e08a116c6c53815c0bd028192f7b626800a264697066735822122024f27ac4dffbbc7b64fee24a181b03a4183b328bf4421daff1a7515b70b28a0464736f6c63430008170033","linkReferences":{}},"methodIdentifiers":{"DEFAULT_ADMIN_ROLE()":"a217fddf","GOVERNMENT_ROLE()":"9cbed582","OPERATOR_ROLE()":"f5b541a6","UPGRADE_INTERFACE_VERSION()":"ad3cb1cc","VERIFICATION_THRESHOLD()":"3f53b43f","createReport(bytes32,uint16,uint256[8])":"1306d128","getReportStatus(bytes32)":"4fe4419d","getReportValidators(bytes32)":"a56fe1aa","getRoleAdmin(bytes32)":"248a9ca3","getUserReports(address)":"70a05afc","grantRole(bytes32,address)":"2f2ff15d","hasRole(bytes32,address)":"91d14854","initialize(address,address,address,address)":"f8c8765e","proxiableUUID()":"52d1902d","renounceRole(bytes32,address)":"36568abe","reportRegistry()":"37941dea","resolveReport(bytes32,bool)":"a911fea8","revokeRole(bytes32,address)":"d547741f","setTreasury(address)":"f0f44260","setVerificationThreshold(uint8)":"43ae9675","supportsInterface(bytes4)":"01ffc9a7","treasury()":"61d027b3","upgradeToAndCall(address,bytes)":"4f1ef286","validateReport(bytes32,bool)":"31c73351","zkVerifier()":"d6df096d"},"id":56}