{"abi":[{"type":"constructor","inputs":[{"name":"_entryPoint","type":"address","internalType":"contract IEntryPoint"}],"stateMutability":"nonpayable"},{"type":"function","name":"MAX_GAS_PER_REPORT","inputs":[],"outputs":[{"name":"","type":"uint256","internalType":"uint256"}],"stateMutability":"view"},{"type":"function","name":"MAX_GAS_PER_VALIDATION","inputs":[],"outputs":[{"name":"","type":"uint256","internalType":"uint256"}],"stateMutability":"view"},{"type":"function","name":"MAX_REPORTS_PER_DAY","inputs":[],"outputs":[{"name":"","type":"uint256","internalType":"uint256"}],"stateMutability":"view"},{"type":"function","name":"MIN_TIME_BETWEEN_REPORTS","inputs":[],"outputs":[{"name":"","type":"uint256","internalType":"uint256"}],"stateMutability":"view"},{"type":"function","name":"addDeposit","inputs":[],"outputs":[],"stateMutability":"payable"},{"type":"function","name":"addStake","inputs":[{"name":"unstakeDelaySec","type":"uint32","internalType":"uint32"}],"outputs":[],"stateMutability":"payable"},{"type":"function","name":"dailyReportCount","inputs":[{"name":"","type":"address","internalType":"address"}],"outputs":[{"name":"","type":"uint256","internalType":"uint256"}],"stateMutability":"view"},{"type":"function","name":"deposit","inputs":[],"outputs":[],"stateMutability":"payable"},{"type":"function","name":"entryPoint","inputs":[],"outputs":[{"name":"","type":"address","internalType":"contract IEntryPoint"}],"stateMutability":"view"},{"type":"function","name":"getDeposit","inputs":[],"outputs":[{"name":"","type":"uint256","internalType":"uint256"}],"stateMutability":"view"},{"type":"function","name":"lastReportTime","inputs":[{"name":"","type":"address","internalType":"address"}],"outputs":[{"name":"","type":"uint256","internalType":"uint256"}],"stateMutability":"view"},{"type":"function","name":"lastResetDay","inputs":[{"name":"","type":"address","internalType":"address"}],"outputs":[{"name":"","type":"uint256","internalType":"uint256"}],"stateMutability":"view"},{"type":"function","name":"owner","inputs":[],"outputs":[{"name":"","type":"address","internalType":"address"}],"stateMutability":"view"},{"type":"function","name":"postOp","inputs":[{"name":"mode","type":"uint8","internalType":"enum IPaymaster.PostOpMode"},{"name":"context","type":"bytes","internalType":"bytes"},{"name":"actualGasCost","type":"uint256","internalType":"uint256"},{"name":"actualUserOpFeePerGas","type":"uint256","internalType":"uint256"}],"outputs":[],"stateMutability":"nonpayable"},{"type":"function","name":"renounceOwnership","inputs":[],"outputs":[],"stateMutability":"nonpayable"},{"type":"function","name":"transferOwnership","inputs":[{"name":"newOwner","type":"address","internalType":"address"}],"outputs":[],"stateMutability":"nonpayable"},{"type":"function","name":"unlockStake","inputs":[],"outputs":[],"stateMutability":"nonpayable"},{"type":"function","name":"validatePaymasterUserOp","inputs":[{"name":"userOp","type":"tuple","internalType":"struct PackedUserOperation","components":[{"name":"sender","type":"address","internalType":"address"},{"name":"nonce","type":"uint256","internalType":"uint256"},{"name":"initCode","type":"bytes","internalType":"bytes"},{"name":"callData","type":"bytes","internalType":"bytes"},{"name":"accountGasLimits","type":"bytes32","internalType":"bytes32"},{"name":"preVerificationGas","type":"uint256","internalType":"uint256"},{"name":"gasFees","type":"bytes32","internalType":"bytes32"},{"name":"paymasterAndData","type":"bytes","internalType":"bytes"},{"name":"signature","type":"bytes","internalType":"bytes"}]},{"name":"userOpHash","type":"bytes32","internalType":"bytes32"},{"name":"maxCost","type":"uint256","internalType":"uint256"}],"outputs":[{"name":"context","type":"bytes","internalType":"bytes"},{"name":"validationData","type":"uint256","internalType":"uint256"}],"stateMutability":"nonpayable"},{"type":"function","name":"withdrawStake","inputs":[{"name":"withdrawAddress","type":"address","internalType":"address payable"}],"outputs":[],"stateMutability":"nonpayable"},{"type":"function","name":"withdrawTo","inputs":[{"name":"withdrawAddress","type":"address","internalType":"address payable"},{"name":"amount","type":"uint256","internalType":"uint256"}],"outputs":[],"stateMutability":"nonpayable"},{"type":"event","name":"GasSponsored","inputs":[{"name":"user","type":"address","indexed":true,"internalType":"address"},{"name":"actualGasCost","type":"uint256","indexed":false,"internalType":"uint256"},{"name":"functionSelector","type":"bytes4","indexed":false,"internalType":"bytes4"}],"anonymous":false},{"type":"event","name":"OwnershipTransferred","inputs":[{"name":"previousOwner","type":"address","indexed":true,"internalType":"address"},{"name":"newOwner","type":"address","indexed":true,"internalType":"address"}],"anonymous":false},{"type":"event","name":"RateLimitHit","inputs":[{"name":"user","type":"address","indexed":true,"internalType":"address"},{"name":"reason","type":"string","indexed":false,"internalType":"string"}],"anonymous":false},{"type":"error","name":"OwnableInvalidOwner","inputs":[{"name":"owner","type":"address","internalType":"address"}]},{"type":"error","name":"OwnableUnauthorizedAccount","inputs":[{"name":"account","type":"address","internalType":"address"}]}],"bytecode":{"object":"0x60a0604090808252346101b35780610f36803803809161001f82856101b8565b83396020928391810103126101b35751906001600160a01b03808316908184036101b357331561019b5760008054336001600160a01b031982168117835587519492938693869360249385939091167f8be0079c531659141344cd1fd0a4f28419497f9722a3daafe3b4186f6b6457e08880a36301ffc9a760e01b825263122a0e9b60e31b60048301525afa91821561018f57819261014e575b50501561010b575060805251610d4490816101f2823960805181818161023f015281816102f1015281816103a00152818161041001528181610a6d01528181610af201528181610bb90152610c5a0152f35b60649083519062461bcd60e51b82526004820152601e60248201527f49456e747279506f696e7420696e74657266616365206d69736d6174636800006044820152fd5b9091508281813d8311610188575b61016681836101b8565b810103126101845751908115158203610181575038806100b9565b80fd5b5080fd5b503d61015c565b508451903d90823e3d90fd5b8451631e4fbdf760e01b815260006004820152602490fd5b600080fd5b601f909101601f19168101906001600160401b038211908210176101db57604052565b634e487b7160e01b600052604160045260246000fdfe60406080815260048036101561001457600080fd5b600091823560e01c80630396cb6014610aca57838163205c287814610a405750806333b9baa514610a065780634a58db19146109ea5780634d814dc2146109cc57806352b7512c146105e5578063715018a61461058b5780637c627b21146104be5780638da5cb5b146104965780639b05030914610479578063a3686c6b1461043f578063b0d691fe146103fb57838163bb9fe6bf1461038357508063bd8dc0691461036757838163c23a5cea146102c357508063c399ec8814610212578063cf48fd06146101f0578063d0e30db0146101d6578063dbf0fc681461019c5763f2fde38b1461010257600080fd5b34610198576020366003190112610198576001600160a01b0382358181169391929084900361019457610133610c2c565b831561017e575050600054826bffffffffffffffffffffffff60a01b821617600055167f8be0079c531659141344cd1fd0a4f28419497f9722a3daafe3b4186f6b6457e0600080a380f35b51631e4fbdf760e01b8152908101849052602490fd5b8480fd5b8280fd5b50903461019857602036600319011261019857356001600160a01b0381169081900361019857828291602094526001845220549051908152f35b83806003193601126101ed576101ea610bb7565b80f35b80fd5b83823461020e578160031936011261020e5760209051620249f08152f35b5080fd5b503461019857826003193601126101985780516370a0823160e01b815230928101929092526020826024817f00000000000000000000000000000000000000000000000000000000000000006001600160a01b03165afa9182156102b9578392610281575b6020838351908152f35b9091506020813d6020116102b1575b8161029d60209383610b95565b810103126101985760209250519038610277565b3d9150610290565b81513d85823e3d90fd5b80848434610363576020366003190112610363576102df610b55565b6102e7610c2c565b6001600160a01b037f00000000000000000000000000000000000000000000000000000000000000008116803b1561035f578592836024928651978895869463611d2e7560e11b865216908401525af190811561035657506103465750f35b61034f90610b6b565b6101ed5780f35b513d84823e3d90fd5b8580fd5b5050fd5b83823461020e578160031936011261020e576020905160058152f35b8084843461036357826003193601126103635761039e610c2c565b7f00000000000000000000000000000000000000000000000000000000000000006001600160a01b031691823b156103f657815163bb9fe6bf60e01b81529284918491829084905af190811561035657506103465750f35b505050fd5b83823461020e578160031936011261020e57517f00000000000000000000000000000000000000000000000000000000000000006001600160a01b03168152602090f35b50903461019857602036600319011261019857356001600160a01b0381169081900361019857828291602094526002845220549051908152f35b83823461020e578160031936011261020e576020905161012c8152f35b83823461020e578160031936011261020e57905490516001600160a01b039091168152602090f35b503461019857608036600319011261019857600382351015610198576024359167ffffffffffffffff908184116101945736602385011215610194578301359081116105825782013660248201116105825782829161051b610c58565b03126101985760248201356001600160a01b038116929083900361058657604401359063ffffffff60e01b8216809203610582577ffe2d630cd49507d86d9f2f8d2db0f9ee0bd95b9bb255865f141d76f1984c43ce9181519060443582526020820152a280f35b8380fd5b600080fd5b83346101ed57806003193601126101ed576105a4610c2c565b600080546001600160a01b0319811682556001600160a01b03167f8be0079c531659141344cd1fd0a4f28419497f9722a3daafe3b4186f6b6457e08280a380f35b503461019857606091600319906060823601126101945780359167ffffffffffffffff831161035f5761012083830191843603011261035f57610626610c58565b606491828401816106378285610cc7565b905010610997576106489083610cc7565b821161099357356001600160e01b03191693608401356fffffffffffffffffffffffffffffffff16630260da2560e31b85036108be57620249f01061087c5761069082610cfa565b9060018060a01b038092169182895260209460018652878a205461012c810180911161086957421061082957620151804204938a526003865283888b20541480610817575b6107e157506106e384610cfa565b16918289526003855280878a2054036107ca575b50600284528588208054909160001982146107b757509261075c9261073092600161076a979601905589526001845242878a2055610cfa565b85516001600160a01b039091169281019283526001600160e01b03199094166020830152839160400190565b03601f198101835282610b95565b925b81519282845284518093850152815b8381106107a257846060818686808483850101526020830152601f80199101168101030190f35b8060208092880101518382880101520161077b565b634e487b7160e01b8a5260119052602489fd5b6002855288878120556003855286892055386106f7565b875162461bcd60e51b8152808401879052601360248201527211185a5b1e481b1a5b5a5d081c995858da1959606a1b6044820152fd5b50600286526005888b205410156106d5565b875162461bcd60e51b8152808401879052601e60248201527f576169742035206d696e75746573206265747765656e207265706f72747300006044820152fd5b634e487b7160e01b8b526011845260248bfd5b9050602084519162461bcd60e51b8352820152601760248201527f47617320746f6f206869676820666f72207265706f72740000000000000000006044820152fd5b9192916331c7335160e01b85036109595762013880106109195750506108e661091391610cfa565b83516001600160a01b0390911660208201526001600160e01b03199092166040830152816060810161075c565b9261076c565b602085519162461bcd60e51b8352820152601b60248201527f47617320746f6f206869676820666f722076616c69646174696f6e00000000006044820152fd5b50602085519162461bcd60e51b83528201526016602482015275119d5b98dd1a5bdb881b9bdd081cdc1bdb9cdbdc995960521b6044820152fd5b8780fd5b855162461bcd60e51b8152602081840152601060248201526f496e76616c69642063616c6c4461746160801b60448201528490fd5b83823461020e578160031936011261020e5760209051620138808152f35b83806003193601126101ed576109fe610c2c565b6101ea610bb7565b50903461019857602036600319011261019857356001600160a01b0381169081900361019857828291602094526003845220549051908152f35b80848434610363578060031936011261036357610a5b610b55565b610a63610c2c565b6001600160a01b037f00000000000000000000000000000000000000000000000000000000000000008116803b1561035f578592836044928651978895869463040b850f60e31b8652169084015260243560248401525af190811561035657506103465750f35b5060203660031901126101985782823563ffffffff811680910361020e57610af0610c2c565b7f00000000000000000000000000000000000000000000000000000000000000006001600160a01b031693843b156101985760249084519586938492621cb65b60e51b845283015234905af19081156103565750610b4c575080f35b6101ea90610b6b565b600435906001600160a01b038216820361058657565b67ffffffffffffffff8111610b7f57604052565b634e487b7160e01b600052604160045260246000fd5b90601f8019910116810190811067ffffffffffffffff821117610b7f57604052565b7f00000000000000000000000000000000000000000000000000000000000000006001600160a01b0316803b156105865760006024916040519283809263b760faf960e01b825230600483015234905af18015610c2057610c155750565b610c1e90610b6b565b565b6040513d6000823e3d90fd5b6000546001600160a01b03163303610c4057565b60405163118cdaa760e01b8152336004820152602490fd5b7f00000000000000000000000000000000000000000000000000000000000000006001600160a01b03163303610c8a57565b60405162461bcd60e51b815260206004820152601560248201527414d95b99195c881b9bdd08115b9d1c9e541bda5b9d605a1b6044820152606490fd5b903590601e1981360301821215610586570180359067ffffffffffffffff82116105865760200191813603831361058657565b356001600160a01b0381168103610586579056fea2646970667358221220c353da11caee31ad8473de237acae1d661b59b286456efac6d37056149ce02ec64736f6c63430008170033","linkReferences":{}},"methodIdentifiers":{"MAX_GAS_PER_REPORT()":"cf48fd06","MAX_GAS_PER_VALIDATION()":"4d814dc2","MAX_REPORTS_PER_DAY()":"bd8dc069","MIN_TIME_BETWEEN_REPORTS()":"9b050309","addDeposit()":"4a58db19","addStake(uint32)":"0396cb60","dailyReportCount(address)":"a3686c6b","deposit()":"d0e30db0","entryPoint()":"b0d691fe","getDeposit()":"c399ec88","lastReportTime(address)":"dbf0fc68","lastResetDay(address)":"33b9baa5","owner()":"8da5cb5b","postOp(uint8,bytes,uint256,uint256)":"7c627b21","renounceOwnership()":"715018a6","transferOwnership(address)":"f2fde38b","unlockStake()":"bb9fe6bf","validatePaymasterUserOp((address,uint256,bytes,bytes,bytes32,uint256,bytes32,bytes,bytes),bytes32,uint256)":"52b7512c","withdrawStake(address)":"c23a5cea","withdrawTo(address,uint256)":"205c2878"},"id":54}