{"abi":[{"type":"constructor","inputs":[{"name":"_entryPoint","type":"address","internalType":"contract IEntryPoint"},{"name":"_owner","type":"address","internalType":"address"}],"stateMutability":"nonpayable"},{"type":"function","name":"MAX_GAS_PER_REPORT","inputs":[],"outputs":[{"name":"","type":"uint256","internalType":"uint256"}],"stateMutability":"view"},{"type":"function","name":"MAX_GAS_PER_VALIDATION","inputs":[],"outputs":[{"name":"","type":"uint256","internalType":"uint256"}],"stateMutability":"view"},{"type":"function","name":"MAX_REPORTS_PER_DAY","inputs":[],"outputs":[{"name":"","type":"uint256","internalType":"uint256"}],"stateMutability":"view"},{"type":"function","name":"MIN_TIME_BETWEEN_REPORTS","inputs":[],"outputs":[{"name":"","type":"uint256","internalType":"uint256"}],"stateMutability":"view"},{"type":"function","name":"acceptOwnership","inputs":[],"outputs":[],"stateMutability":"nonpayable"},{"type":"function","name":"addStake","inputs":[{"name":"unstakeDelaySec","type":"uint32","internalType":"uint32"}],"outputs":[],"stateMutability":"payable"},{"type":"function","name":"dailyReportCount","inputs":[{"name":"","type":"address","internalType":"address"}],"outputs":[{"name":"","type":"uint256","internalType":"uint256"}],"stateMutability":"view"},{"type":"function","name":"deposit","inputs":[],"outputs":[],"stateMutability":"payable"},{"type":"function","name":"entryPoint","inputs":[],"outputs":[{"name":"","type":"address","internalType":"contract IEntryPoint"}],"stateMutability":"view"},{"type":"function","name":"getDeposit","inputs":[],"outputs":[{"name":"","type":"uint256","internalType":"uint256"}],"stateMutability":"view"},{"type":"function","name":"lastReportTime","inputs":[{"name":"","type":"address","internalType":"address"}],"outputs":[{"name":"","type":"uint256","internalType":"uint256"}],"stateMutability":"view"},{"type":"function","name":"lastResetDay","inputs":[{"name":"","type":"address","internalType":"address"}],"outputs":[{"name":"","type":"uint256","internalType":"uint256"}],"stateMutability":"view"},{"type":"function","name":"owner","inputs":[],"outputs":[{"name":"","type":"address","internalType":"address"}],"stateMutability":"view"},{"type":"function","name":"pendingOwner","inputs":[],"outputs":[{"name":"","type":"address","internalType":"address"}],"stateMutability":"view"},{"type":"function","name":"postOp","inputs":[{"name":"mode","type":"uint8","internalType":"enum IPaymaster.PostOpMode"},{"name":"context","type":"bytes","internalType":"bytes"},{"name":"actualGasCost","type":"uint256","internalType":"uint256"},{"name":"actualUserOpFeePerGas","type":"uint256","internalType":"uint256"}],"outputs":[],"stateMutability":"nonpayable"},{"type":"function","name":"renounceOwnership","inputs":[],"outputs":[],"stateMutability":"nonpayable"},{"type":"function","name":"transferOwnership","inputs":[{"name":"newOwner","type":"address","internalType":"address"}],"outputs":[],"stateMutability":"nonpayable"},{"type":"function","name":"unlockStake","inputs":[],"outputs":[],"stateMutability":"nonpayable"},{"type":"function","name":"validatePaymasterUserOp","inputs":[{"name":"userOp","type":"tuple","internalType":"struct PackedUserOperation","components":[{"name":"sender","type":"address","internalType":"address"},{"name":"nonce","type":"uint256","internalType":"uint256"},{"name":"initCode","type":"bytes","internalType":"bytes"},{"name":"callData","type":"bytes","internalType":"bytes"},{"name":"accountGasLimits","type":"bytes32","internalType":"bytes32"},{"name":"preVerificationGas","type":"uint256","internalType":"uint256"},{"name":"gasFees","type":"bytes32","internalType":"bytes32"},{"name":"paymasterAndData","type":"bytes","internalType":"bytes"},{"name":"signature","type":"bytes","internalType":"bytes"}]},{"name":"userOpHash","type":"bytes32","internalType":"bytes32"},{"name":"maxCost","type":"uint256","internalType":"uint256"}],"outputs":[{"name":"context","type":"bytes","internalType":"bytes"},{"name":"validationData","type":"uint256","internalType":"uint256"}],"stateMutability":"nonpayable"},{"type":"function","name":"withdrawStake","inputs":[{"name":"withdrawAddress","type":"address","internalType":"address payable"}],"outputs":[],"stateMutability":"nonpayable"},{"type":"function","name":"withdrawTo","inputs":[{"name":"withdrawAddress","type":"address","internalType":"address payable"},{"name":"amount","type":"uint256","internalType":"uint256"}],"outputs":[],"stateMutability":"nonpayable"},{"type":"event","name":"GasSponsored","inputs":[{"name":"user","type":"address","indexed":true,"internalType":"address"},{"name":"actualGasCost","type":"uint256","indexed":false,"internalType":"uint256"},{"name":"functionSelector","type":"bytes4","indexed":false,"internalType":"bytes4"}],"anonymous":false},{"type":"event","name":"OwnershipTransferStarted","inputs":[{"name":"previousOwner","type":"address","indexed":true,"internalType":"address"},{"name":"newOwner","type":"address","indexed":true,"internalType":"address"}],"anonymous":false},{"type":"event","name":"OwnershipTransferred","inputs":[{"name":"previousOwner","type":"address","indexed":true,"internalType":"address"},{"name":"newOwner","type":"address","indexed":true,"internalType":"address"}],"anonymous":false},{"type":"event","name":"RateLimitHit","inputs":[{"name":"user","type":"address","indexed":true,"internalType":"address"},{"name":"reason","type":"string","indexed":false,"internalType":"string"}],"anonymous":false},{"type":"error","name":"ERC165Error","inputs":[{"name":"entryPoint","type":"address","internalType":"address"},{"name":"interfaceId","type":"bytes4","internalType":"bytes4"}]},{"type":"error","name":"MustOverride","inputs":[]},{"type":"error","name":"NotFromEntryPoint","inputs":[{"name":"msgSender","type":"address","internalType":"address"},{"name":"entity","type":"address","internalType":"address"},{"name":"entryPoint","type":"address","internalType":"address"}]},{"type":"error","name":"OwnableInvalidOwner","inputs":[{"name":"owner","type":"address","internalType":"address"}]},{"type":"error","name":"OwnableUnauthorizedAccount","inputs":[{"name":"account","type":"address","internalType":"address"}]}],"bytecode":{"object":"0x60a080604052346101b057604081610f78803803809161001f82856101b5565b8339810103126101b0578051906001600160a01b038216908183036101b057602001516001600160a01b038116908190036101b057801561019a57600180546001600160a01b0319908116909155600080549182168317815560405192916001600160a01b0316907f8be0079c531659141344cd1fd0a4f28419497f9722a3daafe3b4186f6b6457e09080a36301ffc9a760e01b815263283f548960e01b6004820152602081602481855afa90811561018e5760009161014c575b501561012d5750608052604051610d8990816101ef82396080518181816101f0015281816102b401528181610352015281816103f60152818161046001528181610b3001528181610bc80152610cbd0152f35b6365d25c7160e01b60005260045263283f548960e01b60245260446000fd5b6020813d602011610186575b81610165602093836101b5565b81010312610182575190811515820361017f5750386100da565b80fd5b5080fd5b3d9150610158565b6040513d6000823e3d90fd5b631e4fbdf760e01b600052600060045260246000fd5b600080fd5b601f909101601f19168101906001600160401b038211908210176101d857604052565b634e487b7160e01b600052604160045260246000fdfe6080604052600436101561001257600080fd5b6000803560e01c80630396cb6014610ba0578063205c287814610b0b57806333b9baa514610ace5780634d814dc214610ab057806352b7512c146106cd578063715018a61461066857806379ba5097146105e35780637c627b21146105105780638da5cb5b146104e95780639b050309146104cc578063a3686c6b1461048f578063b0d691fe1461044a578063bb9fe6bf146103da578063bd8dc069146103be578063c23a5cea1461032d578063c399ec8814610288578063cf48fd061461026a578063d0e30db0146101e1578063dbf0fc68146101a4578063e30c39781461017b5763f2fde38b1461010457600080fd5b34610178576020366003190112610178576004356001600160a01b0381169081900361017657610132610c92565b600180546001600160a01b0319168217905581546001600160a01b03167f38d16b8cac22d99fc7c124b9cd0de2d3fa1faef420bfe791d8c362d765e227008380a380f35b505b80fd5b50346101785780600319360112610178576001546040516001600160a01b039091168152602090f35b5034610178576020366003190112610178576004356001600160a01b03811690819003610176578160409160209352600283522054604051908152f35b508060031936011261017857807f00000000000000000000000000000000000000000000000000000000000000006001600160a01b0316803b1561026757816024916040519283809263b760faf960e01b825230600483015234905af1801561025c5761024b5750f35b8161025591610c5a565b6101785780f35b6040513d84823e3d90fd5b50fd5b50346101785780600319360112610178576020604051620249f08152f35b50346101785780600319360112610178576040516370a0823160e01b81523060048201526020816024817f00000000000000000000000000000000000000000000000000000000000000006001600160a01b03165afa90811561025c5782916102f7575b602082604051908152f35b90506020813d602011610325575b8161031260209383610c5a565b81010312610176576020915051386102ec565b3d9150610305565b50346101785760203660031901126101785780610348610c3f565b610350610c92565b7f00000000000000000000000000000000000000000000000000000000000000006001600160a01b031690813b156103ba5760405163611d2e7560e11b81526001600160a01b0390911660048201529082908290602490829084905af1801561025c5761024b5750f35b5050fd5b5034610178578060031936011261017857602060405160058152f35b50346101785780600319360112610178576103f3610c92565b807f00000000000000000000000000000000000000000000000000000000000000006001600160a01b0316803b156102675781809160046040518094819363bb9fe6bf60e01b83525af1801561025c5761024b5750f35b50346101785780600319360112610178576040517f00000000000000000000000000000000000000000000000000000000000000006001600160a01b03168152602090f35b5034610178576020366003190112610178576004356001600160a01b03811690819003610176578160409160209352600383522054604051908152f35b5034610178578060031936011261017857602060405161012c8152f35b5034610178578060031936011261017857546040516001600160a01b039091168152602090f35b503461017857608036600319011261017857600360043510156101785760243567ffffffffffffffff8111610176573660238201121561017657806004013567ffffffffffffffff81116105df5781013660248201116105df57604090610575610cbb565b829003126101765760248101356001600160a01b03811691908290036105df576044013563ffffffff60e01b81168091036105df5760407ffe2d630cd49507d86d9f2f8d2db0f9ee0bd95b9bb255865f141d76f1984c43ce9181519060443582526020820152a280f35b8280fd5b5034610178578060031936011261017857600154336001600160a01b039091160361065557600180546001600160a01b0319908116909155815433918116821783556001600160a01b03167f8be0079c531659141344cd1fd0a4f28419497f9722a3daafe3b4186f6b6457e08380a380f35b63118cdaa760e01b815233600452602490fd5b5034610178578060031936011261017857610681610c92565b600180546001600160a01b03199081169091558154908116825581906001600160a01b03167f8be0079c531659141344cd1fd0a4f28419497f9722a3daafe3b4186f6b6457e08280a380f35b50346101785760603660031901126101785760043567ffffffffffffffff8111610176578060040161012060031983360301126105df5761070c610cbb565b60648201600461071c8284610d0c565b905010610a785761072d9082610d0c565b600411610a7457356001600160e01b03191691608401356fffffffffffffffffffffffffffffffff1663856116f160e01b83036109c957620249f010610984576001600160a01b0361077e82610d3f565b168084526002602052604084205461012c810180911161097057421061092b57620151804204908085526004602052816040862054149081610913575b506108d8576001600160a01b036107d183610d3f565b16908185526004602052806040862054036108b7575b50808452600360205260408420805460001981146108a357600101905583526002602052604083204290556108509061081f90610d3f565b604080516001600160a01b039290921660208301526001600160e01b03199390931681840152918252606082610c5a565b604051809260408252825192836040840152815b84811061088b57505091826060938483850101526020830152601f80199101168101030190f35b60208282018101516060888401015286945001610864565b634e487b7160e01b86526011600452602486fd5b818552600360205284604081205581855260046020526040852055386107e7565b60405162461bcd60e51b815260206004820152601360248201527211185a5b1e481b1a5b5a5d081c995858da1959606a1b6044820152606490fd5b905084526003602052600560408520541015386107bb565b60405162461bcd60e51b815260206004820152601e60248201527f576169742035206d696e75746573206265747765656e207265706f72747300006044820152606490fd5b634e487b7160e01b85526011600452602485fd5b60405162461bcd60e51b815260206004820152601760248201527f47617320746f6f206869676820666f72207265706f72740000000000000000006044820152606490fd5b6331c7335160e01b8303610a365762013880106109f15761081f6109ec91610d3f565b610850565b60405162461bcd60e51b815260206004820152601b60248201527f47617320746f6f206869676820666f722076616c69646174696f6e00000000006044820152606490fd5b60405162461bcd60e51b8152602060048201526016602482015275119d5b98dd1a5bdb881b9bdd081cdc1bdb9cdbdc995960521b6044820152606490fd5b8380fd5b60405162461bcd60e51b815260206004820152601060248201526f496e76616c69642063616c6c4461746160801b6044820152606490fd5b50346101785780600319360112610178576020604051620138808152f35b5034610178576020366003190112610178576004356001600160a01b03811690819003610176578160409160209352600483522054604051908152f35b50346101785760403660031901126101785780610b26610c3f565b610b2e610c92565b7f00000000000000000000000000000000000000000000000000000000000000006001600160a01b031690813b156103ba5760405163040b850f60e31b81526001600160a01b03909116600482015260248035908201529082908290604490829084905af1801561025c5761024b5750f35b5060203660031901126101785760043563ffffffff811680910361017657610bc6610c92565b7f00000000000000000000000000000000000000000000000000000000000000006001600160a01b0316908290823b15610176578190602460405180958193621cb65b60e51b8352600483015234905af18015610c3257610c245780f35b610c2d91610c5a565b388180f35b50604051903d90823e3d90fd5b600435906001600160a01b0382168203610c5557565b600080fd5b90601f8019910116810190811067ffffffffffffffff821117610c7c57604052565b634e487b7160e01b600052604160045260246000fd5b6000546001600160a01b03163303610ca657565b63118cdaa760e01b6000523360045260246000fd5b7f00000000000000000000000000000000000000000000000000000000000000006001600160a01b031633819003610cf05750565b63fe34a6d360e01b600052336004523060245260445260646000fd5b903590601e1981360301821215610c55570180359067ffffffffffffffff8211610c5557602001918136038313610c5557565b356001600160a01b0381168103610c55579056fea26469706673582212208d3b0e047818558d190e76b1796d97930440c7fa5c77a108cafdfe5dcda7e8e864736f6c634300081c0033","linkReferences":{}},"methodIdentifiers":{"MAX_GAS_PER_REPORT()":"cf48fd06","MAX_GAS_PER_VALIDATION()":"4d814dc2","MAX_REPORTS_PER_DAY()":"bd8dc069","MIN_TIME_BETWEEN_REPORTS()":"9b050309","acceptOwnership()":"79ba5097","addStake(uint32)":"0396cb60","dailyReportCount(address)":"a3686c6b","deposit()":"d0e30db0","entryPoint()":"b0d691fe","getDeposit()":"c399ec88","lastReportTime(address)":"dbf0fc68","lastResetDay(address)":"33b9baa5","owner()":"8da5cb5b","pendingOwner()":"e30c3978","postOp(uint8,bytes,uint256,uint256)":"7c627b21","renounceOwnership()":"715018a6","transferOwnership(address)":"f2fde38b","unlockStake()":"bb9fe6bf","validatePaymasterUserOp((address,uint256,bytes,bytes,bytes32,uint256,bytes32,bytes,bytes),bytes32,uint256)":"52b7512c","withdrawStake(address)":"c23a5cea","withdrawTo(address,uint256)":"205c2878"},"id":58}