{"abi":[{"type":"constructor","inputs":[],"stateMutability":"nonpayable"},{"type":"function","name":"CATEGORY_BASURA","inputs":[],"outputs":[{"name":"","type":"uint16","internalType":"uint16"}],"stateMutability":"view"},{"type":"function","name":"CATEGORY_INFRAESTRUCTURA","inputs":[],"outputs":[{"name":"","type":"uint16","internalType":"uint16"}],"stateMutability":"view"},{"type":"function","name":"CATEGORY_INSEGURIDAD","inputs":[],"outputs":[{"name":"","type":"uint16","internalType":"uint16"}],"stateMutability":"view"},{"type":"function","name":"CORE_ROLE","inputs":[],"outputs":[{"name":"","type":"bytes32","internalType":"bytes32"}],"stateMutability":"view"},{"type":"function","name":"DEFAULT_ADMIN_ROLE","inputs":[],"outputs":[{"name":"","type":"bytes32","internalType":"bytes32"}],"stateMutability":"view"},{"type":"function","name":"getReport","inputs":[{"name":"_reportId","type":"bytes32","internalType":"bytes32"}],"outputs":[{"name":"","type":"tuple","internalType":"struct IReportRegistry.Report","components":[{"name":"arkivTxId","type":"bytes32","internalType":"bytes32"},{"name":"nullifierHash","type":"bytes32","internalType":"bytes32"},{"name":"timestamp","type":"uint32","internalType":"uint32"},{"name":"categoryId","type":"uint16","internalType":"uint16"},{"name":"validationScore","type":"uint8","internalType":"uint8"},{"name":"isResolved","type":"bool","internalType":"bool"}]}],"stateMutability":"view"},{"type":"function","name":"getReportIdByIndex","inputs":[{"name":"_index","type":"uint256","internalType":"uint256"}],"outputs":[{"name":"","type":"bytes32","internalType":"bytes32"}],"stateMutability":"view"},{"type":"function","name":"getRoleAdmin","inputs":[{"name":"role","type":"bytes32","internalType":"bytes32"}],"outputs":[{"name":"","type":"bytes32","internalType":"bytes32"}],"stateMutability":"view"},{"type":"function","name":"getTotalReports","inputs":[],"outputs":[{"name":"","type":"uint256","internalType":"uint256"}],"stateMutability":"view"},{"type":"function","name":"grantRole","inputs":[{"name":"role","type":"bytes32","internalType":"bytes32"},{"name":"account","type":"address","internalType":"address"}],"outputs":[],"stateMutability":"nonpayable"},{"type":"function","name":"hasRole","inputs":[{"name":"role","type":"bytes32","internalType":"bytes32"},{"name":"account","type":"address","internalType":"address"}],"outputs":[{"name":"","type":"bool","internalType":"bool"}],"stateMutability":"view"},{"type":"function","name":"hasUserValidated","inputs":[{"name":"_reportId","type":"bytes32","internalType":"bytes32"},{"name":"_validator","type":"address","internalType":"address"}],"outputs":[{"name":"","type":"bool","internalType":"bool"}],"stateMutability":"view"},{"type":"function","name":"incrementValidationScore","inputs":[{"name":"_reportId","type":"bytes32","internalType":"bytes32"}],"outputs":[],"stateMutability":"nonpayable"},{"type":"function","name":"initialize","inputs":[{"name":"_admin","type":"address","internalType":"address"}],"outputs":[],"stateMutability":"nonpayable"},{"type":"function","name":"isNullifierUsed","inputs":[{"name":"_nullifier","type":"bytes32","internalType":"bytes32"}],"outputs":[{"name":"","type":"bool","internalType":"bool"}],"stateMutability":"view"},{"type":"function","name":"markAsResolved","inputs":[{"name":"_reportId","type":"bytes32","internalType":"bytes32"}],"outputs":[],"stateMutability":"nonpayable"},{"type":"function","name":"recordValidation","inputs":[{"name":"_reportId","type":"bytes32","internalType":"bytes32"},{"name":"_validator","type":"address","internalType":"address"}],"outputs":[],"stateMutability":"nonpayable"},{"type":"function","name":"renounceRole","inputs":[{"name":"role","type":"bytes32","internalType":"bytes32"},{"name":"callerConfirmation","type":"address","internalType":"address"}],"outputs":[],"stateMutability":"nonpayable"},{"type":"function","name":"reportIds","inputs":[{"name":"","type":"uint256","internalType":"uint256"}],"outputs":[{"name":"","type":"bytes32","internalType":"bytes32"}],"stateMutability":"view"},{"type":"function","name":"revokeRole","inputs":[{"name":"role","type":"bytes32","internalType":"bytes32"},{"name":"account","type":"address","internalType":"address"}],"outputs":[],"stateMutability":"nonpayable"},{"type":"function","name":"storeReport","inputs":[{"name":"_reportId","type":"bytes32","internalType":"bytes32"},{"name":"_arkivTxId","type":"bytes32","internalType":"bytes32"},{"name":"_nullifierHash","type":"bytes32","internalType":"bytes32"},{"name":"_categoryId","type":"uint16","internalType":"uint16"}],"outputs":[],"stateMutability":"nonpayable"},{"type":"function","name":"supportsInterface","inputs":[{"name":"interfaceId","type":"bytes4","internalType":"bytes4"}],"outputs":[{"name":"","type":"bool","internalType":"bool"}],"stateMutability":"view"},{"type":"event","name":"Initialized","inputs":[{"name":"version","type":"uint64","indexed":false,"internalType":"uint64"}],"anonymous":false},{"type":"event","name":"ReportResolved","inputs":[{"name":"reportId","type":"bytes32","indexed":true,"internalType":"bytes32"}],"anonymous":false},{"type":"event","name":"ReportStored","inputs":[{"name":"reportId","type":"bytes32","indexed":true,"internalType":"bytes32"},{"name":"arkivTxId","type":"bytes32","indexed":false,"internalType":"bytes32"},{"name":"category","type":"uint16","indexed":false,"internalType":"uint16"}],"anonymous":false},{"type":"event","name":"RoleAdminChanged","inputs":[{"name":"role","type":"bytes32","indexed":true,"internalType":"bytes32"},{"name":"previousAdminRole","type":"bytes32","indexed":true,"internalType":"bytes32"},{"name":"newAdminRole","type":"bytes32","indexed":true,"internalType":"bytes32"}],"anonymous":false},{"type":"event","name":"RoleGranted","inputs":[{"name":"role","type":"bytes32","indexed":true,"internalType":"bytes32"},{"name":"account","type":"address","indexed":true,"internalType":"address"},{"name":"sender","type":"address","indexed":true,"internalType":"address"}],"anonymous":false},{"type":"event","name":"RoleRevoked","inputs":[{"name":"role","type":"bytes32","indexed":true,"internalType":"bytes32"},{"name":"account","type":"address","indexed":true,"internalType":"address"},{"name":"sender","type":"address","indexed":true,"internalType":"address"}],"anonymous":false},{"type":"event","name":"ValidationRecorded","inputs":[{"name":"reportId","type":"bytes32","indexed":true,"internalType":"bytes32"},{"name":"validator","type":"address","indexed":true,"internalType":"address"}],"anonymous":false},{"type":"error","name":"AccessControlBadConfirmation","inputs":[]},{"type":"error","name":"AccessControlUnauthorizedAccount","inputs":[{"name":"account","type":"address","internalType":"address"},{"name":"neededRole","type":"bytes32","internalType":"bytes32"}]},{"type":"error","name":"InvalidInitialization","inputs":[]},{"type":"error","name":"NotInitializing","inputs":[]}],"bytecode":{"object":"0x608080604052346100b8577ff0c57e16840df040f15088dc2f81fe391c3923bec73e23a9662efc9c229c6a009081549060ff8260401c166100a957506001600160401b036002600160401b031982821601610064575b604051610efc90816100be8239f35b6001600160401b031990911681179091556040519081527fc7f505b2f371ae2175ee4913f4499e1f2633a7b5936321eed1cdaeb6115181d290602090a1388080610055565b63f92ee8a960e01b8152600490fd5b600080fdfe608060408181526004918236101561001657600080fd5b600092833560e01c91826301ffc9a714610a9c5750816304221b3a146109d0578163171c4f111461090657816322dc7b4c146108d9578163248a9ca3146108a15781632f2ff15d1461087757816336568abe14610831578163392f87e31461077b57816347be6eb7146107145781635f939b4f146106f85781637320755a146106dc57816387cc66de146106a057816391d148541461064c578163a217fddf1461056c578163aee4546514610587578163b9e8676b1461056c578163c4d66de814610411578163d4e99500146103f2578163d547741f146103a5578163eb561f001461035a578163ed1ed9d614610154575063f36246d11461011757600080fd5b34610150578160031936011261015057602090517f502d3d275257923b2bea6ea25d9631f12369fb532871f13eb85eb09dc0fb48428152f35b5080fd5b838334610150576080366003190112610150578235906024356044356064359061ffff821680920361035657610188610b8d565b8086526020906001825260ff858820541661031a57600283116102e457818761023560ff898763ffffffff60026101bd610b57565b8c81528d898201908b825289808285019c8d8842169052606086019889526080860199828b5260a087019d8e5282525220915182555160018201550196511665ffff00000000875492518a1b169165ffffffffffff1916171785555116839060ff60301b82549160301b169060ff60301b1916179055565b51815460ff60381b191690151560381b67ff000000000000001617905586526001808252848720805460ff19169091179055600354680100000000000000008110156102d1577f978104012414e1423fa28f080858e1d5b1967e63be281e9f3daaa7a1bcd702d5959697508060016102b09201600355610b0a565b81549060031b9088821b91600019901b19161790558351928352820152a280f35b634e487b7160e01b875260418852602487fd5b845162461bcd60e51b8152808901839052601060248201526f496e76616c69642063617465676f727960801b6044820152606490fd5b845162461bcd60e51b81528089018390526016602482015275139d5b1b1a599a595c88185b1c9958591e481d5cd95960521b6044820152606490fd5b8580fd5b9050346103a157816003193601126103a1578160209360ff9261037b610aef565b90358252600286528282206001600160a01b039091168252855220549151911615158152f35b8280fd5b919050346103a157806003193601126103a1576103ee91356103e960016103ca610aef565b93838752600080516020610ea783398151915260205286200154610c07565b610e23565b5080f35b5050346101505781600319360112610150576020906003549051908152f35b9050346103a15760203660031901126103a1578035906001600160a01b0382168203610568577ff0c57e16840df040f15088dc2f81fe391c3923bec73e23a9662efc9c229c6a009182549160ff83861c16159267ffffffffffffffff811680159081610560575b6001149081610556575b15908161054d575b5061053e5767ffffffffffffffff19811660011785558361051f575b5060ff8454861c16156105115750806104c16104c792610c3a565b50610cda565b506104d0578280f35b805468ff00000000000000001916905551600181527fc7f505b2f371ae2175ee4913f4499e1f2633a7b5936321eed1cdaeb6115181d290602090a138808280f35b8451631afcd79f60e31b8152fd5b68ffffffffffffffffff191668010000000000000001178455386104a6565b50845163f92ee8a960e01b8152fd5b9050153861048a565b303b159150610482565b859150610478565b8380fd5b50503461015057816003193601126101505751908152602090f35b8383346101505760203660031901126101505782356105a4610b8d565b8083528260205260ff806002848620015460301c161015610615579060029183528260205282200160ff815460301c169260ff8414610602575060016105ff92930160ff60301b82549160301b169060ff60301b1916179055565b80f35b634e487b7160e01b835260119052602482fd5b815162461bcd60e51b8152602081860152601160248201527013585e081cd8dbdc99481c995858da1959607a1b6044820152606490fd5b9050346103a157816003193601126103a1578160209360ff9261066d610aef565b90358252600080516020610ea783398151915286528282206001600160a01b039091168252855220549151911615158152f35b9050346103a15760203660031901126103a15735916003548310156106d957506106cb602092610b0a565b90549060031b1c9051908152f35b80fd5b5050346101505781600319360112610150576020905160028152f35b5050346101505781600319360112610150576020905160018152f35b905082346106d95760203660031901126106d95750803590600354821015610742576020836106cb84610b0a565b606490602084519162461bcd60e51b83528201526013602482015272496e646578206f7574206f6620626f756e647360681b6044820152fd5b919050346103a15760203660031901126103a15781359161079a610b8d565b8284528360205260ff6002838620015460381c166107fc575081835260208390528220600201805460ff60381b19166701000000000000001790557feca1280dae1601588a7cfde5a75f92ac078a466ffd73a959636dc2bea61b0a428280a280f35b6020606492519162461bcd60e51b8352820152601060248201526f105b1c9958591e481c995cdbdb1d995960821b6044820152fd5b83833461015057806003193601126101505761084b610aef565b90336001600160a01b0383160361086857506103ee919235610e23565b5163334bd91960e11b81528390fd5b919050346103a157806003193601126103a1576103ee913561089c60016103ca610aef565b610d9c565b9050346103a15760203660031901126103a15781602093600192358152600080516020610ea783398151915285522001549051908152f35b9050346103a15760203660031901126103a1578160209360ff923581526001855220541690519015158152f35b919050346103a1576020918260031936011261056857818460ff9260c09660a061092e610b57565b8281528289820152828682015282606082015282608082015201523581528085522092610959610b57565b90845494858352600260018201549183850192835201549463ffffffff818501818816815261ffff946060870194868a831c1686528860a060808a0199828d60301c168b52019a60381c1615158a5284519a8b5251908a0152511690870152511660608501525116608083015251151560a0820152f35b919050346103a157806003193601126103a1578135906109ee610aef565b926109f7610b8d565b828552600260209081528286206001600160a01b039095168087529490528185205460ff16610a66575081845260026020528084208385526020528320600160ff198254161790557fcb4c9903a1465363a251169dc4cf279a174202904db9f7a2c089afebad3ff5ac8380a380f35b6020606492519162461bcd60e51b83528201526011602482015270105b1c9958591e481d985b1a59185d1959607a1b6044820152fd5b8491346103a15760203660031901126103a1573563ffffffff60e01b81168091036103a15760209250637965db0b60e01b8114908115610ade575b5015158152f35b6301ffc9a760e01b14905083610ad7565b602435906001600160a01b0382168203610b0557565b600080fd5b600354811015610b415760036000527fc2575a0e9e593c00f959f8c92f12db2869c3395a3b0502d05e2516446f71f85b0190600090565b634e487b7160e01b600052603260045260246000fd5b6040519060c0820182811067ffffffffffffffff821117610b7757604052565b634e487b7160e01b600052604160045260246000fd5b3360009081527f61abc42d658996d1f7884c576104ada96917fbc464f645f43cc2ca998de0e70960205260409020547f502d3d275257923b2bea6ea25d9631f12369fb532871f13eb85eb09dc0fb48429060ff1615610be95750565b6044906040519063e2517d3f60e01b82523360048301526024820152fd5b80600052600080516020610ea783398151915260205260406000203360005260205260ff6040600020541615610be95750565b6001600160a01b031660008181527fb7db2dd08fcb62d0c9e08c51941cae53c267786a0b75803fb7960902fc8ef97d6020526040812054909190600080516020610ea78339815191529060ff16610cd5578280526020526040822081835260205260408220600160ff1982541617905533917f2f8788117e7eff1d82e926ec794901d17c78024a50270940304540a733656f0d8180a4600190565b505090565b6001600160a01b031660008181527f61abc42d658996d1f7884c576104ada96917fbc464f645f43cc2ca998de0e70960205260408120549091907f502d3d275257923b2bea6ea25d9631f12369fb532871f13eb85eb09dc0fb484290600080516020610ea78339815191529060ff16610d96578184526020526040832082845260205260408320600160ff198254161790557f2f8788117e7eff1d82e926ec794901d17c78024a50270940304540a733656f0d339380a4600190565b50505090565b90600091808352600080516020610ea783398151915280602052604084209260018060a01b03169283855260205260ff60408520541615600014610d96578184526020526040832082845260205260408320600160ff198254161790557f2f8788117e7eff1d82e926ec794901d17c78024a50270940304540a733656f0d339380a4600190565b90600091808352600080516020610ea783398151915280602052604084209260018060a01b03169283855260205260ff604085205416600014610d9657818452602052604083208284526020526040832060ff1981541690557ff6391f5c32d9c69d2a47ea670b442974b53935d1edc7fd64eb21e047a839171b339380a460019056fe02dd7bc7dec4dceedda775e58dd541e08a116c6c53815c0bd028192f7b626800a2646970667358221220adbeb938f034c1e37efa6d32f614e2d48f349bb22accb870833470f8ebe6ee4964736f6c63430008170033","linkReferences":{}},"methodIdentifiers":{"CATEGORY_BASURA()":"7320755a","CATEGORY_INFRAESTRUCTURA()":"b9e8676b","CATEGORY_INSEGURIDAD()":"5f939b4f","CORE_ROLE()":"f36246d1","DEFAULT_ADMIN_ROLE()":"a217fddf","getReport(bytes32)":"171c4f11","getReportIdByIndex(uint256)":"47be6eb7","getRoleAdmin(bytes32)":"248a9ca3","getTotalReports()":"d4e99500","grantRole(bytes32,address)":"2f2ff15d","hasRole(bytes32,address)":"91d14854","hasUserValidated(bytes32,address)":"eb561f00","incrementValidationScore(bytes32)":"aee45465","initialize(address)":"c4d66de8","isNullifierUsed(bytes32)":"22dc7b4c","markAsResolved(bytes32)":"392f87e3","recordValidation(bytes32,address)":"04221b3a","renounceRole(bytes32,address)":"36568abe","reportIds(uint256)":"87cc66de","revokeRole(bytes32,address)":"d547741f","storeReport(bytes32,bytes32,bytes32,uint16)":"ed1ed9d6","supportsInterface(bytes4)":"01ffc9a7"},"id":55}