{"abi":[{"type":"constructor","inputs":[],"stateMutability":"nonpayable"},{"type":"function","name":"CATEGORY_BASURA","inputs":[],"outputs":[{"name":"","type":"uint16","internalType":"uint16"}],"stateMutability":"view"},{"type":"function","name":"CATEGORY_INFRAESTRUCTURA","inputs":[],"outputs":[{"name":"","type":"uint16","internalType":"uint16"}],"stateMutability":"view"},{"type":"function","name":"CATEGORY_INSEGURIDAD","inputs":[],"outputs":[{"name":"","type":"uint16","internalType":"uint16"}],"stateMutability":"view"},{"type":"function","name":"CORE_ROLE","inputs":[],"outputs":[{"name":"","type":"bytes32","internalType":"bytes32"}],"stateMutability":"view"},{"type":"function","name":"DEFAULT_ADMIN_ROLE","inputs":[],"outputs":[{"name":"","type":"bytes32","internalType":"bytes32"}],"stateMutability":"view"},{"type":"function","name":"getReport","inputs":[{"name":"_reportId","type":"bytes32","internalType":"bytes32"}],"outputs":[{"name":"","type":"tuple","internalType":"struct IReportRegistry.Report","components":[{"name":"arkivTxId","type":"bytes32","internalType":"bytes32"},{"name":"nullifierHash","type":"bytes32","internalType":"bytes32"},{"name":"timestamp","type":"uint32","internalType":"uint32"},{"name":"categoryId","type":"uint16","internalType":"uint16"},{"name":"validationScore","type":"uint8","internalType":"uint8"},{"name":"isResolved","type":"bool","internalType":"bool"}]}],"stateMutability":"view"},{"type":"function","name":"getReportIdByIndex","inputs":[{"name":"_index","type":"uint256","internalType":"uint256"}],"outputs":[{"name":"","type":"bytes32","internalType":"bytes32"}],"stateMutability":"view"},{"type":"function","name":"getRoleAdmin","inputs":[{"name":"role","type":"bytes32","internalType":"bytes32"}],"outputs":[{"name":"","type":"bytes32","internalType":"bytes32"}],"stateMutability":"view"},{"type":"function","name":"getTotalReports","inputs":[],"outputs":[{"name":"","type":"uint256","internalType":"uint256"}],"stateMutability":"view"},{"type":"function","name":"grantRole","inputs":[{"name":"role","type":"bytes32","internalType":"bytes32"},{"name":"account","type":"address","internalType":"address"}],"outputs":[],"stateMutability":"nonpayable"},{"type":"function","name":"hasRole","inputs":[{"name":"role","type":"bytes32","internalType":"bytes32"},{"name":"account","type":"address","internalType":"address"}],"outputs":[{"name":"","type":"bool","internalType":"bool"}],"stateMutability":"view"},{"type":"function","name":"hasUserValidated","inputs":[{"name":"_reportId","type":"bytes32","internalType":"bytes32"},{"name":"_validator","type":"address","internalType":"address"}],"outputs":[{"name":"","type":"bool","internalType":"bool"}],"stateMutability":"view"},{"type":"function","name":"incrementValidationScore","inputs":[{"name":"_reportId","type":"bytes32","internalType":"bytes32"}],"outputs":[],"stateMutability":"nonpayable"},{"type":"function","name":"initialize","inputs":[{"name":"_admin","type":"address","internalType":"address"}],"outputs":[],"stateMutability":"nonpayable"},{"type":"function","name":"isNullifierUsed","inputs":[{"name":"_nullifier","type":"bytes32","internalType":"bytes32"}],"outputs":[{"name":"","type":"bool","internalType":"bool"}],"stateMutability":"view"},{"type":"function","name":"markAsResolved","inputs":[{"name":"_reportId","type":"bytes32","internalType":"bytes32"}],"outputs":[],"stateMutability":"nonpayable"},{"type":"function","name":"recordValidation","inputs":[{"name":"_reportId","type":"bytes32","internalType":"bytes32"},{"name":"_validator","type":"address","internalType":"address"}],"outputs":[],"stateMutability":"nonpayable"},{"type":"function","name":"renounceRole","inputs":[{"name":"role","type":"bytes32","internalType":"bytes32"},{"name":"callerConfirmation","type":"address","internalType":"address"}],"outputs":[],"stateMutability":"nonpayable"},{"type":"function","name":"reportIds","inputs":[{"name":"","type":"uint256","internalType":"uint256"}],"outputs":[{"name":"","type":"bytes32","internalType":"bytes32"}],"stateMutability":"view"},{"type":"function","name":"revokeRole","inputs":[{"name":"role","type":"bytes32","internalType":"bytes32"},{"name":"account","type":"address","internalType":"address"}],"outputs":[],"stateMutability":"nonpayable"},{"type":"function","name":"storeReport","inputs":[{"name":"_reportId","type":"bytes32","internalType":"bytes32"},{"name":"_arkivTxId","type":"bytes32","internalType":"bytes32"},{"name":"_nullifierHash","type":"bytes32","internalType":"bytes32"},{"name":"_categoryId","type":"uint16","internalType":"uint16"}],"outputs":[],"stateMutability":"nonpayable"},{"type":"function","name":"supportsInterface","inputs":[{"name":"interfaceId","type":"bytes4","internalType":"bytes4"}],"outputs":[{"name":"","type":"bool","internalType":"bool"}],"stateMutability":"view"},{"type":"event","name":"Initialized","inputs":[{"name":"version","type":"uint64","indexed":false,"internalType":"uint64"}],"anonymous":false},{"type":"event","name":"ReportResolved","inputs":[{"name":"reportId","type":"bytes32","indexed":true,"internalType":"bytes32"}],"anonymous":false},{"type":"event","name":"ReportStored","inputs":[{"name":"reportId","type":"bytes32","indexed":true,"internalType":"bytes32"},{"name":"arkivTxId","type":"bytes32","indexed":false,"internalType":"bytes32"},{"name":"category","type":"uint16","indexed":false,"internalType":"uint16"}],"anonymous":false},{"type":"event","name":"RoleAdminChanged","inputs":[{"name":"role","type":"bytes32","indexed":true,"internalType":"bytes32"},{"name":"previousAdminRole","type":"bytes32","indexed":true,"internalType":"bytes32"},{"name":"newAdminRole","type":"bytes32","indexed":true,"internalType":"bytes32"}],"anonymous":false},{"type":"event","name":"RoleGranted","inputs":[{"name":"role","type":"bytes32","indexed":true,"internalType":"bytes32"},{"name":"account","type":"address","indexed":true,"internalType":"address"},{"name":"sender","type":"address","indexed":true,"internalType":"address"}],"anonymous":false},{"type":"event","name":"RoleRevoked","inputs":[{"name":"role","type":"bytes32","indexed":true,"internalType":"bytes32"},{"name":"account","type":"address","indexed":true,"internalType":"address"},{"name":"sender","type":"address","indexed":true,"internalType":"address"}],"anonymous":false},{"type":"event","name":"ValidationRecorded","inputs":[{"name":"reportId","type":"bytes32","indexed":true,"internalType":"bytes32"},{"name":"validator","type":"address","indexed":true,"internalType":"address"}],"anonymous":false},{"type":"error","name":"AccessControlBadConfirmation","inputs":[]},{"type":"error","name":"AccessControlUnauthorizedAccount","inputs":[{"name":"account","type":"address","internalType":"address"},{"name":"neededRole","type":"bytes32","internalType":"bytes32"}]},{"type":"error","name":"InvalidInitialization","inputs":[]},{"type":"error","name":"NotInitializing","inputs":[]}],"bytecode":{"object":"0x6080806040523460d2577ff0c57e16840df040f15088dc2f81fe391c3923bec73e23a9662efc9c229c6a005460ff8160401c1660c1576002600160401b03196001600160401b03821601605c575b604051610fb990816100d88239f35b6001600160401b0319166001600160401b039081177ff0c57e16840df040f15088dc2f81fe391c3923bec73e23a9662efc9c229c6a005581527fc7f505b2f371ae2175ee4913f4499e1f2633a7b5936321eed1cdaeb6115181d290602090a13880604d565b63f92ee8a960e01b60005260046000fd5b600080fdfe608080604052600436101561001357600080fd5b60003560e01c90816301ffc9a714610ae35750806304221b3a14610a02578063171c4f111461093057806322dc7b4c146108ff578063248a9ca3146108d95780632f2ff15d146108a857806336568abe14610862578063392f87e3146107a557806347be6eb7146107415780635f939b4f146107255780637320755a1461070957806387cc66de146106d157806391d1485414610677578063a217fddf14610590578063aee45465146105ac578063b9e8676b14610590578063c4d66de814610409578063d4e99500146103eb578063d547741f146103b3578063eb561f0014610366578063ed1ed9d6146101515763f36246d11461011157600080fd5b3461014c57600036600319011261014c5760206040517f502d3d275257923b2bea6ea25d9631f12369fb532871f13eb85eb09dc0fb48428152f35b600080fd5b3461014c57608036600319011261014c57600435602435604435906064359161ffff831680930361014c57610184610bbe565b80600052600160205260ff6040600020541661032857600283116102f0576101aa610b7d565b8281526020810182815261023d60ff604084019363ffffffff421685526060810188815263ffffffff600260808401936000855260a0810197600089528d60005260006020526040600020915182555160018201550196511665ffff000000008754925160201b169165ffffffffffff1916171785555116839060ff60301b82549160301b169060ff60301b1916179055565b51151560ff60381b82549160381b169060ff60381b191617905560005260016020526040600020600160ff1982541617905560035490680100000000000000008210156102da577f978104012414e1423fa28f080858e1d5b1967e63be281e9f3daaa7a1bcd702d5926102b883600160409501600355610b4c565b81549060031b9087821b91600019901b191617905582519182526020820152a2005b634e487b7160e01b600052604160045260246000fd5b60405162461bcd60e51b815260206004820152601060248201526f496e76616c69642063617465676f727960801b6044820152606490fd5b60405162461bcd60e51b8152602060048201526016602482015275139d5b1b1a599a595c88185b1c9958591e481d5cd95960521b6044820152606490fd5b3461014c57604036600319011261014c5761037f610b36565b600435600052600260205260406000209060018060a01b0316600052602052602060ff604060002054166040519015158152f35b3461014c57604036600319011261014c576103e96004356103d2610b36565b906103e46103df82610b9d565b610c30565b610ea3565b005b3461014c57600036600319011261014c576020600354604051908152f35b3461014c57602036600319011261014c576004356001600160a01b038116810361014c57600080516020610f64833981519152549060ff8260401c16159167ffffffffffffffff811680159081610588575b600114908161057e575b159081610575575b506105645767ffffffffffffffff198116600117600080516020610f648339815191525582610537575b5060ff600080516020610f648339815191525460401c161561052657806104c06104c692610c7a565b50610d2c565b506104cd57005b68ff000000000000000019600080516020610f648339815191525416600080516020610f64833981519152557fc7f505b2f371ae2175ee4913f4499e1f2633a7b5936321eed1cdaeb6115181d2602060405160018152a1005b631afcd79f60e31b60005260046000fd5b68ffffffffffffffffff19166801000000000000000117600080516020610f648339815191525582610497565b63f92ee8a960e01b60005260046000fd5b9050158461046d565b303b159150610465565b84915061045b565b3461014c57600036600319011261014c57602060405160008152f35b3461014c57602036600319011261014c576004356105c8610bbe565b80600052600060205260ff8060026040600020015460301c16101561063e576000526000602052600260406000200160ff815460301c169060ff82146106285760016103e9920160ff60301b82549160301b169060ff60301b1916179055565b634e487b7160e01b600052601160045260246000fd5b60405162461bcd60e51b815260206004820152601160248201527013585e081cd8dbdc99481c995858da1959607a1b6044820152606490fd5b3461014c57604036600319011261014c57610690610b36565b600435600052600080516020610f4483398151915260205260406000209060018060a01b0316600052602052602060ff604060002054166040519015158152f35b3461014c57602036600319011261014c5760043560035481101561014c576106fa602091610b4c565b90549060031b1c604051908152f35b3461014c57600036600319011261014c57602060405160028152f35b3461014c57600036600319011261014c57602060405160018152f35b3461014c57602036600319011261014c5760043560035481101561076a576106fa602091610b4c565b60405162461bcd60e51b8152602060048201526013602482015272496e646578206f7574206f6620626f756e647360681b6044820152606490fd5b3461014c57602036600319011261014c576004356107c1610bbe565b80600052600060205260ff60026040600020015460381c1661082a57806000526000602052600260406000200167010000000000000060ff60381b198254161790557feca1280dae1601588a7cfde5a75f92ac078a466ffd73a959636dc2bea61b0a42600080a2005b60405162461bcd60e51b815260206004820152601060248201526f105b1c9958591e481c995cdbdb1d995960821b6044820152606490fd5b3461014c57604036600319011261014c5761087b610b36565b336001600160a01b03821603610897576103e990600435610ea3565b63334bd91960e11b60005260046000fd5b3461014c57604036600319011261014c576103e96004356108c7610b36565b906108d46103df82610b9d565b610dfa565b3461014c57602036600319011261014c5760206108f7600435610b9d565b604051908152f35b3461014c57602036600319011261014c576004356000526001602052602060ff604060002054166040519015158152f35b3461014c57602036600319011261014c57600060a061094d610b7d565b8281528260208201528260408201528260608201528260808201520152600435600052600060205260c06040600020610984610b7d565b9060ff81549283815261ffff60026001850154946020840195865201549363ffffffff6040840181871681526060850192848860201c1684528660a06080880197828b60301c168952019860381c161515885260405198895251602089015251166040870152511660608501525116608083015251151560a0820152f35b3461014c57604036600319011261014c57600435610a1e610b36565b610a26610bbe565b816000526002602052604060002060018060a01b03821660005260205260ff60406000205416610aaa5760008281526002602090815260408083206001600160a01b0394909416808452939091528120805460ff191660011790559091907fcb4c9903a1465363a251169dc4cf279a174202904db9f7a2c089afebad3ff5ac9080a3005b60405162461bcd60e51b8152602060048201526011602482015270105b1c9958591e481d985b1a59185d1959607a1b6044820152606490fd5b3461014c57602036600319011261014c576004359063ffffffff60e01b821680920361014c57602091637965db0b60e01b8114908115610b25575b5015158152f35b6301ffc9a760e01b14905083610b1e565b602435906001600160a01b038216820361014c57565b600354811015610b6757600360005260206000200190600090565b634e487b7160e01b600052603260045260246000fd5b6040519060c0820182811067ffffffffffffffff8211176102da57604052565b600052600080516020610f4483398151915260205260016040600020015490565b3360009081527f61abc42d658996d1f7884c576104ada96917fbc464f645f43cc2ca998de0e709602052604090205460ff1615610bf757565b63e2517d3f60e01b600052336004527f502d3d275257923b2bea6ea25d9631f12369fb532871f13eb85eb09dc0fb484260245260446000fd5b6000818152600080516020610f448339815191526020908152604080832033845290915290205460ff1615610c625750565b63e2517d3f60e01b6000523360045260245260446000fd5b6001600160a01b03811660009081527fb7db2dd08fcb62d0c9e08c51941cae53c267786a0b75803fb7960902fc8ef97d602052604090205460ff16610d26576001600160a01b031660008181527fb7db2dd08fcb62d0c9e08c51941cae53c267786a0b75803fb7960902fc8ef97d60205260408120805460ff191660011790553391907f2f8788117e7eff1d82e926ec794901d17c78024a50270940304540a733656f0d8180a4600190565b50600090565b6001600160a01b03811660009081527f61abc42d658996d1f7884c576104ada96917fbc464f645f43cc2ca998de0e709602052604090205460ff16610d26576001600160a01b031660008181527f61abc42d658996d1f7884c576104ada96917fbc464f645f43cc2ca998de0e70960205260408120805460ff191660011790553391907f502d3d275257923b2bea6ea25d9631f12369fb532871f13eb85eb09dc0fb4842907f2f8788117e7eff1d82e926ec794901d17c78024a50270940304540a733656f0d9080a4600190565b6000818152600080516020610f44833981519152602090815260408083206001600160a01b038616845290915290205460ff16610e9c576000818152600080516020610f44833981519152602090815260408083206001600160a01b0395909516808452949091528120805460ff19166001179055339291907f2f8788117e7eff1d82e926ec794901d17c78024a50270940304540a733656f0d9080a4600190565b5050600090565b6000818152600080516020610f44833981519152602090815260408083206001600160a01b038616845290915290205460ff1615610e9c576000818152600080516020610f44833981519152602090815260408083206001600160a01b0395909516808452949091528120805460ff19169055339291907ff6391f5c32d9c69d2a47ea670b442974b53935d1edc7fd64eb21e047a839171b9080a460019056fe02dd7bc7dec4dceedda775e58dd541e08a116c6c53815c0bd028192f7b626800f0c57e16840df040f15088dc2f81fe391c3923bec73e23a9662efc9c229c6a00a26469706673582212207e648547bfff0d48a119eb2d0c4528c0be6d92fad06af7a069578fbe0a252b1864736f6c634300081c0033","linkReferences":{}},"methodIdentifiers":{"CATEGORY_BASURA()":"7320755a","CATEGORY_INFRAESTRUCTURA()":"b9e8676b","CATEGORY_INSEGURIDAD()":"5f939b4f","CORE_ROLE()":"f36246d1","DEFAULT_ADMIN_ROLE()":"a217fddf","getReport(bytes32)":"171c4f11","getReportIdByIndex(uint256)":"47be6eb7","getRoleAdmin(bytes32)":"248a9ca3","getTotalReports()":"d4e99500","grantRole(bytes32,address)":"2f2ff15d","hasRole(bytes32,address)":"91d14854","hasUserValidated(bytes32,address)":"eb561f00","incrementValidationScore(bytes32)":"aee45465","initialize(address)":"c4d66de8","isNullifierUsed(bytes32)":"22dc7b4c","markAsResolved(bytes32)":"392f87e3","recordValidation(bytes32,address)":"04221b3a","renounceRole(bytes32,address)":"36568abe","reportIds(uint256)":"87cc66de","revokeRole(bytes32,address)":"d547741f","storeReport(bytes32,bytes32,bytes32,uint16)":"ed1ed9d6","supportsInterface(bytes4)":"01ffc9a7"},"id":59}