{"abi":[{"type":"constructor","inputs":[{"name":"_admin","type":"address","internalType":"address"}],"stateMutability":"nonpayable"},{"type":"function","name":"activateGovernment","inputs":[{"name":"_govAddress","type":"address","internalType":"address"}],"outputs":[],"stateMutability":"nonpayable"},{"type":"function","name":"deactivateGovernment","inputs":[{"name":"_govAddress","type":"address","internalType":"address"}],"outputs":[],"stateMutability":"nonpayable"},{"type":"function","name":"getAllGovernments","inputs":[],"outputs":[{"name":"","type":"address[]","internalType":"address[]"}],"stateMutability":"view"},{"type":"function","name":"getGovernmentInfo","inputs":[{"name":"_govAddress","type":"address","internalType":"address"}],"outputs":[{"name":"name","type":"string","internalType":"string"},{"name":"jurisdiction","type":"string","internalType":"string"},{"name":"isActive","type":"bool","internalType":"bool"},{"name":"registeredAt","type":"uint256","internalType":"uint256"}],"stateMutability":"view"},{"type":"function","name":"governmentList","inputs":[{"name":"","type":"uint256","internalType":"uint256"}],"outputs":[{"name":"","type":"address","internalType":"address"}],"stateMutability":"view"},{"type":"function","name":"governments","inputs":[{"name":"","type":"address","internalType":"address"}],"outputs":[{"name":"name","type":"string","internalType":"string"},{"name":"jurisdiction","type":"string","internalType":"string"},{"name":"wallet","type":"address","internalType":"address"},{"name":"isActive","type":"bool","internalType":"bool"},{"name":"registeredAt","type":"uint256","internalType":"uint256"}],"stateMutability":"view"},{"type":"function","name":"isActiveGovernment","inputs":[{"name":"_address","type":"address","internalType":"address"}],"outputs":[{"name":"","type":"bool","internalType":"bool"}],"stateMutability":"view"},{"type":"function","name":"owner","inputs":[],"outputs":[{"name":"","type":"address","internalType":"address"}],"stateMutability":"view"},{"type":"function","name":"registerGovernment","inputs":[{"name":"_govAddress","type":"address","internalType":"address"},{"name":"_name","type":"string","internalType":"string"},{"name":"_jurisdiction","type":"string","internalType":"string"}],"outputs":[],"stateMutability":"nonpayable"},{"type":"function","name":"renounceOwnership","inputs":[],"outputs":[],"stateMutability":"nonpayable"},{"type":"function","name":"transferOwnership","inputs":[{"name":"newOwner","type":"address","internalType":"address"}],"outputs":[],"stateMutability":"nonpayable"},{"type":"event","name":"GovernmentActivated","inputs":[{"name":"govAddress","type":"address","indexed":true,"internalType":"address"}],"anonymous":false},{"type":"event","name":"GovernmentDeactivated","inputs":[{"name":"govAddress","type":"address","indexed":true,"internalType":"address"}],"anonymous":false},{"type":"event","name":"GovernmentRegistered","inputs":[{"name":"govAddress","type":"address","indexed":true,"internalType":"address"},{"name":"name","type":"string","indexed":false,"internalType":"string"},{"name":"jurisdiction","type":"string","indexed":false,"internalType":"string"}],"anonymous":false},{"type":"event","name":"OwnershipTransferred","inputs":[{"name":"previousOwner","type":"address","indexed":true,"internalType":"address"},{"name":"newOwner","type":"address","indexed":true,"internalType":"address"}],"anonymous":false},{"type":"error","name":"OwnableInvalidOwner","inputs":[{"name":"owner","type":"address","internalType":"address"}]},{"type":"error","name":"OwnableUnauthorizedAccount","inputs":[{"name":"account","type":"address","internalType":"address"}]}],"bytecode":{"object":"0x60803460bc57601f610dbb38819003918201601f19168301916001600160401b0383118484101760c15780849260209460405283398101031260bc57516001600160a01b0381169081900360bc57801560a657600080546001600160a01b031981168317825560405192916001600160a01b03909116907f8be0079c531659141344cd1fd0a4f28419497f9722a3daafe3b4186f6b6457e09080a3610ce390816100d88239f35b631e4fbdf760e01b600052600060045260246000fd5b600080fd5b634e487b7160e01b600052604160045260246000fdfe6080604052600436101561001257600080fd5b60003560e01c8063148471d1146109aa5780632bc9314d1461096557806347357af5146108a1578063715018a6146108485780637d0ae37f1461078857806388c044cc146106bc5780638da5cb5b146106935780639b9831ed14610651578063afe3750d14610590578063ba214e83146101235763f2fde38b1461009557600080fd5b3461011e57602036600319011261011e576100ae610a4a565b6100b6610c84565b6001600160a01b0316801561010857600080546001600160a01b03198116831782556001600160a01b0316907f8be0079c531659141344cd1fd0a4f28419497f9722a3daafe3b4186f6b6457e09080a3005b631e4fbdf760e01b600052600060045260246000fd5b600080fd5b3461011e57606036600319011261011e5761013c610a4a565b60243567ffffffffffffffff811161011e5761015c903690600401610bee565b9060443567ffffffffffffffff811161011e5761017d903690600401610bee565b929093610188610c84565b6001600160a01b0316938415610559576000858152600160205260409020600201546001600160a01b031661051f576040516101c381610a9a565b6101ce368486610c1c565b81526101db368684610c1c565b6020820190815260408201878152606083016001815260808401924284528960005260016020526040600020945180519067ffffffffffffffff82116103875781906102278854610a60565b601f81116104cc575b50602090601f83116001146104675760009261045c575b50508160011b916000199060031b1c19161785555b518051600186019167ffffffffffffffff82116103875761027d8354610a60565b601f8111610414575b50602090601f83116001146103a85760039695949392916000918361039d575b50508160011b9160001990881b1c19161790555b90516002858101805493516001600160a81b03199094166001600160a01b03939093169290921792151560a01b60ff60a01b1692909217905590519190920155549068010000000000000000821015610387577f5f1501bc7192cee223a59f8f0f5c78cfa4360360d8c3fc518b34416183a4954a946103428360016103829501600255610bbd565b81546001600160a01b0360039290921b91821b19169089901b1790556040805181815295869561037492870191610c63565b918483036020860152610c63565b0390a2005b634e487b7160e01b600052604160045260246000fd5b015190508d806102a6565b90601f1983169184600052816000209260005b8181106103fc575091600193918560039a9998979694106103e4575b505050811b0190556102ba565b0151600019838a1b60f8161c191690558d80806103d7565b929360206001819287860151815501950193016103bb565b836000526020600020601f840160051c81019160208510610452575b601f0160051c01905b8181106104465750610286565b60008155600101610439565b9091508190610430565b015190508c80610247565b60008981528281209350601f198516905b8181106104b4575090846001959493921061049b575b505050811b01855561025c565b015160001960f88460031b161c191690558c808061048e565b92936020600181928786015181550195019301610478565b909150876000526020600020601f840160051c81019160208510610515575b90601f859493920160051c01905b8181106105065750610230565b600081558493506001016104f9565b90915081906104eb565b60405162461bcd60e51b8152602060048201526012602482015271105b1c9958591e481c9959da5cdd195c995960721b6044820152606490fd5b60405162461bcd60e51b815260206004820152600f60248201526e496e76616c6964206164647265737360881b6044820152606490fd5b3461011e57602036600319011261011e576105a9610a4a565b6105b1610c84565b6001600160a01b031660008181526001602052604090206002015460a01c60ff1615610619576000818152600160205260408120600201805460ff60a01b191690557fe5e28aca13030639cbfa7ec78c7e9f93e03fb0a61068cb4b8efb601211f34efa9080a2005b60405162461bcd60e51b815260206004820152601060248201526f416c726561647920696e61637469766560801b6044820152606490fd5b3461011e57602036600319011261011e5760043560025481101561011e5761067a602091610bbd565b905460405160039290921b1c6001600160a01b03168152f35b3461011e57600036600319011261011e576000546040516001600160a01b039091168152602090f35b3461011e57600036600319011261011e576040518060206002549283815201809260026000527f405787fa12a823e0f2b7631cc41b3ba8828b3321ca811111fa75cd3aa3bb5ace9060005b818110610769575050508161071d910382610ab6565b6040519182916020830190602084525180915260408301919060005b818110610747575050500390f35b82516001600160a01b0316845285945060209384019390920191600101610739565b82546001600160a01b0316845260209093019260019283019201610707565b3461011e57602036600319011261011e576001600160a01b036107a9610a4a565b16600052600160205261082b6040600020604051906107c782610a9a565b6107d081610ad8565b82526107de60018201610ad8565b91826020820152610839600360ff600285015460018060a01b038116604086015260a01c161515938460608501520154918260808201525193604051958695608087526080870190610b7c565b908582036020870152610b7c565b91604084015260608301520390f35b3461011e57600036600319011261011e57610861610c84565b600080546001600160a01b0319811682556001600160a01b03167f8be0079c531659141344cd1fd0a4f28419497f9722a3daafe3b4186f6b6457e08280a3005b3461011e57602036600319011261011e576108ba610a4a565b6108c2610c84565b6001600160a01b031660008181526001602052604090206002015460a01c60ff1661092f576000818152600160205260408120600201805460ff60a01b1916600160a01b1790557f43db32eaf88d366a06c07e629130ba594416f16dcbdeada28ad5361cc8d3fb4b9080a2005b60405162461bcd60e51b815260206004820152600e60248201526d416c72656164792061637469766560901b6044820152606490fd5b3461011e57602036600319011261011e576001600160a01b03610986610a4a565b166000526001602052602060ff60026040600020015460a01c166040519015158152f35b3461011e57602036600319011261011e576001600160a01b036109cb610a4a565b166000526001602052610a1660406000206109e581610ad8565b906109f260018201610ad8565b60ff610a24600360028501549401549260405196879660a0885260a0880190610b7c565b908682036020880152610b7c565b6001600160a01b038416604086015260a09390931c161515606084015260808301520390f35b600435906001600160a01b038216820361011e57565b90600182811c92168015610a90575b6020831014610a7a57565b634e487b7160e01b600052602260045260246000fd5b91607f1691610a6f565b60a0810190811067ffffffffffffffff82111761038757604052565b90601f8019910116810190811067ffffffffffffffff82111761038757604052565b9060405191826000825492610aec84610a60565b8084529360018116908115610b5a5750600114610b13575b50610b1192500383610ab6565b565b90506000929192526020600020906000915b818310610b3e575050906020610b119282010138610b04565b6020919350806001915483858901015201910190918492610b25565b905060209250610b1194915060ff191682840152151560051b82010138610b04565b919082519283825260005b848110610ba8575050826000602080949584010152601f8019910116010190565b80602080928401015182828601015201610b87565b600254811015610bd857600260005260206000200190600090565b634e487b7160e01b600052603260045260246000fd5b9181601f8401121561011e5782359167ffffffffffffffff831161011e576020838186019501011161011e57565b92919267ffffffffffffffff82116103875760405191610c46601f8201601f191660200184610ab6565b82948184528183011161011e578281602093846000960137010152565b908060209392818452848401376000828201840152601f01601f1916010190565b6000546001600160a01b03163303610c9857565b63118cdaa760e01b6000523360045260246000fdfea264697066735822122070ffdd8299ce0c9115cf226db50ac5af10cf67277ce6c49edd90d533f89128b464736f6c634300081c0033","linkReferences":{}},"methodIdentifiers":{"activateGovernment(address)":"47357af5","deactivateGovernment(address)":"afe3750d","getAllGovernments()":"88c044cc","getGovernmentInfo(address)":"7d0ae37f","governmentList(uint256)":"9b9831ed","governments(address)":"148471d1","isActiveGovernment(address)":"2bc9314d","owner()":"8da5cb5b","registerGovernment(address,string,string)":"ba214e83","renounceOwnership()":"715018a6","transferOwnership(address)":"f2fde38b"},"id":3}