{"abi":[{"type":"constructor","inputs":[{"name":"_admin","type":"address","internalType":"address"}],"stateMutability":"nonpayable"},{"type":"function","name":"activateGovernment","inputs":[{"name":"_govAddress","type":"address","internalType":"address"}],"outputs":[],"stateMutability":"nonpayable"},{"type":"function","name":"deactivateGovernment","inputs":[{"name":"_govAddress","type":"address","internalType":"address"}],"outputs":[],"stateMutability":"nonpayable"},{"type":"function","name":"getAllGovernments","inputs":[],"outputs":[{"name":"","type":"address[]","internalType":"address[]"}],"stateMutability":"view"},{"type":"function","name":"getGovernmentInfo","inputs":[{"name":"_govAddress","type":"address","internalType":"address"}],"outputs":[{"name":"name","type":"string","internalType":"string"},{"name":"jurisdiction","type":"string","internalType":"string"},{"name":"isActive","type":"bool","internalType":"bool"},{"name":"registeredAt","type":"uint256","internalType":"uint256"}],"stateMutability":"view"},{"type":"function","name":"governmentList","inputs":[{"name":"","type":"uint256","internalType":"uint256"}],"outputs":[{"name":"","type":"address","internalType":"address"}],"stateMutability":"view"},{"type":"function","name":"governments","inputs":[{"name":"","type":"address","internalType":"address"}],"outputs":[{"name":"name","type":"string","internalType":"string"},{"name":"jurisdiction","type":"string","internalType":"string"},{"name":"wallet","type":"address","internalType":"address"},{"name":"isActive","type":"bool","internalType":"bool"},{"name":"registeredAt","type":"uint256","internalType":"uint256"}],"stateMutability":"view"},{"type":"function","name":"isActiveGovernment","inputs":[{"name":"_address","type":"address","internalType":"address"}],"outputs":[{"name":"","type":"bool","internalType":"bool"}],"stateMutability":"view"},{"type":"function","name":"owner","inputs":[],"outputs":[{"name":"","type":"address","internalType":"address"}],"stateMutability":"view"},{"type":"function","name":"registerGovernment","inputs":[{"name":"_govAddress","type":"address","internalType":"address"},{"name":"_name","type":"string","internalType":"string"},{"name":"_jurisdiction","type":"string","internalType":"string"}],"outputs":[],"stateMutability":"nonpayable"},{"type":"function","name":"renounceOwnership","inputs":[],"outputs":[],"stateMutability":"nonpayable"},{"type":"function","name":"transferOwnership","inputs":[{"name":"newOwner","type":"address","internalType":"address"}],"outputs":[],"stateMutability":"nonpayable"},{"type":"event","name":"GovernmentActivated","inputs":[{"name":"govAddress","type":"address","indexed":true,"internalType":"address"}],"anonymous":false},{"type":"event","name":"GovernmentDeactivated","inputs":[{"name":"govAddress","type":"address","indexed":true,"internalType":"address"}],"anonymous":false},{"type":"event","name":"GovernmentRegistered","inputs":[{"name":"govAddress","type":"address","indexed":true,"internalType":"address"},{"name":"name","type":"string","indexed":false,"internalType":"string"},{"name":"jurisdiction","type":"string","indexed":false,"internalType":"string"}],"anonymous":false},{"type":"event","name":"OwnershipTransferred","inputs":[{"name":"previousOwner","type":"address","indexed":true,"internalType":"address"},{"name":"newOwner","type":"address","indexed":true,"internalType":"address"}],"anonymous":false},{"type":"error","name":"OwnableInvalidOwner","inputs":[{"name":"owner","type":"address","internalType":"address"}]},{"type":"error","name":"OwnableUnauthorizedAccount","inputs":[{"name":"account","type":"address","internalType":"address"}]}],"bytecode":{"object":"0x6080346100bb57601f610dee38819003918201601f19168301916001600160401b038311848410176100c0578084926020946040528339810103126100bb57516001600160a01b0390818116908190036100bb5780156100a257600080546001600160a01b03198116831782556040519316907f8be0079c531659141344cd1fd0a4f28419497f9722a3daafe3b4186f6b6457e09080a3610d1790816100d78239f35b604051631e4fbdf760e01b815260006004820152602490fd5b600080fd5b634e487b7160e01b600052604160045260246000fdfe6080604052600436101561001257600080fd5b60003560e01c8063148471d1146109c65780632bc9314d1461098157806347357af5146108bd578063715018a6146108645780637d0ae37f146107aa57806388c044cc146106e25780638da5cb5b146106b95780639b9831ed14610677578063afe3750d146105b6578063ba214e83146101285763f2fde38b1461009557600080fd5b34610123576020366003190112610123576100ae610a5f565b6100b6610cb5565b6001600160a01b0390811690811561010a57600054826bffffffffffffffffffffffff60a01b821617600055167f8be0079c531659141344cd1fd0a4f28419497f9722a3daafe3b4186f6b6457e0600080a3005b604051631e4fbdf760e01b815260006004820152602490fd5b600080fd5b3461012357606036600319011261012357610141610a5f565b60243567ffffffffffffffff811161012357610161903690600401610c1f565b9060443567ffffffffffffffff811161012357610182903690600401610c1f565b92909361018d610cb5565b6001600160a01b0381161561057f576001600160a01b0381811660009081526001602052604090206002015416610545576040516101ca81610aaf565b6101d5368486610c4d565b81526101e2368688610c4d565b602082015260018060a01b03821660408201526001606082015242608082015260018060a01b0382166000526001602052604060002090805180519067ffffffffffffffff82116103aa5781906102398554610a75565b601f81116104f5575b50602090601f831160011461048f57600092610484575b50508160011b916000199060031b1c19161782555b602081015180519067ffffffffffffffff82116103aa576102926001850154610a75565b601f811161043d575b50602090601f83116001146103cb579180600394926080946000926103c0575b505060001982861b1c1916600191821b17908501555b6002840160018060a01b0360408301511681549060ff60a01b6060850151151560a01b16916affffffffffffffffffffff60a81b1617179055015191015560025490680100000000000000008210156103aa577f5f1501bc7192cee223a59f8f0f5c78cfa4360360d8c3fc518b34416183a4954a946103598360016103a59501600255610bd2565b81546001600160a01b0385811660039390931b92831b921b19161790556040805181815295869561038c92870191610c94565b84810360208601526001600160a01b0390921696610c94565b0390a2005b634e487b7160e01b600052604160045260246000fd5b015190508b806102bb565b90601f198316916001860160005260206000209260005b8181106104255750926001928592608096600398961061040d575b505050811b0160018501556102d1565b015160001983881b60f8161c191690558b80806103fd565b929360206001819287860151815501950193016103e2565b600185016000526020600020601f840160051c81016020851061047d575b601f830160051c8201811061047157505061029b565b6000815560010161045b565b508061045b565b015190508980610259565b6000868152602081209350601f198516905b8181106104dd57509084600195949392106104c4575b505050811b01825561026e565b015160001960f88460031b161c191690558980806104b7565b929360206001819287860151815501950193016104a1565b909150846000526020600020601f840160051c81016020851061053e575b90849392915b601f830160051c8201811061052f575050610242565b60008155859450600101610519565b5080610513565b60405162461bcd60e51b8152602060048201526012602482015271105b1c9958591e481c9959da5cdd195c995960721b6044820152606490fd5b60405162461bcd60e51b815260206004820152600f60248201526e496e76616c6964206164647265737360881b6044820152606490fd5b34610123576020366003190112610123576105cf610a5f565b6105d7610cb5565b6001600160a01b031660008181526001602052604090206002015460a01c60ff161561063f576000818152600160205260408120600201805460ff60a01b191690557fe5e28aca13030639cbfa7ec78c7e9f93e03fb0a61068cb4b8efb601211f34efa9080a2005b60405162461bcd60e51b815260206004820152601060248201526f416c726561647920696e61637469766560801b6044820152606490fd5b3461012357602036600319011261012357600435600254811015610123576106a0602091610bd2565b905460405160039290921b1c6001600160a01b03168152f35b34610123576000366003190112610123576000546040516001600160a01b039091168152602090f35b3461012357600036600319011261012357604051806002548083526020809301809160026000527f405787fa12a823e0f2b7631cc41b3ba8828b3321ca811111fa75cd3aa3bb5ace9060005b8682821061078d57868661074482880383610acb565b604051928392818401908285525180915260408401929160005b82811061076d57505050500390f35b83516001600160a01b03168552869550938101939281019260010161075e565b83546001600160a01b03168552909301926001928301920161072e565b34610123576020366003190112610123576108476001600160a01b03806107cf610a5f565b16600052600160205260406000206040516107e981610aaf565b6107f282610aed565b8152610855600360ff61080760018601610aed565b958660208601526002860154908116604086015260a01c161515938460608501520154918260808201525193604051958695608087526080870190610b92565b908582036020870152610b92565b91604084015260608301520390f35b346101235760003660031901126101235761087d610cb5565b600080546001600160a01b0319811682556001600160a01b03167f8be0079c531659141344cd1fd0a4f28419497f9722a3daafe3b4186f6b6457e08280a3005b34610123576020366003190112610123576108d6610a5f565b6108de610cb5565b6001600160a01b031660008181526001602052604090206002015460a01c60ff1661094b576000818152600160205260408120600201805460ff60a01b1916600160a01b1790557f43db32eaf88d366a06c07e629130ba594416f16dcbdeada28ad5361cc8d3fb4b9080a2005b60405162461bcd60e51b815260206004820152600e60248201526d416c72656164792061637469766560901b6044820152606490fd5b34610123576020366003190112610123576001600160a01b036109a2610a5f565b166000526001602052602060ff60026040600020015460a01c166040519015158152f35b3461012357602036600319011261012357610a356001600160a01b03806109eb610a5f565b166000526001602052604060002090610a0382610aed565b9160ff610a1260018301610aed565b91610a43600360028301549201549360405197889760a0895260a0890190610b92565b908782036020890152610b92565b938116604086015260a01c161515606084015260808301520390f35b600435906001600160a01b038216820361012357565b90600182811c92168015610aa5575b6020831014610a8f57565b634e487b7160e01b600052602260045260246000fd5b91607f1691610a84565b60a0810190811067ffffffffffffffff8211176103aa57604052565b90601f8019910116810190811067ffffffffffffffff8211176103aa57604052565b90604051918260008254610b0081610a75565b90818452602094600191600181169081600014610b705750600114610b31575b505050610b2f92500383610acb565b565b600090815285812095935091905b818310610b58575050610b2f9350820101388080610b20565b85548884018501529485019487945091830191610b3f565b92505050610b2f94925060ff191682840152151560051b820101388080610b20565b919082519283825260005b848110610bbe575050826000602080949584010152601f8019910116010190565b602081830181015184830182015201610b9d565b600254811015610c095760026000527f405787fa12a823e0f2b7631cc41b3ba8828b3321ca811111fa75cd3aa3bb5ace0190600090565b634e487b7160e01b600052603260045260246000fd5b9181601f840112156101235782359167ffffffffffffffff8311610123576020838186019501011161012357565b92919267ffffffffffffffff82116103aa5760405191610c77601f8201601f191660200184610acb565b829481845281830111610123578281602093846000960137010152565b908060209392818452848401376000828201840152601f01601f1916010190565b6000546001600160a01b03163303610cc957565b60405163118cdaa760e01b8152336004820152602490fdfea26469706673582212203384b32cfdcd519d63208da0bf70c7d01adf62d3ce26ef6d888860dde0960ff064736f6c63430008170033","linkReferences":{}},"methodIdentifiers":{"activateGovernment(address)":"47357af5","deactivateGovernment(address)":"afe3750d","getAllGovernments()":"88c044cc","getGovernmentInfo(address)":"7d0ae37f","governmentList(uint256)":"9b9831ed","governments(address)":"148471d1","isActiveGovernment(address)":"2bc9314d","owner()":"8da5cb5b","registerGovernment(address,string,string)":"ba214e83","renounceOwnership()":"715018a6","transferOwnership(address)":"f2fde38b"},"id":58}