{"abi":[{"type":"constructor","inputs":[],"stateMutability":"nonpayable"},{"type":"function","name":"allowance","inputs":[{"name":"owner","type":"address","internalType":"address"},{"name":"spender","type":"address","internalType":"address"}],"outputs":[{"name":"","type":"uint256","internalType":"uint256"}],"stateMutability":"view"},{"type":"function","name":"approve","inputs":[{"name":"spender","type":"address","internalType":"address"},{"name":"value","type":"uint256","internalType":"uint256"}],"outputs":[{"name":"","type":"bool","internalType":"bool"}],"stateMutability":"nonpayable"},{"type":"function","name":"balanceOf","inputs":[{"name":"account","type":"address","internalType":"address"}],"outputs":[{"name":"","type":"uint256","internalType":"uint256"}],"stateMutability":"view"},{"type":"function","name":"decimals","inputs":[],"outputs":[{"name":"","type":"uint8","internalType":"uint8"}],"stateMutability":"pure"},{"type":"function","name":"faucet","inputs":[],"outputs":[],"stateMutability":"nonpayable"},{"type":"function","name":"mint","inputs":[{"name":"to","type":"address","internalType":"address"},{"name":"amount","type":"uint256","internalType":"uint256"}],"outputs":[],"stateMutability":"nonpayable"},{"type":"function","name":"name","inputs":[],"outputs":[{"name":"","type":"string","internalType":"string"}],"stateMutability":"view"},{"type":"function","name":"owner","inputs":[],"outputs":[{"name":"","type":"address","internalType":"address"}],"stateMutability":"view"},{"type":"function","name":"renounceOwnership","inputs":[],"outputs":[],"stateMutability":"nonpayable"},{"type":"function","name":"symbol","inputs":[],"outputs":[{"name":"","type":"string","internalType":"string"}],"stateMutability":"view"},{"type":"function","name":"totalSupply","inputs":[],"outputs":[{"name":"","type":"uint256","internalType":"uint256"}],"stateMutability":"view"},{"type":"function","name":"transfer","inputs":[{"name":"to","type":"address","internalType":"address"},{"name":"value","type":"uint256","internalType":"uint256"}],"outputs":[{"name":"","type":"bool","internalType":"bool"}],"stateMutability":"nonpayable"},{"type":"function","name":"transferFrom","inputs":[{"name":"from","type":"address","internalType":"address"},{"name":"to","type":"address","internalType":"address"},{"name":"value","type":"uint256","internalType":"uint256"}],"outputs":[{"name":"","type":"bool","internalType":"bool"}],"stateMutability":"nonpayable"},{"type":"function","name":"transferOwnership","inputs":[{"name":"newOwner","type":"address","internalType":"address"}],"outputs":[],"stateMutability":"nonpayable"},{"type":"event","name":"Approval","inputs":[{"name":"owner","type":"address","indexed":true,"internalType":"address"},{"name":"spender","type":"address","indexed":true,"internalType":"address"},{"name":"value","type":"uint256","indexed":false,"internalType":"uint256"}],"anonymous":false},{"type":"event","name":"OwnershipTransferred","inputs":[{"name":"previousOwner","type":"address","indexed":true,"internalType":"address"},{"name":"newOwner","type":"address","indexed":true,"internalType":"address"}],"anonymous":false},{"type":"event","name":"Transfer","inputs":[{"name":"from","type":"address","indexed":true,"internalType":"address"},{"name":"to","type":"address","indexed":true,"internalType":"address"},{"name":"value","type":"uint256","indexed":false,"internalType":"uint256"}],"anonymous":false},{"type":"error","name":"ERC20InsufficientAllowance","inputs":[{"name":"spender","type":"address","internalType":"address"},{"name":"allowance","type":"uint256","internalType":"uint256"},{"name":"needed","type":"uint256","internalType":"uint256"}]},{"type":"error","name":"ERC20InsufficientBalance","inputs":[{"name":"sender","type":"address","internalType":"address"},{"name":"balance","type":"uint256","internalType":"uint256"},{"name":"needed","type":"uint256","internalType":"uint256"}]},{"type":"error","name":"ERC20InvalidApprover","inputs":[{"name":"approver","type":"address","internalType":"address"}]},{"type":"error","name":"ERC20InvalidReceiver","inputs":[{"name":"receiver","type":"address","internalType":"address"}]},{"type":"error","name":"ERC20InvalidSender","inputs":[{"name":"sender","type":"address","internalType":"address"}]},{"type":"error","name":"ERC20InvalidSpender","inputs":[{"name":"spender","type":"address","internalType":"address"}]},{"type":"error","name":"OwnableInvalidOwner","inputs":[{"name":"owner","type":"address","internalType":"address"}]},{"type":"error","name":"OwnableUnauthorizedAccount","inputs":[{"name":"account","type":"address","internalType":"address"}]}],"bytecode":{"object":"0x608034620003dd576040906001600160401b039080830182811182821017620002dd578352600c81526020906b5553442045786368616e676560a01b8282015283519284840184811082821117620002dd5785526003808552620aaa6b60eb1b848601528251828111620002dd578154906001948583811c93168015620003d2575b87841014620003bc578190601f9384811162000366575b508790848311600114620002ff57600092620002f3575b505060001982851b1c191690851b1782555b8551928311620002dd5760049586548581811c91168015620002d2575b87821014620002bd5782811162000272575b50859184116001146200020757938394918492600095620001fb575b50501b92600019911b1c19161782555b3315620001e45760058054336001600160a01b0319821681179092556001600160a01b03167f8be0079c531659141344cd1fd0a4f28419497f9722a3daafe3b4186f6b6457e0600080a36002546a084595161401484a00000092838201809211620001cf57506000917fddf252ad1be2c89b69c2b068fc378daa952ba7f163c4a11628f55a4df523b3ef9160025533835282815284832084815401905584519384523393a3516109df9081620003e38239f35b601190634e487b7160e01b6000525260246000fd5b5060006024925191631e4fbdf760e01b8352820152fd5b0151935038806200010c565b9190601f198416928760005284876000209460005b89898383106200025a57505050106200023f575b50505050811b0182556200011c565b01519060f884600019921b161c191690553880808062000230565b8686015189559097019694850194889350016200021c565b87600052866000208380870160051c820192898810620002b3575b0160051c019086905b828110620002a6575050620000f0565b6000815501869062000296565b925081926200028d565b602288634e487b7160e01b6000525260246000fd5b90607f1690620000de565b634e487b7160e01b600052604160045260246000fd5b015190503880620000af565b90879350601f1983169186600052896000209260005b8b8282106200034f575050841162000336575b505050811b018255620000c1565b015160001983871b60f8161c1916905538808062000328565b8385015186558b9790950194938401930162000315565b90915084600052876000208480850160051c8201928a8610620003b2575b918991869594930160051c01915b828110620003a257505062000098565b6000815585945089910162000392565b9250819262000384565b634e487b7160e01b600052602260045260246000fd5b92607f169262000081565b600080fdfe6080604081815260048036101561001557600080fd5b600092833560e01c90816306fdde031461072e57508063095ea7b31461068557806318160ddd1461066657806323b872dd14610573578063313ce5671461055757806340c10f19146104a857806370a0823114610471578063715018a6146104115780638da5cb5b146103e857806395d89b41146102c6578063a9059cbb14610295578063dd62ed3e14610248578063de5f72fd1461014f5763f2fde38b146100bd57600080fd5b3461014b57602036600319011261014b576100d661086e565b906100df61097d565b6001600160a01b03918216928315610135575050600554826bffffffffffffffffffffffff60a01b821617600555167f8be0079c531659141344cd1fd0a4f28419497f9722a3daafe3b4186f6b6457e08380a380f35b51631e4fbdf760e01b8152908101849052602490fd5b8280fd5b50903461014b578260031936011261014b573383528260205269021e19e0c9bab24000008184205410156102055733156101f057600254683635c9adc5dea00000928382018092116101dd57506002553383528260205280832082815401905551908152817fddf252ad1be2c89b69c2b068fc378daa952ba7f163c4a11628f55a4df523b3ef60203393a380f35b634e487b7160e01b855260119052602484fd5b91602492519163ec442f0560e01b8352820152fd5b906020606492519162461bcd60e51b8352820152601860248201527f5961207469656e657320737566696369656e74652055535800000000000000006044820152fd5b5050346102915780600319360112610291578060209261026661086e565b61026e610889565b6001600160a01b0391821683526001865283832091168252845220549051908152f35b5080fd5b5050346102915780600319360112610291576020906102bf6102b561086e565b602435903361089f565b5160018152f35b5091903461029157816003193601126102915780519082845460018160011c90600183169283156103de575b60209384841081146103cb578388529081156103af575060011461035a575b505050829003601f01601f191682019267ffffffffffffffff8411838510176103475750829182610343925282610825565b0390f35b634e487b7160e01b815260418552602490fd5b8787529192508591837f8a35acfbc15ff81a39ae7d344fd709f28e8600b4aa8c65c6b64bfe7fe36bd19b5b83851061039b5750505050830101388080610311565b805488860183015293019284908201610385565b60ff1916878501525050151560051b8401019050388080610311565b634e487b7160e01b895260228a52602489fd5b91607f16916102f2565b50503461029157816003193601126102915760055490516001600160a01b039091168152602090f35b833461046e578060031936011261046e5761042a61097d565b600580546001600160a01b0319811690915581906001600160a01b03167f8be0079c531659141344cd1fd0a4f28419497f9722a3daafe3b4186f6b6457e08280a380f35b80fd5b5050346102915760203660031901126102915760209181906001600160a01b0361049961086e565b16815280845220549051908152f35b50903461014b578060031936011261014b576104c261086e565b90602435916104cf61097d565b6001600160a01b0316928315610542576002549083820180921161052f575084927fddf252ad1be2c89b69c2b068fc378daa952ba7f163c4a11628f55a4df523b3ef9260209260025585855284835280852082815401905551908152a380f35b634e487b7160e01b865260119052602485fd5b84602492519163ec442f0560e01b8352820152fd5b5050346102915781600319360112610291576020905160128152f35b50823461046e57606036600319011261046e5761058e61086e565b610596610889565b916044359360018060a01b0383168083526001602052868320338452602052868320549160001983106105d2575b6020886102bf89898961089f565b86831061063a57811561062357331561060c575082526001602090815286832033845281529186902090859003905582906102bf876105c4565b8751634a1406b160e11b8152908101849052602490fd5b875163e602df0560e01b8152908101849052602490fd5b8751637dc7a0d960e11b8152339181019182526020820193909352604081018790528291506060010390fd5b5050346102915781600319360112610291576020906002549051908152f35b503461014b578160031936011261014b5761069e61086e565b602435903315610717576001600160a01b031691821561070057508083602095338152600187528181208582528752205582519081527f8c5be1e5ebec7d5bd14f71427d1e84f3dd0314c0f7b2291e5b200ac8c7c3b925843392a35160018152f35b8351634a1406b160e11b8152908101859052602490fd5b835163e602df0560e01b8152808401869052602490fd5b849150833461014b578260031936011261014b578260035460018160011c906001831692831561081b575b60209384841081146103cb578388529081156107ff57506001146107a957505050829003601f01601f191682019267ffffffffffffffff8411838510176103475750829182610343925282610825565b600387529192508591837fc2575a0e9e593c00f959f8c92f12db2869c3395a3b0502d05e2516446f71f85b5b8385106107eb5750505050830101858080610311565b8054888601830152930192849082016107d5565b60ff1916878501525050151560051b8401019050858080610311565b91607f1691610759565b6020808252825181830181905290939260005b82811061085a57505060409293506000838284010152601f8019910116010190565b818101860151848201604001528501610838565b600435906001600160a01b038216820361088457565b600080fd5b602435906001600160a01b038216820361088457565b916001600160a01b03808416928315610964571692831561094b5760009083825281602052604082205490838210610919575091604082827fddf252ad1be2c89b69c2b068fc378daa952ba7f163c4a11628f55a4df523b3ef958760209652828652038282205586815220818154019055604051908152a3565b60405163391434e360e21b81526001600160a01b03919091166004820152602481019190915260448101839052606490fd5b60405163ec442f0560e01b815260006004820152602490fd5b604051634b637e8f60e11b815260006004820152602490fd5b6005546001600160a01b0316330361099157565b60405163118cdaa760e01b8152336004820152602490fdfea2646970667358221220a08afc32cd57721be5b3cf4abc1e29e67ad27b50740cfb8ff9aba68b0fa3d51964736f6c63430008170033","linkReferences":{}},"methodIdentifiers":{"allowance(address,address)":"dd62ed3e","approve(address,uint256)":"095ea7b3","balanceOf(address)":"70a08231","decimals()":"313ce567","faucet()":"de5f72fd","mint(address,uint256)":"40c10f19","name()":"06fdde03","owner()":"8da5cb5b","renounceOwnership()":"715018a6","symbol()":"95d89b41","totalSupply()":"18160ddd","transfer(address,uint256)":"a9059cbb","transferFrom(address,address,uint256)":"23b872dd","transferOwnership(address)":"f2fde38b"},"id":63}