{"abi":[{"type":"constructor","inputs":[],"stateMutability":"nonpayable"},{"type":"function","name":"allowance","inputs":[{"name":"owner","type":"address","internalType":"address"},{"name":"spender","type":"address","internalType":"address"}],"outputs":[{"name":"","type":"uint256","internalType":"uint256"}],"stateMutability":"view"},{"type":"function","name":"approve","inputs":[{"name":"spender","type":"address","internalType":"address"},{"name":"value","type":"uint256","internalType":"uint256"}],"outputs":[{"name":"","type":"bool","internalType":"bool"}],"stateMutability":"nonpayable"},{"type":"function","name":"balanceOf","inputs":[{"name":"account","type":"address","internalType":"address"}],"outputs":[{"name":"","type":"uint256","internalType":"uint256"}],"stateMutability":"view"},{"type":"function","name":"decimals","inputs":[],"outputs":[{"name":"","type":"uint8","internalType":"uint8"}],"stateMutability":"pure"},{"type":"function","name":"faucet","inputs":[],"outputs":[],"stateMutability":"nonpayable"},{"type":"function","name":"mint","inputs":[{"name":"to","type":"address","internalType":"address"},{"name":"amount","type":"uint256","internalType":"uint256"}],"outputs":[],"stateMutability":"nonpayable"},{"type":"function","name":"name","inputs":[],"outputs":[{"name":"","type":"string","internalType":"string"}],"stateMutability":"view"},{"type":"function","name":"owner","inputs":[],"outputs":[{"name":"","type":"address","internalType":"address"}],"stateMutability":"view"},{"type":"function","name":"renounceOwnership","inputs":[],"outputs":[],"stateMutability":"nonpayable"},{"type":"function","name":"symbol","inputs":[],"outputs":[{"name":"","type":"string","internalType":"string"}],"stateMutability":"view"},{"type":"function","name":"totalSupply","inputs":[],"outputs":[{"name":"","type":"uint256","internalType":"uint256"}],"stateMutability":"view"},{"type":"function","name":"transfer","inputs":[{"name":"to","type":"address","internalType":"address"},{"name":"value","type":"uint256","internalType":"uint256"}],"outputs":[{"name":"","type":"bool","internalType":"bool"}],"stateMutability":"nonpayable"},{"type":"function","name":"transferFrom","inputs":[{"name":"from","type":"address","internalType":"address"},{"name":"to","type":"address","internalType":"address"},{"name":"value","type":"uint256","internalType":"uint256"}],"outputs":[{"name":"","type":"bool","internalType":"bool"}],"stateMutability":"nonpayable"},{"type":"function","name":"transferOwnership","inputs":[{"name":"newOwner","type":"address","internalType":"address"}],"outputs":[],"stateMutability":"nonpayable"},{"type":"event","name":"Approval","inputs":[{"name":"owner","type":"address","indexed":true,"internalType":"address"},{"name":"spender","type":"address","indexed":true,"internalType":"address"},{"name":"value","type":"uint256","indexed":false,"internalType":"uint256"}],"anonymous":false},{"type":"event","name":"OwnershipTransferred","inputs":[{"name":"previousOwner","type":"address","indexed":true,"internalType":"address"},{"name":"newOwner","type":"address","indexed":true,"internalType":"address"}],"anonymous":false},{"type":"event","name":"Transfer","inputs":[{"name":"from","type":"address","indexed":true,"internalType":"address"},{"name":"to","type":"address","indexed":true,"internalType":"address"},{"name":"value","type":"uint256","indexed":false,"internalType":"uint256"}],"anonymous":false},{"type":"error","name":"ERC20InsufficientAllowance","inputs":[{"name":"spender","type":"address","internalType":"address"},{"name":"allowance","type":"uint256","internalType":"uint256"},{"name":"needed","type":"uint256","internalType":"uint256"}]},{"type":"error","name":"ERC20InsufficientBalance","inputs":[{"name":"sender","type":"address","internalType":"address"},{"name":"balance","type":"uint256","internalType":"uint256"},{"name":"needed","type":"uint256","internalType":"uint256"}]},{"type":"error","name":"ERC20InvalidApprover","inputs":[{"name":"approver","type":"address","internalType":"address"}]},{"type":"error","name":"ERC20InvalidReceiver","inputs":[{"name":"receiver","type":"address","internalType":"address"}]},{"type":"error","name":"ERC20InvalidSender","inputs":[{"name":"sender","type":"address","internalType":"address"}]},{"type":"error","name":"ERC20InvalidSpender","inputs":[{"name":"spender","type":"address","internalType":"address"}]},{"type":"error","name":"OwnableInvalidOwner","inputs":[{"name":"owner","type":"address","internalType":"address"}]},{"type":"error","name":"OwnableUnauthorizedAccount","inputs":[{"name":"account","type":"address","internalType":"address"}]}],"bytecode":{"object":"0x60806040523461041257604080519081016001600160401b0381118282101761031d576040908152600c82526b5553442045786368616e676560a01b602083015280519081016001600160401b0381118282101761031d5760405260038152620aaa6b60eb1b602082015281516001600160401b03811161031d57600354600181811c91168015610408575b60208210146102fd57601f81116103a3575b50602092601f821160011461033e5792819293600092610333575b50508160011b916000199060031b1c1916176003555b80516001600160401b03811161031d57600454600181811c91168015610313575b60208210146102fd57601f8111610298575b50602091601f821160011461023457918192600092610229575b50508160011b916000199060031b1c1916176004555b33156102135760058054336001600160a01b0319821681179092556001600160a01b03167f8be0079c531659141344cd1fd0a4f28419497f9722a3daafe3b4186f6b6457e0600080a360006002546a084595161401484a00000081018091116101ff576002555033600052600060205260406000206a084595161401484a00000081540190556040516a084595161401484a000000815260007fddf252ad1be2c89b69c2b068fc378daa952ba7f163c4a11628f55a4df523b3ef60203393a360405161091a90816104188239f35b634e487b7160e01b82526011600452602482fd5b631e4fbdf760e01b600052600060045260246000fd5b01519050388061011b565b601f198216926004600052806000209160005b85811061028057508360019510610267575b505050811b01600455610131565b015160001960f88460031b161c19169055388080610259565b91926020600181928685015181550194019201610247565b60046000527f8a35acfbc15ff81a39ae7d344fd709f28e8600b4aa8c65c6b64bfe7fe36bd19b601f830160051c810191602084106102f3575b601f0160051c01905b8181106102e75750610101565b600081556001016102da565b90915081906102d1565b634e487b7160e01b600052602260045260246000fd5b90607f16906100ef565b634e487b7160e01b600052604160045260246000fd5b0151905038806100b8565b601f198216936003600052806000209160005b86811061038b5750836001959610610372575b505050811b016003556100ce565b015160001960f88460031b161c19169055388080610364565b91926020600181928685015181550194019201610351565b60036000527fc2575a0e9e593c00f959f8c92f12db2869c3395a3b0502d05e2516446f71f85b601f830160051c810191602084106103fe575b601f0160051c01905b8181106103f2575061009d565b600081556001016103e5565b90915081906103dc565b90607f169061008b565b600080fdfe608080604052600436101561001357600080fd5b60003560e01c90816306fdde031461063c57508063095ea7b3146105b657806318160ddd1461059857806323b872dd146104ab578063313ce5671461048f57806340c10f191461045257806370a0823114610418578063715018a6146103bb5780638da5cb5b1461039257806395d89b4114610271578063a9059cbb14610240578063dd62ed3e146101ef578063de5f72fd146101485763f2fde38b146100b957600080fd5b34610143576020366003190112610143576100d2610758565b6100da610833565b6001600160a01b0316801561012d57600580546001600160a01b0319811683179091556001600160a01b03167f8be0079c531659141344cd1fd0a4f28419497f9722a3daafe3b4186f6b6457e0600080a3005b631e4fbdf760e01b600052600060045260246000fd5b600080fd5b346101435760003660031901126101435733600052600060205269021e19e0c9bab240000060406000205410156101aa57331561019457610192683635c9adc5dea000003361085c565b005b63ec442f0560e01b600052600060045260246000fd5b60405162461bcd60e51b815260206004820152601860248201527f5961207469656e657320737566696369656e74652055535800000000000000006044820152606490fd5b3461014357604036600319011261014357610208610758565b61021061076e565b6001600160a01b039182166000908152600160209081526040808320949093168252928352819020549051908152f35b346101435760403660031901126101435761026661025c610758565b6024359033610784565b602060405160018152f35b346101435760003660031901126101435760405160006004548060011c90600181168015610388575b602083108114610374578285529081156103585750600114610301575b50819003601f01601f191681019067ffffffffffffffff8211818310176102eb576102e78291826040528261070f565b0390f35b634e487b7160e01b600052604160045260246000fd5b905060046000527f8a35acfbc15ff81a39ae7d344fd709f28e8600b4aa8c65c6b64bfe7fe36bd19b6000905b828210610342575060209150820101826102b7565b600181602092548385880101520191019061032d565b90506020925060ff191682840152151560051b820101826102b7565b634e487b7160e01b84526022600452602484fd5b91607f169161029a565b34610143576000366003190112610143576005546040516001600160a01b039091168152602090f35b34610143576000366003190112610143576103d4610833565b600580546001600160a01b031981169091556000906001600160a01b03167f8be0079c531659141344cd1fd0a4f28419497f9722a3daafe3b4186f6b6457e08280a3005b34610143576020366003190112610143576001600160a01b03610439610758565b1660005260006020526020604060002054604051908152f35b346101435760403660031901126101435761046b610758565b610473610833565b6001600160a01b0381161561019457610192906024359061085c565b3461014357600036600319011261014357602060405160128152f35b34610143576060366003190112610143576104c4610758565b6104cc61076e565b6001600160a01b038216600081815260016020908152604080832033845290915290205490926044359291600019811061050c575b506102669350610784565b83811061057b57841561056557331561054f57610266946000526001602052604060002060018060a01b0333166000526020528360406000209103905584610501565b634a1406b160e11b600052600060045260246000fd5b63e602df0560e01b600052600060045260246000fd5b8390637dc7a0d960e11b6000523360045260245260445260646000fd5b34610143576000366003190112610143576020600254604051908152f35b34610143576040366003190112610143576105cf610758565b602435903315610565576001600160a01b031690811561054f57336000526001602052604060002082600052602052806040600020556040519081527f8c5be1e5ebec7d5bd14f71427d1e84f3dd0314c0f7b2291e5b200ac8c7c3b92560203392a3602060405160018152f35b346101435760003660031901126101435760006003548060011c90600181168015610705575b6020831081146103745782855290811561035857506001146106ae5750819003601f01601f191681019067ffffffffffffffff8211818310176102eb576102e78291826040528261070f565b905060036000527fc2575a0e9e593c00f959f8c92f12db2869c3395a3b0502d05e2516446f71f85b6000905b8282106106ef575060209150820101826102b7565b60018160209254838588010152019101906106da565b91607f1691610662565b91909160208152825180602083015260005b818110610742575060409293506000838284010152601f8019910116010190565b8060208092870101516040828601015201610721565b600435906001600160a01b038216820361014357565b602435906001600160a01b038216820361014357565b6001600160a01b031690811561081d576001600160a01b03169182156101945760008281528060205260408120548281106108035791604082827fddf252ad1be2c89b69c2b068fc378daa952ba7f163c4a11628f55a4df523b3ef958760209652828652038282205586815280845220818154019055604051908152a3565b916064928463391434e360e21b8452600452602452604452fd5b634b637e8f60e11b600052600060045260246000fd5b6005546001600160a01b0316330361084757565b63118cdaa760e01b6000523360045260246000fd5b600254908282018092116108ce576002919091556001600160a01b0316906000907fddf252ad1be2c89b69c2b068fc378daa952ba7f163c4a11628f55a4df523b3ef90602090846108b95780600254036002555b604051908152a3565b848452838252604084208181540190556108b0565b634e487b7160e01b600052601160045260246000fdfea2646970667358221220185a33878fd31a11eaad06d9bbe59b5fd1545de081b5ae0d55660a9af7d6670964736f6c634300081c0033","linkReferences":{}},"methodIdentifiers":{"allowance(address,address)":"dd62ed3e","approve(address,uint256)":"095ea7b3","balanceOf(address)":"70a08231","decimals()":"313ce567","faucet()":"de5f72fd","mint(address,uint256)":"40c10f19","name()":"06fdde03","owner()":"8da5cb5b","renounceOwnership()":"715018a6","symbol()":"95d89b41","totalSupply()":"18160ddd","transfer(address,uint256)":"a9059cbb","transferFrom(address,address,uint256)":"23b872dd","transferOwnership(address)":"f2fde38b"},"id":52}