{"abi":[{"type":"constructor","inputs":[],"stateMutability":"nonpayable"},{"type":"function","name":"DEFAULT_ADMIN_ROLE","inputs":[],"outputs":[{"name":"","type":"bytes32","internalType":"bytes32"}],"stateMutability":"view"},{"type":"function","name":"GOVERNMENT_ROLE","inputs":[],"outputs":[{"name":"","type":"bytes32","internalType":"bytes32"}],"stateMutability":"view"},{"type":"function","name":"OPERATOR_ROLE","inputs":[],"outputs":[{"name":"","type":"bytes32","internalType":"bytes32"}],"stateMutability":"view"},{"type":"function","name":"RELAYER_ROLE","inputs":[],"outputs":[{"name":"","type":"bytes32","internalType":"bytes32"}],"stateMutability":"view"},{"type":"function","name":"UPGRADE_INTERFACE_VERSION","inputs":[],"outputs":[{"name":"","type":"string","internalType":"string"}],"stateMutability":"view"},{"type":"function","name":"VERIFICATION_THRESHOLD","inputs":[],"outputs":[{"name":"","type":"uint8","internalType":"uint8"}],"stateMutability":"view"},{"type":"function","name":"addRelayer","inputs":[{"name":"_relayer","type":"address","internalType":"address"}],"outputs":[],"stateMutability":"nonpayable"},{"type":"function","name":"createReport","inputs":[{"name":"_arkivTxId","type":"bytes32","internalType":"bytes32"},{"name":"_categoryId","type":"uint16","internalType":"uint16"},{"name":"_zkProof","type":"uint256[8]","internalType":"uint256[8]"},{"name":"_pubSignals","type":"uint256[4]","internalType":"uint256[4]"}],"outputs":[{"name":"reportId","type":"bytes32","internalType":"bytes32"}],"stateMutability":"nonpayable"},{"type":"function","name":"getReportStatus","inputs":[{"name":"_reportId","type":"bytes32","internalType":"bytes32"}],"outputs":[{"name":"status","type":"uint8","internalType":"enum RikuyCoreV2.ReportStatus"},{"name":"upvotes","type":"uint256","internalType":"uint256"},{"name":"downvotes","type":"uint256","internalType":"uint256"},{"name":"isVerified","type":"bool","internalType":"bool"},{"name":"isResolved","type":"bool","internalType":"bool"}],"stateMutability":"view"},{"type":"function","name":"getReportValidators","inputs":[{"name":"_reportId","type":"bytes32","internalType":"bytes32"}],"outputs":[{"name":"","type":"address[]","internalType":"address[]"}],"stateMutability":"view"},{"type":"function","name":"getRoleAdmin","inputs":[{"name":"role","type":"bytes32","internalType":"bytes32"}],"outputs":[{"name":"","type":"bytes32","internalType":"bytes32"}],"stateMutability":"view"},{"type":"function","name":"grantRole","inputs":[{"name":"role","type":"bytes32","internalType":"bytes32"},{"name":"account","type":"address","internalType":"address"}],"outputs":[],"stateMutability":"nonpayable"},{"type":"function","name":"hasRole","inputs":[{"name":"role","type":"bytes32","internalType":"bytes32"},{"name":"account","type":"address","internalType":"address"}],"outputs":[{"name":"","type":"bool","internalType":"bool"}],"stateMutability":"view"},{"type":"function","name":"initialize","inputs":[{"name":"_admin","type":"address","internalType":"address"},{"name":"_reportRegistry","type":"address","internalType":"address"},{"name":"_treasury","type":"address","internalType":"address"},{"name":"_semaphoreAdapter","type":"address","internalType":"address"}],"outputs":[],"stateMutability":"nonpayable"},{"type":"function","name":"proxiableUUID","inputs":[],"outputs":[{"name":"","type":"bytes32","internalType":"bytes32"}],"stateMutability":"view"},{"type":"function","name":"renounceRole","inputs":[{"name":"role","type":"bytes32","internalType":"bytes32"},{"name":"callerConfirmation","type":"address","internalType":"address"}],"outputs":[],"stateMutability":"nonpayable"},{"type":"function","name":"reportRegistry","inputs":[],"outputs":[{"name":"","type":"address","internalType":"contract IReportRegistry"}],"stateMutability":"view"},{"type":"function","name":"resolveReport","inputs":[{"name":"_reportId","type":"bytes32","internalType":"bytes32"},{"name":"_approved","type":"bool","internalType":"bool"}],"outputs":[],"stateMutability":"nonpayable"},{"type":"function","name":"revokeRole","inputs":[{"name":"role","type":"bytes32","internalType":"bytes32"},{"name":"account","type":"address","internalType":"address"}],"outputs":[],"stateMutability":"nonpayable"},{"type":"function","name":"semaphoreAdapter","inputs":[],"outputs":[{"name":"","type":"address","internalType":"contract SemaphoreAdapter"}],"stateMutability":"view"},{"type":"function","name":"supportsInterface","inputs":[{"name":"interfaceId","type":"bytes4","internalType":"bytes4"}],"outputs":[{"name":"","type":"bool","internalType":"bool"}],"stateMutability":"view"},{"type":"function","name":"treasury","inputs":[],"outputs":[{"name":"","type":"address","internalType":"contract ITreasury"}],"stateMutability":"view"},{"type":"function","name":"upgradeToAndCall","inputs":[{"name":"newImplementation","type":"address","internalType":"address"},{"name":"data","type":"bytes","internalType":"bytes"}],"outputs":[],"stateMutability":"payable"},{"type":"function","name":"validateReport","inputs":[{"name":"_reportId","type":"bytes32","internalType":"bytes32"},{"name":"_isValid","type":"bool","internalType":"bool"}],"outputs":[],"stateMutability":"nonpayable"},{"type":"event","name":"Initialized","inputs":[{"name":"version","type":"uint64","indexed":false,"internalType":"uint64"}],"anonymous":false},{"type":"event","name":"ReportCreated","inputs":[{"name":"reportId","type":"bytes32","indexed":true,"internalType":"bytes32"},{"name":"nullifier","type":"uint256","indexed":true,"internalType":"uint256"},{"name":"arkivTxId","type":"bytes32","indexed":false,"internalType":"bytes32"},{"name":"category","type":"uint16","indexed":false,"internalType":"uint16"},{"name":"timestamp","type":"uint256","indexed":false,"internalType":"uint256"}],"anonymous":false},{"type":"event","name":"ReportResolved","inputs":[{"name":"reportId","type":"bytes32","indexed":true,"internalType":"bytes32"},{"name":"finalStatus","type":"uint8","indexed":false,"internalType":"enum RikuyCoreV2.ReportStatus"},{"name":"governmentApprover","type":"address","indexed":true,"internalType":"address"}],"anonymous":false},{"type":"event","name":"ReportValidated","inputs":[{"name":"reportId","type":"bytes32","indexed":true,"internalType":"bytes32"},{"name":"validator","type":"address","indexed":true,"internalType":"address"},{"name":"isValid","type":"bool","indexed":false,"internalType":"bool"}],"anonymous":false},{"type":"event","name":"ReportVerified","inputs":[{"name":"reportId","type":"bytes32","indexed":true,"internalType":"bytes32"},{"name":"totalValidations","type":"uint256","indexed":false,"internalType":"uint256"}],"anonymous":false},{"type":"event","name":"RoleAdminChanged","inputs":[{"name":"role","type":"bytes32","indexed":true,"internalType":"bytes32"},{"name":"previousAdminRole","type":"bytes32","indexed":true,"internalType":"bytes32"},{"name":"newAdminRole","type":"bytes32","indexed":true,"internalType":"bytes32"}],"anonymous":false},{"type":"event","name":"RoleGranted","inputs":[{"name":"role","type":"bytes32","indexed":true,"internalType":"bytes32"},{"name":"account","type":"address","indexed":true,"internalType":"address"},{"name":"sender","type":"address","indexed":true,"internalType":"address"}],"anonymous":false},{"type":"event","name":"RoleRevoked","inputs":[{"name":"role","type":"bytes32","indexed":true,"internalType":"bytes32"},{"name":"account","type":"address","indexed":true,"internalType":"address"},{"name":"sender","type":"address","indexed":true,"internalType":"address"}],"anonymous":false},{"type":"event","name":"Upgraded","inputs":[{"name":"implementation","type":"address","indexed":true,"internalType":"address"}],"anonymous":false},{"type":"error","name":"AccessControlBadConfirmation","inputs":[]},{"type":"error","name":"AccessControlUnauthorizedAccount","inputs":[{"name":"account","type":"address","internalType":"address"},{"name":"neededRole","type":"bytes32","internalType":"bytes32"}]},{"type":"error","name":"AddressEmptyCode","inputs":[{"name":"target","type":"address","internalType":"address"}]},{"type":"error","name":"ERC1967InvalidImplementation","inputs":[{"name":"implementation","type":"address","internalType":"address"}]},{"type":"error","name":"ERC1967NonPayable","inputs":[]},{"type":"error","name":"FailedCall","inputs":[]},{"type":"error","name":"InvalidInitialization","inputs":[]},{"type":"error","name":"NotInitializing","inputs":[]},{"type":"error","name":"UUPSUnauthorizedCallContext","inputs":[]},{"type":"error","name":"UUPSUnsupportedProxiableUUID","inputs":[{"name":"slot","type":"bytes32","internalType":"bytes32"}]}],"bytecode":{"object":"0x60a080604052346100ea57306080527ff0c57e16840df040f15088dc2f81fe391c3923bec73e23a9662efc9c229c6a005460ff8160401c166100d9576002600160401b03196001600160401b03821601610073575b604051611c9d90816100f08239608051818181610c7b0152610e510152f35b6001600160401b0319166001600160401b039081177ff0c57e16840df040f15088dc2f81fe391c3923bec73e23a9662efc9c229c6a005581527fc7f505b2f371ae2175ee4913f4499e1f2633a7b5936321eed1cdaeb6115181d290602090a13880610054565b63f92ee8a960e01b60005260046000fd5b600080fdfe608080604052600436101561001357600080fd5b600090813560e01c90816301ffc9a71461144157508063248a9ca31461141a5780632f2ff15d146113e85780632fb1f23e146113bf57806331c733511461108057806336568abe1461103b57806337941dea146110145780633f53b43f14610ff85780634f1ef28614610dc75780634fe4419d14610cd057806352d1902d14610c6857806361d027b314610c3f578063856116f1146108d957806391d1485414610880578063926d7d7f146108575780639cbed5821461081c578063a217fddf14610800578063a56fe1aa1461077b578063a911fea814610438578063ad3cb1cc146103be578063d547741f14610387578063dd39f00d14610359578063f5b541a61461031e5763f8c8765e1461012957600080fd5b3461031b57608036600319011261031b576101426114b1565b61014a611496565b6044356001600160a01b03811690819003610319576064356001600160a01b038116929083900361031557600080516020611c48833981519152549360ff8560401c16159467ffffffffffffffff81168015908161030d575b6001149081610303575b1590816102fa575b506102eb5767ffffffffffffffff198116600117600080516020611c4883398151915255856102be575b5060ff600080516020611c488339815191525460401c16156102af578061020861020e926118a8565b50611942565b5060018060a01b03166001600160601b0360a01b8554161784556001600160601b0360a01b60015416176001556001600160601b0360a01b60025416176002556102555780f35b68ff000000000000000019600080516020611c488339815191525416600080516020611c48833981519152557fc7f505b2f371ae2175ee4913f4499e1f2633a7b5936321eed1cdaeb6115181d2602060405160018152a180f35b631afcd79f60e31b8652600486fd5b68ffffffffffffffffff19166801000000000000000117600080516020611c4883398151915255386101df565b63f92ee8a960e01b8752600487fd5b905015386101b5565b303b1591506101ad565b8791506101a3565b8480fd5b835b80fd5b503461031b578060031936011261031b5760206040517f523a704056dcd17bcf83bed8b68c59416dac1119be77755efe3bde0a64e46e0c8152f35b503461031b57602036600319011261031b576103836103766114b1565b61037e61175b565b6117f8565b5080f35b503461031b57604036600319011261031b576103836004356103a7611496565b906103b96103b48261159a565b6117ae565b611a95565b503461031b578060031936011261031b5760408051916103de8284611518565b60058352640352e302e360dc1b6020840152815192839160208352815191826020850152815b838110610421575050828201840152601f01601f19168101030190f35b602082820181015188830188015287955001610404565b503461031b57610447366114c7565b907fc7a6bfa28ee24953425efb0bb89772445020cd5ae1af751673fd61a47416f0178352600080516020611c088339815191526020526040832060018060a01b03331660005260205260ff604060002054161561074457825460405163171c4f1160e01b815260048101839052906001600160a01b031660c082602481845afa918215610739578592610708575b506104eb63ffffffff604084015116151561166b565b60a08201516106d05782855260046020526005604086205410610692578085913b1561068e5781809160246040518094819363392f87e360e01b83528960048401525af1801561064457610679575b50508215610671576003925b610582575b50610559604051809361153a565b7f552806748515a53329fa7b9e97fb03598fe84443a437f73edbef139844d2d39360203393a380f35b839082825260036020526040822060405190816020825491828152019185526020852090855b81811061064f57505050816105be910382611518565b61ffff606060018060a01b03600154169301511690823b1561031957610616928492836040518096819582946387355f7160e01b84528b6004850152602484015283604484015260806064840152608483019061155d565b03925af180156106445761062b575b5061054b565b8161063591611518565b610640578238610625565b8280fd5b6040513d84823e3d90fd5b82546001600160a01b03168452899650602090930192600192830192016105a8565b600292610546565b8161068391611518565b61031957833861053a565b5080fd5b60405162461bcd60e51b81526020600482015260166024820152754e6f7420656e6f7567682076616c69646174696f6e7360501b6044820152606490fd5b60405162461bcd60e51b815260206004820152601060248201526f105b1c9958591e481c995cdbdb1d995960821b6044820152606490fd5b61072b91925060c03d60c011610732575b6107238183611518565b8101906115c8565b90386104d5565b503d610719565b6040513d87823e3d90fd5b63e2517d3f60e01b8352336004527fc7a6bfa28ee24953425efb0bb89772445020cd5ae1af751673fd61a47416f017602452604483fd5b503461031b57602036600319011261031b576004358152600360205260408120604051918260208354918281520192825260208220915b8181106107e1576107dd856107c981870382611518565b60405191829160208352602083019061155d565b0390f35b82546001600160a01b03168452602090930192600192830192016107b2565b503461031b578060031936011261031b57602090604051908152f35b503461031b578060031936011261031b5760206040517fc7a6bfa28ee24953425efb0bb89772445020cd5ae1af751673fd61a47416f0178152f35b503461031b578060031936011261031b576020604051600080516020611c288339815191528152f35b503461031b57604036600319011261031b57604061089c611496565b916004358152600080516020611c08833981519152602052209060018060a01b0316600052602052602060ff604060002054166040519015158152f35b503461031b576101c036600319011261031b576004359060243561ffff811680820361064057366101441161064057366101c41161064057600080516020611c288339815191528352600080516020611c0883398151915260209081526040808520336000908152925290205460ff1615610c1a5760048111610be257604051610962816114e6565b604435815260643560208201526040519061097c826114e6565b604051610988816114e6565b608435815260a435602082015282526040516109a3816114e6565b60c435815260e43560208201526020830152604051916109c2836114e6565b61010435835261012435602084015260018060a01b036002541691604051635fe8c13b60e01b8152602081806109fd888787600485016116fc565b0381875afa908115610bd7578891610b99575b5015610b6157823b15610b5d5791610a43939187809460405196879586948593630366490960e41b8552600485016116fc565b03925af18015610b5257908491610b3d575b50506101443591604051602081019184835242604083015286606083015261ffff60f01b9060f01b16608082015260628152610a92608282611518565b51902083549093906001600160a01b0316803b1561068e5781809160846040518094819363768f6ceb60e11b83528a60048401528b60248401528960448401528860648401525af1801561064457610b28575b50507f5c065b3996a5af0469aef2caf40d3f30ff66b89ef3cc7175c9dfea1958411b966060602095859360405191825287820152426040820152a3604051908152f35b610b33828092611518565b61031b5780610ae5565b81610b4791611518565b610640578238610a55565b6040513d86823e3d90fd5b8680fd5b60405162461bcd60e51b815260206004820152601060248201526f24b73b30b634b2102d2590383937b7b360811b6044820152606490fd5b90506020813d602011610bcf575b81610bb460209383611518565b81010312610bcb57610bc5906115bb565b38610a10565b8780fd5b3d9150610ba7565b6040513d8a823e3d90fd5b60405162461bcd60e51b815260206004820152601060248201526f496e76616c69642063617465676f727960801b6044820152606490fd5b63e2517d3f60e01b835233600452600080516020611c28833981519152602452604483fd5b503461031b578060031936011261031b576001546040516001600160a01b039091168152602090f35b503461031b578060031936011261031b577f00000000000000000000000000000000000000000000000000000000000000006001600160a01b03163003610cc1576020604051600080516020611be88339815191528152f35b63703e46dd60e11b8152600490fd5b503461031b57602036600319011261031b576024906004359060c060018060a01b038254166040519485809263171c4f1160e01b82528660048301525afa8015610dba5760a0938291610d9b575b50828252600460205260408220549282526005602052604082205484600585101592015115159283600014610d7557506003935b610d5f604051809661153a565b6020850152604084015260608301526080820152f35b8215610d845750600193610d52565b84821115610d955750600293610d52565b93610d52565b610db4915060c03d60c011610732576107238183611518565b38610d1e565b50604051903d90823e3d90fd5b50604036600319011261031b57610ddc6114b1565b906024359167ffffffffffffffff831161068e573660238401121561068e57826004013567ffffffffffffffff8111610fe45760405193610e27601f8301601f191660200186611518565b81855236602483830101116103195781849260246020930183880137850101526001600160a01b037f000000000000000000000000000000000000000000000000000000000000000016308114908115610fc1575b50610fb257610e8961175b565b6040516352d1902d60e01b8152926001600160a01b0382169190602085600481865afa80958596610f7e575b50610ece57634c9c8ce360e01b84526004839052602484fd5b909184600080516020611be88339815191528103610f6c5750823b15610f5a57600080516020611be883398151915280546001600160a01b031916821790557fbc7cd75a20ee27fd9adebab32041f755214dbc6bffa90cc0225b39da2e5c2d3b8480a2805115610f415761038391611b35565b505034610f4b5780f35b63b398979f60e01b8152600490fd5b634c9c8ce360e01b8452600452602483fd5b632a87526960e21b8552600452602484fd5b9095506020813d602011610faa575b81610f9a60209383611518565b8101031261031557519438610eb5565b3d9150610f8d565b63703e46dd60e11b8252600482fd5b600080516020611be8833981519152546001600160a01b03161415905038610e7c565b634e487b7160e01b83526041600452602483fd5b503461031b578060031936011261031b57602060405160058152f35b503461031b578060031936011261031b57546040516001600160a01b039091168152602090f35b503461031b57604036600319011261031b57611055611496565b336001600160a01b038216036110715761038390600435611a95565b63334bd91960e11b8252600482fd5b503461031b5761108f366114c7565b825460405163171c4f1160e01b8152600481018490526001600160a01b039091169060c081602481855afa80156107395760a09186916113a0575b506110e063ffffffff604083015116151561166b565b015161135b5760405162eb561f60e81b815260048101849052336024820152602081604481855afa908115610739578591611321575b506112e857803b15610319576040516302110d9d60e11b8152600481018490523360248201529084908290604490829084905af18015610b52576112d4575b5080156112b75781835260046020526040832061117281546116af565b9055818352600360205260408320805490680100000000000000008210156112a3576001820180825582101561128f578452602084200180546001600160a01b031916331790555b6040519015158152817f774e28a89c30241f90984d3e09179a415971e541e35a63e3e74a8d34818029eb60203393a38082526004602052600560408320541015611202575080f35b815482906001600160a01b0316803b1561068e5781809160246040518094819363aee4546560e01b83528860048401525af180156106445761127a575b5081905260046020527f8acc63596f1bced0d0a1fc6b22887015747c0d9b0e9253588fabb96c60cbe3dd60206040842054604051908152a280f35b8161128491611518565b61068e57813861123f565b634e487b7160e01b85526032600452602485fd5b634e487b7160e01b85526041600452602485fd5b8183526005602052604083206112cd81546116af565b90556111ba565b836112e191949294611518565b9138611155565b60405162461bcd60e51b8152602060048201526011602482015270105b1c9958591e481d985b1a59185d1959607a1b6044820152606490fd5b90506020813d602011611353575b8161133c60209383611518565b810103126103155761134d906115bb565b38611116565b3d915061132f565b60405162461bcd60e51b815260206004820152601760248201527f5265706f727420616c7265616479207265736f6c7665640000000000000000006044820152606490fd5b6113b9915060c03d60c011610732576107238183611518565b386110ca565b503461031b578060031936011261031b576002546040516001600160a01b039091168152602090f35b503461031b57604036600319011261031b57610383600435611408611496565b906114156103b48261159a565b6119fe565b503461031b57602036600319011261031b57602061143960043561159a565b604051908152f35b90503461068e57602036600319011261068e5760043563ffffffff60e01b81168091036106405760209250637965db0b60e01b8114908115611485575b5015158152f35b6301ffc9a760e01b1490503861147e565b602435906001600160a01b03821682036114ac57565b600080fd5b600435906001600160a01b03821682036114ac57565b60409060031901126114ac576004359060243580151581036114ac5790565b6040810190811067ffffffffffffffff82111761150257604052565b634e487b7160e01b600052604160045260246000fd5b90601f8019910116810190811067ffffffffffffffff82111761150257604052565b9060048210156115475752565b634e487b7160e01b600052602160045260246000fd5b906020808351928381520192019060005b81811061157b5750505090565b82516001600160a01b031684526020938401939092019160010161156e565b600052600080516020611c0883398151915260205260016040600020015490565b519081151582036114ac57565b908160c09103126114ac5760405190600060c0830167ffffffffffffffff811184821017611657576040528151835260208201516020840152604082015163ffffffff8116810361068e576040840152606082015161ffff8116810361068e57606084015260808201519060ff8216820361031b5750608083015261164f9060a0016115bb565b60a082015290565b634e487b7160e01b82526041600452602482fd5b1561167257565b60405162461bcd60e51b815260206004820152601560248201527414995c1bdc9d08191bd95cc81b9bdd08195e1a5cdd605a1b6044820152606490fd5b60001981146116be5760010190565b634e487b7160e01b600052601160045260246000fd5b906000905b600282106116e657505050565b60208060019285518152019301910190916116d9565b9193929093611710836101808101966116d4565b6000604084015b6002821061173d57505050610100826117396101449360c060809601906116d4565b0137565b602060408261174f60019487516116d4565b01930191019091611717565b3360009081527fb7db2dd08fcb62d0c9e08c51941cae53c267786a0b75803fb7960902fc8ef97d602052604090205460ff161561179457565b63e2517d3f60e01b60005233600452600060245260446000fd5b6000818152600080516020611c088339815191526020908152604080832033845290915290205460ff16156117e05750565b63e2517d3f60e01b6000523360045260245260446000fd5b6001600160a01b03811660009081527f199f185223df42b4e6b3da146562585c89c5cd655e26046671ff0ab6c9496b59602052604090205460ff166118a2576001600160a01b031660008181527f199f185223df42b4e6b3da146562585c89c5cd655e26046671ff0ab6c9496b5960205260408120805460ff19166001179055339190600080516020611c2883398151915290600080516020611bc88339815191529080a4600190565b50600090565b6001600160a01b03811660009081527fb7db2dd08fcb62d0c9e08c51941cae53c267786a0b75803fb7960902fc8ef97d602052604090205460ff166118a2576001600160a01b031660008181527fb7db2dd08fcb62d0c9e08c51941cae53c267786a0b75803fb7960902fc8ef97d60205260408120805460ff19166001179055339190600080516020611bc88339815191528180a4600190565b6001600160a01b03811660009081527f5dfc6369ede8c1331430c00b581919993675ec010140508e8a499d5c8bfbd937602052604090205460ff166118a2576001600160a01b031660008181527f5dfc6369ede8c1331430c00b581919993675ec010140508e8a499d5c8bfbd93760205260408120805460ff191660011790553391907f523a704056dcd17bcf83bed8b68c59416dac1119be77755efe3bde0a64e46e0c90600080516020611bc88339815191529080a4600190565b6000818152600080516020611c08833981519152602090815260408083206001600160a01b038616845290915290205460ff16611a8e576000818152600080516020611c08833981519152602090815260408083206001600160a01b0395909516808452949091528120805460ff1916600117905533929190600080516020611bc88339815191529080a4600190565b5050600090565b6000818152600080516020611c08833981519152602090815260408083206001600160a01b038616845290915290205460ff1615611a8e576000818152600080516020611c08833981519152602090815260408083206001600160a01b0395909516808452949091528120805460ff19169055339291907ff6391f5c32d9c69d2a47ea670b442974b53935d1edc7fd64eb21e047a839171b9080a4600190565b9060008091602081519101845af48080611bb4575b15611b6b5750506040513d81523d6000602083013e60203d82010160405290565b15611b9157639996b31560e01b60009081526001600160a01b0391909116600452602490fd5b3d15611ba3576040513d6000823e3d90fd5b63d6bda27560e01b60005260046000fd5b503d151580611b4a5750813b1515611b4a56fe2f8788117e7eff1d82e926ec794901d17c78024a50270940304540a733656f0d360894a13ba1a3210667c828492db98dca3e2076cc3735a920a3ca505d382bbc02dd7bc7dec4dceedda775e58dd541e08a116c6c53815c0bd028192f7b626800ab4f864e5201b0fde9b5ee3e4cf96384802b0ffdfcf7f9de4699ce21a30afc4ff0c57e16840df040f15088dc2f81fe391c3923bec73e23a9662efc9c229c6a00a2646970667358221220b40320b617cb2bbf3f3ade4c42cad8dec912803cb161356a6b887c159ef1ff3564736f6c634300081c0033","linkReferences":{}},"methodIdentifiers":{"DEFAULT_ADMIN_ROLE()":"a217fddf","GOVERNMENT_ROLE()":"9cbed582","OPERATOR_ROLE()":"f5b541a6","RELAYER_ROLE()":"926d7d7f","UPGRADE_INTERFACE_VERSION()":"ad3cb1cc","VERIFICATION_THRESHOLD()":"3f53b43f","addRelayer(address)":"dd39f00d","createReport(bytes32,uint16,uint256[8],uint256[4])":"856116f1","getReportStatus(bytes32)":"4fe4419d","getReportValidators(bytes32)":"a56fe1aa","getRoleAdmin(bytes32)":"248a9ca3","grantRole(bytes32,address)":"2f2ff15d","hasRole(bytes32,address)":"91d14854","initialize(address,address,address,address)":"f8c8765e","proxiableUUID()":"52d1902d","renounceRole(bytes32,address)":"36568abe","reportRegistry()":"37941dea","resolveReport(bytes32,bool)":"a911fea8","revokeRole(bytes32,address)":"d547741f","semaphoreAdapter()":"2fb1f23e","supportsInterface(bytes4)":"01ffc9a7","treasury()":"61d027b3","upgradeToAndCall(address,bytes)":"4f1ef286","validateReport(bytes32,bool)":"31c73351"},"id":60}